{
  "_format": "hh-sol-artifact-1",
  "contractName": "ContractResolver",
  "sourceName": "contracts/lit-core/ContractResolver.sol",
  "abi": [
    {
      "inputs": [
        {
          "internalType": "enum ContractResolver.Env",
          "name": "env",
          "type": "uint8"
        }
      ],
      "stateMutability": "nonpayable",
      "type": "constructor"
    },
    {
      "inputs": [],
      "name": "AdminRoleRequired",
      "type": "error"
    },
    {
      "anonymous": false,
      "inputs": [
        {
          "indexed": false,
          "internalType": "enum ContractResolver.Env",
          "name": "env",
          "type": "uint8"
        }
      ],
      "name": "AllowedEnvAdded",
      "type": "event"
    },
    {
      "anonymous": false,
      "inputs": [
        {
          "indexed": false,
          "internalType": "enum ContractResolver.Env",
          "name": "env",
          "type": "uint8"
        }
      ],
      "name": "AllowedEnvRemoved",
      "type": "event"
    },
    {
      "anonymous": false,
      "inputs": [
        {
          "indexed": true,
          "internalType": "bytes32",
          "name": "role",
          "type": "bytes32"
        },
        {
          "indexed": true,
          "internalType": "bytes32",
          "name": "previousAdminRole",
          "type": "bytes32"
        },
        {
          "indexed": true,
          "internalType": "bytes32",
          "name": "newAdminRole",
          "type": "bytes32"
        }
      ],
      "name": "RoleAdminChanged",
      "type": "event"
    },
    {
      "anonymous": false,
      "inputs": [
        {
          "indexed": true,
          "internalType": "bytes32",
          "name": "role",
          "type": "bytes32"
        },
        {
          "indexed": true,
          "internalType": "address",
          "name": "account",
          "type": "address"
        },
        {
          "indexed": true,
          "internalType": "address",
          "name": "sender",
          "type": "address"
        }
      ],
      "name": "RoleGranted",
      "type": "event"
    },
    {
      "anonymous": false,
      "inputs": [
        {
          "indexed": true,
          "internalType": "bytes32",
          "name": "role",
          "type": "bytes32"
        },
        {
          "indexed": true,
          "internalType": "address",
          "name": "account",
          "type": "address"
        },
        {
          "indexed": true,
          "internalType": "address",
          "name": "sender",
          "type": "address"
        }
      ],
      "name": "RoleRevoked",
      "type": "event"
    },
    {
      "anonymous": false,
      "inputs": [
        {
          "indexed": false,
          "internalType": "bytes32",
          "name": "typ",
          "type": "bytes32"
        },
        {
          "indexed": false,
          "internalType": "enum ContractResolver.Env",
          "name": "env",
          "type": "uint8"
        },
        {
          "indexed": false,
          "internalType": "address",
          "name": "addr",
          "type": "address"
        }
      ],
      "name": "SetContract",
      "type": "event"
    },
    {
      "inputs": [],
      "name": "ADMIN_ROLE",
      "outputs": [
        {
          "internalType": "bytes32",
          "name": "",
          "type": "bytes32"
        }
      ],
      "stateMutability": "view",
      "type": "function"
    },
    {
      "inputs": [],
      "name": "ALLOWLIST_CONTRACT",
      "outputs": [
        {
          "internalType": "bytes32",
          "name": "",
          "type": "bytes32"
        }
      ],
      "stateMutability": "view",
      "type": "function"
    },
    {
      "inputs": [],
      "name": "BACKUP_RECOVERY_CONTRACT",
      "outputs": [
        {
          "internalType": "bytes32",
          "name": "",
          "type": "bytes32"
        }
      ],
      "stateMutability": "view",
      "type": "function"
    },
    {
      "inputs": [],
      "name": "DEFAULT_ADMIN_ROLE",
      "outputs": [
        {
          "internalType": "bytes32",
          "name": "",
          "type": "bytes32"
        }
      ],
      "stateMutability": "view",
      "type": "function"
    },
    {
      "inputs": [],
      "name": "DOMAIN_WALLET_REGISTRY",
      "outputs": [
        {
          "internalType": "bytes32",
          "name": "",
          "type": "bytes32"
        }
      ],
      "stateMutability": "view",
      "type": "function"
    },
    {
      "inputs": [],
      "name": "FORWARDER_CONTRACT",
      "outputs": [
        {
          "internalType": "bytes32",
          "name": "",
          "type": "bytes32"
        }
      ],
      "stateMutability": "view",
      "type": "function"
    },
    {
      "inputs": [],
      "name": "HD_KEY_DERIVER_CONTRACT",
      "outputs": [
        {
          "internalType": "bytes32",
          "name": "",
          "type": "bytes32"
        }
      ],
      "stateMutability": "view",
      "type": "function"
    },
    {
      "inputs": [],
      "name": "HOST_COMMANDS_CONTRACT",
      "outputs": [
        {
          "internalType": "bytes32",
          "name": "",
          "type": "bytes32"
        }
      ],
      "stateMutability": "view",
      "type": "function"
    },
    {
      "inputs": [],
      "name": "LEDGER_CONTRACT",
      "outputs": [
        {
          "internalType": "bytes32",
          "name": "",
          "type": "bytes32"
        }
      ],
      "stateMutability": "view",
      "type": "function"
    },
    {
      "inputs": [],
      "name": "LIT_TOKEN_CONTRACT",
      "outputs": [
        {
          "internalType": "bytes32",
          "name": "",
          "type": "bytes32"
        }
      ],
      "stateMutability": "view",
      "type": "function"
    },
    {
      "inputs": [],
      "name": "MULTI_SENDER_CONTRACT",
      "outputs": [
        {
          "internalType": "bytes32",
          "name": "",
          "type": "bytes32"
        }
      ],
      "stateMutability": "view",
      "type": "function"
    },
    {
      "inputs": [],
      "name": "PAYMENT_DELEGATION_CONTRACT",
      "outputs": [
        {
          "internalType": "bytes32",
          "name": "",
          "type": "bytes32"
        }
      ],
      "stateMutability": "view",
      "type": "function"
    },
    {
      "inputs": [],
      "name": "PKP_HELPER_CONTRACT",
      "outputs": [
        {
          "internalType": "bytes32",
          "name": "",
          "type": "bytes32"
        }
      ],
      "stateMutability": "view",
      "type": "function"
    },
    {
      "inputs": [],
      "name": "PKP_HELPER_V2_CONTRACT",
      "outputs": [
        {
          "internalType": "bytes32",
          "name": "",
          "type": "bytes32"
        }
      ],
      "stateMutability": "view",
      "type": "function"
    },
    {
      "inputs": [],
      "name": "PKP_NFT_CONTRACT",
      "outputs": [
        {
          "internalType": "bytes32",
          "name": "",
          "type": "bytes32"
        }
      ],
      "stateMutability": "view",
      "type": "function"
    },
    {
      "inputs": [],
      "name": "PKP_NFT_METADATA_CONTRACT",
      "outputs": [
        {
          "internalType": "bytes32",
          "name": "",
          "type": "bytes32"
        }
      ],
      "stateMutability": "view",
      "type": "function"
    },
    {
      "inputs": [],
      "name": "PKP_PERMISSIONS_CONTRACT",
      "outputs": [
        {
          "internalType": "bytes32",
          "name": "",
          "type": "bytes32"
        }
      ],
      "stateMutability": "view",
      "type": "function"
    },
    {
      "inputs": [],
      "name": "PRICE_FEED_CONTRACT",
      "outputs": [
        {
          "internalType": "bytes32",
          "name": "",
          "type": "bytes32"
        }
      ],
      "stateMutability": "view",
      "type": "function"
    },
    {
      "inputs": [],
      "name": "PUB_KEY_ROUTER_CONTRACT",
      "outputs": [
        {
          "internalType": "bytes32",
          "name": "",
          "type": "bytes32"
        }
      ],
      "stateMutability": "view",
      "type": "function"
    },
    {
      "inputs": [],
      "name": "PUB_KEY_ROUTER_VIEWS_CONTRACT",
      "outputs": [
        {
          "internalType": "bytes32",
          "name": "",
          "type": "bytes32"
        }
      ],
      "stateMutability": "view",
      "type": "function"
    },
    {
      "inputs": [],
      "name": "RATE_LIMIT_NFT_CONTRACT",
      "outputs": [
        {
          "internalType": "bytes32",
          "name": "",
          "type": "bytes32"
        }
      ],
      "stateMutability": "view",
      "type": "function"
    },
    {
      "inputs": [],
      "name": "RELEASE_REGISTER_CONTRACT",
      "outputs": [
        {
          "internalType": "bytes32",
          "name": "",
          "type": "bytes32"
        }
      ],
      "stateMutability": "view",
      "type": "function"
    },
    {
      "inputs": [],
      "name": "STAKING_BALANCES_CONTRACT",
      "outputs": [
        {
          "internalType": "bytes32",
          "name": "",
          "type": "bytes32"
        }
      ],
      "stateMutability": "view",
      "type": "function"
    },
    {
      "inputs": [],
      "name": "STAKING_CONTRACT",
      "outputs": [
        {
          "internalType": "bytes32",
          "name": "",
          "type": "bytes32"
        }
      ],
      "stateMutability": "view",
      "type": "function"
    },
    {
      "inputs": [
        {
          "internalType": "address",
          "name": "newAdmin",
          "type": "address"
        }
      ],
      "name": "addAdmin",
      "outputs": [],
      "stateMutability": "nonpayable",
      "type": "function"
    },
    {
      "inputs": [
        {
          "internalType": "enum ContractResolver.Env",
          "name": "env",
          "type": "uint8"
        }
      ],
      "name": "addAllowedEnv",
      "outputs": [],
      "stateMutability": "nonpayable",
      "type": "function"
    },
    {
      "inputs": [
        {
          "internalType": "bytes32",
          "name": "typ",
          "type": "bytes32"
        },
        {
          "internalType": "enum ContractResolver.Env",
          "name": "env",
          "type": "uint8"
        }
      ],
      "name": "getContract",
      "outputs": [
        {
          "internalType": "address",
          "name": "",
          "type": "address"
        }
      ],
      "stateMutability": "view",
      "type": "function"
    },
    {
      "inputs": [
        {
          "internalType": "bytes32",
          "name": "role",
          "type": "bytes32"
        }
      ],
      "name": "getRoleAdmin",
      "outputs": [
        {
          "internalType": "bytes32",
          "name": "",
          "type": "bytes32"
        }
      ],
      "stateMutability": "view",
      "type": "function"
    },
    {
      "inputs": [
        {
          "internalType": "bytes32",
          "name": "role",
          "type": "bytes32"
        },
        {
          "internalType": "address",
          "name": "account",
          "type": "address"
        }
      ],
      "name": "grantRole",
      "outputs": [],
      "stateMutability": "nonpayable",
      "type": "function"
    },
    {
      "inputs": [
        {
          "internalType": "bytes32",
          "name": "role",
          "type": "bytes32"
        },
        {
          "internalType": "address",
          "name": "account",
          "type": "address"
        }
      ],
      "name": "hasRole",
      "outputs": [
        {
          "internalType": "bool",
          "name": "",
          "type": "bool"
        }
      ],
      "stateMutability": "view",
      "type": "function"
    },
    {
      "inputs": [
        {
          "internalType": "address",
          "name": "adminBeingRemoved",
          "type": "address"
        }
      ],
      "name": "removeAdmin",
      "outputs": [],
      "stateMutability": "nonpayable",
      "type": "function"
    },
    {
      "inputs": [
        {
          "internalType": "enum ContractResolver.Env",
          "name": "env",
          "type": "uint8"
        }
      ],
      "name": "removeAllowedEnv",
      "outputs": [],
      "stateMutability": "nonpayable",
      "type": "function"
    },
    {
      "inputs": [
        {
          "internalType": "bytes32",
          "name": "role",
          "type": "bytes32"
        },
        {
          "internalType": "address",
          "name": "account",
          "type": "address"
        }
      ],
      "name": "renounceRole",
      "outputs": [],
      "stateMutability": "nonpayable",
      "type": "function"
    },
    {
      "inputs": [
        {
          "internalType": "bytes32",
          "name": "role",
          "type": "bytes32"
        },
        {
          "internalType": "address",
          "name": "account",
          "type": "address"
        }
      ],
      "name": "revokeRole",
      "outputs": [],
      "stateMutability": "nonpayable",
      "type": "function"
    },
    {
      "inputs": [
        {
          "internalType": "bytes32",
          "name": "typ",
          "type": "bytes32"
        },
        {
          "internalType": "enum ContractResolver.Env",
          "name": "env",
          "type": "uint8"
        },
        {
          "internalType": "address",
          "name": "addr",
          "type": "address"
        }
      ],
      "name": "setContract",
      "outputs": [],
      "stateMutability": "nonpayable",
      "type": "function"
    },
    {
      "inputs": [
        {
          "internalType": "bytes4",
          "name": "interfaceId",
          "type": "bytes4"
        }
      ],
      "name": "supportsInterface",
      "outputs": [
        {
          "internalType": "bool",
          "name": "",
          "type": "bool"
        }
      ],
      "stateMutability": "view",
      "type": "function"
    },
    {
      "inputs": [
        {
          "internalType": "bytes32",
          "name": "",
          "type": "bytes32"
        },
        {
          "internalType": "enum ContractResolver.Env",
          "name": "",
          "type": "uint8"
        }
      ],
      "name": "typeAddresses",
      "outputs": [
        {
          "internalType": "address",
          "name": "",
          "type": "address"
        }
      ],
      "stateMutability": "view",
      "type": "function"
    }
  ],
  "bytecode": "0x608060405234801561001057600080fd5b5060405161149938038061149983398101604081905261002f916101e0565b610047600080516020611479833981519152336100e9565b61005f600080516020611479833981519152806100f7565b600180600083600281111561007657610076610208565b600281111561008757610087610208565b815260200190815260200160002060006101000a81548160ff0219169083151502179055507f839ad2743d4062df579edf3818f642b71ee0688a35d6bc4438ef5314cece8015816040516100db919061021e565b60405180910390a150610246565b6100f38282610142565b5050565b600082815260208190526040808220600101805490849055905190918391839186917fbd79b86ffe0ab8e8776151514217cd7cacd52c909f66475c3af44e129f0b00ff9190a4505050565b6000828152602081815260408083206001600160a01b038516845290915290205460ff166100f3576000828152602081815260408083206001600160a01b03851684529091529020805460ff1916600117905561019c3390565b6001600160a01b0316816001600160a01b0316837f2f8788117e7eff1d82e926ec794901d17c78024a50270940304540a733656f0d60405160405180910390a45050565b6000602082840312156101f257600080fd5b81516003811061020157600080fd5b9392505050565b634e487b7160e01b600052602160045260246000fd5b602081016003831061024057634e487b7160e01b600052602160045260246000fd5b91905290565b611224806102556000396000f3fe608060405234801561001057600080fd5b50600436106101c75760003560e01c80637cadf69f116101005780637cadf69f146104225780637d4a03bd146104495780637d9d2880146104705780637f90209f1461049757806381d49578146104be57806385cb1191146104e55780638c1536df1461050c5780638deb3893146105335780638e8dfd16146105465780639072f8381461055957806391d1485414610580578063977a807014610593578063a217fddf146105ba578063ad1c8a86146105c2578063cddcace5146105e9578063d547741f14610610578063da19ddfb14610623578063df3806931461064a578063f8ae93b41461067157600080fd5b806301ffc9a7146101cc57806311ee8ff7146101f457806316f76bbf146102295780631785f53c14610250578063219c266a14610265578063248a9ca31461028c5780632668f3051461029f5780632c0b8bf7146102c65780632e4885e8146102ed5780632f2ff15d1461031457806336568abe146103275780633ebf79851461033a5780634216e73a1461038657806351ad0a80146103ad5780635af27f79146103c057806370480275146103e757806374bc8139146103fa57806375b238fc1461040d575b600080fd5b6101df6101da366004610ee3565b610698565b60405190151581526020015b60405180910390f35b61021b7f58a0044e0ecd81025e398bf1815075d1234cbac3749614b0b33a404c2ee2babf81565b6040519081526020016101eb565b61021b7ff14f431dadc82e7dbc5e379f71234e5735c9187e4327a7c6ac014d55d1b7727a81565b61026361025e366004610f29565b6106cf565b005b61021b7f4fd3e0487a0382fb027c77b1ae4c563672c9fb30a74879855f0c86c376cf96ea81565b61021b61029a366004610f44565b610780565b61021b7fb1f79813bc7630a52ae948bc99781397e409d0dd3521953bf7d8d7a2db6147f781565b61021b7fb7b4fde9944d3c13e9a78835431c33a5084d90a7f0c73def76d7886315fe87b081565b61021b7fb931b2719aeb2a65a5035fa0a190bfdc4c8622ce8cbff7a3d1ab42531fb1a91881565b610263610322366004610f5d565b610795565b610263610335366004610f5d565b6107b6565b61036e610348366004610f98565b60026020908152600092835260408084209091529082529020546001600160a01b031681565b6040516001600160a01b0390911681526020016101eb565b61021b7f4c41ae454beb6bbbe9be50accc957a3b1536e48b835a86919af981b5244db75581565b6102636103bb366004610fbb565b610830565b61021b7fa2c73732de657ad0f36e0ddbb2710f4b13e8dde46421386bb92d1e179dae4d4d81565b6102636103f5366004610f29565b6109b4565b610263610408366004610ff7565b6109e4565b61021b6000805160206111cf83398151915281565b61021b7f74845de37cfabd357633214b47fa91ccd19b05b7c5a08ac22c187f811fb62bca81565b61021b7f9f35ef3e0c2652a8bb8747d92f407fcd39a7768dacc7f16581c7a71f103e556281565b61021b7fc26faedaeeda2fb94a66d786aa89c4a18bb790fa009d9da94a541d92185ca91681565b61021b7fc6674f98ba35c01c130e08195dd26c70466037473a068c5aaa470a783d99c16c81565b61021b7f57496de430028f322c592b0f735110eb34f1ae8184a94bc51d40b0847b54469b81565b61021b7fae79a935737012d066e7183032692e521ffe1ade2beda267e23e02b1d6e9118781565b61021b7faa06d108dbd7bf976b16b7bf5adb29d2d0ef2c385ca8b9d833cc802f33942d7281565b610263610541366004610ff7565b610aa0565b61036e610554366004610f98565b610b44565b61021b7f54953c23068b8fc4c0736301b50f10027d6b469327de1fd42841a5072b1bcebe81565b6101df61058e366004610f5d565b610b9a565b61021b7f27d764ea2a4a3865434bbf4a391110149644be31448f3479fd15b4438875576581565b61021b600081565b61021b7f3a68dbfd8bbb64015c42bc131c388dea7965e28c1004d09b39f59500c3a763ec81565b61021b7f0f27b9e46b89c5c742e28094dcefe5e946c3b98f0fbed87d9fcf5b10ba9684ec81565b61026361061e366004610f5d565b610bc3565b61021b7f080909c18c958ce5a2d36481697824e477319323d03154ceba3b78f28a61887b81565b61021b7fb4bf999b68d8085dbbf7a0ec2f5a2d660873935bdf1ed08eb421ac6dcbc0036281565b61021b7fdd5b9b8a5e8e01f2962ed7e983d58fe32e1f66aa88dd7ab30770fa9b77da724381565b60006001600160e01b03198216637965db0b60e01b14806106c957506301ffc9a760e01b6001600160e01b03198316145b92915050565b6000805160206111cf8339815191526106e781610bdf565b336001600160a01b038316036107645760405162461bcd60e51b815260206004820152603760248201527f43616e6e6f742072656d6f76652073656c662061732061646d696e2e202048616044820152763b32903a3432903732bb9030b236b4b71032379034ba1760491b60648201526084015b60405180910390fd5b61077c6000805160206111cf83398151915283610bec565b5050565b60009081526020819052604090206001015490565b61079e82610780565b6107a781610bdf565b6107b18383610c51565b505050565b6001600160a01b03811633146108265760405162461bcd60e51b815260206004820152602f60248201527f416363657373436f6e74726f6c3a2063616e206f6e6c792072656e6f756e636560448201526e103937b632b9903337b91039b2b63360891b606482015260840161075b565b61077c8282610bec565b6108486000805160206111cf83398151915233610b9a565b610865576040516364487c2560e11b815260040160405180910390fd5b6001600083600281111561087b5761087b611012565b600281111561088c5761088c611012565b815260208101919091526040016000205460ff1615156001146109095760405162461bcd60e51b815260206004820152602f60248201527f5468652070726f766964656420456e76206973206e6f742076616c696420666f60448201526e1c881d1a1a5cc818dbdb9d1c9858dd608a1b606482015260840161075b565b8060026000858152602001908152602001600020600084600281111561093157610931611012565b600281111561094257610942611012565b815260200190815260200160002060006101000a8154816001600160a01b0302191690836001600160a01b031602179055507f33f014890f109229bbcf8dd47204c153a2c0ff1c572a61de220d10336530f53d8383836040516109a79392919061104a565b60405180910390a1505050565b6000805160206111cf8339815191526109cc81610bdf565b61077c6000805160206111cf83398151915283610c51565b6109fc6000805160206111cf83398151915233610b9a565b610a19576040516364487c2560e11b815260040160405180910390fd5b6001806000836002811115610a3057610a30611012565b6002811115610a4157610a41611012565b815260200190815260200160002060006101000a81548160ff0219169083151502179055507f839ad2743d4062df579edf3818f642b71ee0688a35d6bc4438ef5314cece801581604051610a959190611077565b60405180910390a150565b610ab86000805160206111cf83398151915233610b9a565b610ad5576040516364487c2560e11b815260040160405180910390fd5b60016000826002811115610aeb57610aeb611012565b6002811115610afc57610afc611012565b815260208101919091526040908101600020805460ff19169055517f3f178f17dae6caf8ca09c4857502baf7744e8597de42d6596476fe9e06b8ad4790610a95908390611077565b600082815260026020819052604082209082908490811115610b6857610b68611012565b6002811115610b7957610b79611012565b81526020810191909152604001600020546001600160a01b03169392505050565b6000918252602082815260408084206001600160a01b0393909316845291905290205460ff1690565b610bcc82610780565b610bd581610bdf565b6107b18383610bec565b610be98133610cd5565b50565b610bf68282610b9a565b1561077c576000828152602081815260408083206001600160a01b0385168085529252808320805460ff1916905551339285917ff6391f5c32d9c69d2a47ea670b442974b53935d1edc7fd64eb21e047a839171b9190a45050565b610c5b8282610b9a565b61077c576000828152602081815260408083206001600160a01b03851684529091529020805460ff19166001179055610c913390565b6001600160a01b0316816001600160a01b0316837f2f8788117e7eff1d82e926ec794901d17c78024a50270940304540a733656f0d60405160405180910390a45050565b610cdf8282610b9a565b61077c57610cec81610d2e565b610cf7836020610d40565b604051602001610d089291906110a9565b60408051601f198184030181529082905262461bcd60e51b825261075b91600401611118565b60606106c96001600160a01b03831660145b60606000610d4f836002611161565b610d5a906002611178565b67ffffffffffffffff811115610d7257610d7261118b565b6040519080825280601f01601f191660200182016040528015610d9c576020820181803683370190505b509050600360fc1b81600081518110610db757610db76111a1565b60200101906001600160f81b031916908160001a905350600f60fb1b81600181518110610de657610de66111a1565b60200101906001600160f81b031916908160001a9053506000610e0a846002611161565b610e15906001611178565b90505b6001811115610e8d576f181899199a1a9b1b9c1cb0b131b232b360811b85600f1660108110610e4957610e496111a1565b1a60f81b828281518110610e5f57610e5f6111a1565b60200101906001600160f81b031916908160001a90535060049490941c93610e86816111b7565b9050610e18565b508315610edc5760405162461bcd60e51b815260206004820181905260248201527f537472696e67733a20686578206c656e67746820696e73756666696369656e74604482015260640161075b565b9392505050565b600060208284031215610ef557600080fd5b81356001600160e01b031981168114610edc57600080fd5b80356001600160a01b0381168114610f2457600080fd5b919050565b600060208284031215610f3b57600080fd5b610edc82610f0d565b600060208284031215610f5657600080fd5b5035919050565b60008060408385031215610f7057600080fd5b82359150610f8060208401610f0d565b90509250929050565b803560038110610f2457600080fd5b60008060408385031215610fab57600080fd5b82359150610f8060208401610f89565b600080600060608486031215610fd057600080fd5b83359250610fe060208501610f89565b9150610fee60408501610f0d565b90509250925092565b60006020828403121561100957600080fd5b610edc82610f89565b634e487b7160e01b600052602160045260246000fd5b6003811061104657634e487b7160e01b600052602160045260246000fd5b9052565b8381526060810161105e6020830185611028565b6001600160a01b03929092166040919091015292915050565b602081016106c98284611028565b60005b838110156110a0578181015183820152602001611088565b50506000910152565b76020b1b1b2b9b9a1b7b73a3937b61d1030b1b1b7bab73a1604d1b8152600083516110db816017850160208801611085565b7001034b99036b4b9b9b4b733903937b6329607d1b601791840191820152835161110c816028840160208801611085565b01602801949350505050565b6020815260008251806020840152611137816040850160208701611085565b601f01601f19169190910160400192915050565b634e487b7160e01b600052601160045260246000fd5b80820281158282048414176106c9576106c961114b565b808201808211156106c9576106c961114b565b634e487b7160e01b600052604160045260246000fd5b634e487b7160e01b600052603260045260246000fd5b6000816111c6576111c661114b565b50600019019056fedf8b4c520ffe197c5343c6f5aec59570151ef9a492f2c624fd45ddde6135ec42a2646970667358221220edfc271ba052d28d24144cff0d3f782581dbacf2db1a4a754f31e59b4fa798c364736f6c634300081c0033df8b4c520ffe197c5343c6f5aec59570151ef9a492f2c624fd45ddde6135ec42",
  "linkReferences": {},
  "deployedLinkReferences": {}
}