{
  "_format": "hh-sol-artifact-1",
  "contractName": "Forwarder",
  "sourceName": "contracts/lit-node/Forwarder.sol",
  "abi": [
    {
      "inputs": [],
      "stateMutability": "nonpayable",
      "type": "constructor"
    },
    {
      "inputs": [],
      "name": "InvalidShortString",
      "type": "error"
    },
    {
      "inputs": [],
      "name": "SignatureDoesNotMatch",
      "type": "error"
    },
    {
      "inputs": [
        {
          "internalType": "string",
          "name": "str",
          "type": "string"
        }
      ],
      "name": "StringTooLong",
      "type": "error"
    },
    {
      "inputs": [],
      "name": "TransactionRevertedSilently",
      "type": "error"
    },
    {
      "anonymous": false,
      "inputs": [],
      "name": "EIP712DomainChanged",
      "type": "event"
    },
    {
      "inputs": [],
      "name": "eip712Domain",
      "outputs": [
        {
          "internalType": "bytes1",
          "name": "fields",
          "type": "bytes1"
        },
        {
          "internalType": "string",
          "name": "name",
          "type": "string"
        },
        {
          "internalType": "string",
          "name": "version",
          "type": "string"
        },
        {
          "internalType": "uint256",
          "name": "chainId",
          "type": "uint256"
        },
        {
          "internalType": "address",
          "name": "verifyingContract",
          "type": "address"
        },
        {
          "internalType": "bytes32",
          "name": "salt",
          "type": "bytes32"
        },
        {
          "internalType": "uint256[]",
          "name": "extensions",
          "type": "uint256[]"
        }
      ],
      "stateMutability": "view",
      "type": "function"
    },
    {
      "inputs": [
        {
          "components": [
            {
              "internalType": "address",
              "name": "from",
              "type": "address"
            },
            {
              "internalType": "address",
              "name": "to",
              "type": "address"
            },
            {
              "internalType": "uint256",
              "name": "value",
              "type": "uint256"
            },
            {
              "internalType": "uint256",
              "name": "gas",
              "type": "uint256"
            },
            {
              "internalType": "uint256",
              "name": "nonce",
              "type": "uint256"
            },
            {
              "internalType": "bytes",
              "name": "data",
              "type": "bytes"
            }
          ],
          "internalType": "struct Forwarder.ForwardRequest",
          "name": "req",
          "type": "tuple"
        },
        {
          "internalType": "bytes",
          "name": "signature",
          "type": "bytes"
        }
      ],
      "name": "execute",
      "outputs": [
        {
          "internalType": "bool",
          "name": "",
          "type": "bool"
        },
        {
          "internalType": "bytes",
          "name": "",
          "type": "bytes"
        }
      ],
      "stateMutability": "payable",
      "type": "function"
    },
    {
      "inputs": [
        {
          "internalType": "address",
          "name": "from",
          "type": "address"
        }
      ],
      "name": "getNonce",
      "outputs": [
        {
          "internalType": "uint256",
          "name": "",
          "type": "uint256"
        }
      ],
      "stateMutability": "view",
      "type": "function"
    },
    {
      "inputs": [
        {
          "components": [
            {
              "internalType": "address",
              "name": "from",
              "type": "address"
            },
            {
              "internalType": "address",
              "name": "to",
              "type": "address"
            },
            {
              "internalType": "uint256",
              "name": "value",
              "type": "uint256"
            },
            {
              "internalType": "uint256",
              "name": "gas",
              "type": "uint256"
            },
            {
              "internalType": "uint256",
              "name": "nonce",
              "type": "uint256"
            },
            {
              "internalType": "bytes",
              "name": "data",
              "type": "bytes"
            }
          ],
          "internalType": "struct Forwarder.ForwardRequest",
          "name": "req",
          "type": "tuple"
        },
        {
          "internalType": "bytes",
          "name": "signature",
          "type": "bytes"
        }
      ],
      "name": "verify",
      "outputs": [
        {
          "internalType": "bool",
          "name": "",
          "type": "bool"
        }
      ],
      "stateMutability": "view",
      "type": "function"
    }
  ],
  "bytecode": "0x61016060405234801561001157600080fd5b50604080518082018252600f81526e23a9a73b19102337b93bb0b93232b960891b60208083019190915282518084019093526005835264302e302e3160d81b908301529061006082600061010a565b6101205261006f81600161010a565b61014052815160208084019190912060e052815190820120610100524660a0526100fc60e05161010051604080517f8b73c3c69bb8fe3d512ecc4cf759cc79239f7b179b0ffacaa9a75d522b39400f60208201529081019290925260608201524660808201523060a082015260009060c00160405160208183030381529060405280519060200120905090565b60805250503060c052610353565b60006020835110156101265761011f8361013d565b9050610137565b816101318482610223565b5060ff90505b92915050565b600080829050601f81511115610171578260405163305a27a960e01b815260040161016891906102e1565b60405180910390fd5b805161017c8261032f565b179392505050565b634e487b7160e01b600052604160045260246000fd5b600181811c908216806101ae57607f821691505b6020821081036101ce57634e487b7160e01b600052602260045260246000fd5b50919050565b601f82111561021e57806000526020600020601f840160051c810160208510156101fb5750805b601f840160051c820191505b8181101561021b5760008155600101610207565b50505b505050565b81516001600160401b0381111561023c5761023c610184565b6102508161024a845461019a565b846101d4565b6020601f821160018114610284576000831561026c5750848201515b600019600385901b1c1916600184901b17845561021b565b600084815260208120601f198516915b828110156102b45787850151825560209485019460019092019101610294565b50848210156102d25786840151600019600387901b60f8161c191681555b50505050600190811b01905550565b602081526000825180602084015260005b8181101561030f57602081860181015160408684010152016102f2565b506000604082850101526040601f19601f83011684010191505092915050565b805160208083015191908110156101ce5760001960209190910360031b1b16919050565b60805160a05160c05160e051610100516101205161014051610e3f6103ad60003960006103730152600061034901526000610759015260006107310152600061068c015260006106b6015260006106e00152610e3f6000f3fe60806040526004361061003f5760003560e01c80632d0335ab1461004457806347153f821461008d57806384b0196e146100ae578063bf5d3bdb146100d6575b600080fd5b34801561005057600080fd5b5061007a61005f366004610a1e565b6001600160a01b031660009081526002602052604090205490565b6040519081526020015b60405180910390f35b6100a061009b366004610a4e565b610106565b604051610084929190610b40565b3480156100ba57600080fd5b506100c361033b565b6040516100849796959493929190610b63565b3480156100e257600080fd5b506100f66100f1366004610a4e565b6103c3565b6040519015158152602001610084565b600060606101158585856103c3565b61013257604051632b84c44f60e11b815260040160405180910390fd5b6080850135600260006101486020890189610a1e565b6001600160a01b03166001600160a01b031681526020019081526020016000205411156101bc5760405162461bcd60e51b815260206004820181905260248201527f4e6f6e6365206973206e6f74207374726963746c7920696e6372656173696e6760448201526064015b60405180910390fd5b6101cb60808601356001610bfb565b600260006101dc6020890189610a1e565b6001600160a01b03166001600160a01b03168152602001908152602001600020819055506000808660200160208101906102169190610a1e565b6001600160a01b03166060880135604089013561023660a08b018b610c1c565b61024360208d018d610a1e565b60405160200161025593929190610c62565b60408051601f198184030181529082905261026f91610c83565b600060405180830381858888f193505050503d80600081146102ad576040519150601f19603f3d011682016040523d82523d6000602084013e6102b2565b606091505b509150915081610312576044815110156102df57604051630426c18960e01b815260040160405180910390fd5b600481019050808060200190518101906102f99190610cb5565b60405162461bcd60e51b81526004016101b39190610d5e565b610321603f6060890135610d71565b5a1161032f5761032f610d93565b90969095509350505050565b60006060808280808361036e7f000000000000000000000000000000000000000000000000000000000000000083610542565b6103997f00000000000000000000000000000000000000000000000000000000000000006001610542565b60408051600080825260208201909252600f60f81b9b939a50919850469750309650945092509050565b6000806104d684848080601f0160208091040260200160405190810160405280939291908181526020018383808284376000920191909152506104d092507fdd8f4b70b0f4393e889bd39128a30628a78b61816a9eb8199759e7a349657e489150610433905060208a018a610a1e565b61044360408b0160208c01610a1e565b60408b013560608c013560808d013561045f60a08f018f610c1c565b60405161046d929190610da9565b6040805191829003822060208301989098526001600160a01b0396871690820152949093166060850152608084019190915260a083015260c082015260e081019190915261010001604051602081830303815290604052805190602001206105ef565b9061061c565b90506080850135600260006104ee6020890189610a1e565b6001600160a01b03166001600160a01b031681526020019081526020016000205414801561053957506105246020860186610a1e565b6001600160a01b0316816001600160a01b0316145b95945050505050565b606060ff831461055c5761055583610640565b90506105e9565b81805461056890610db9565b80601f016020809104026020016040519081016040528092919081815260200182805461059490610db9565b80156105e15780601f106105b6576101008083540402835291602001916105e1565b820191906000526020600020905b8154815290600101906020018083116105c457829003601f168201915b505050505090505b92915050565b60006105e96105fc61067f565b8360405161190160f01b8152600281019290925260228201526042902090565b600080600061062b85856107af565b91509150610638816107f4565b509392505050565b6060600061064d8361093c565b604080516020808252818301909252919250600091906020820181803683375050509182525060208101929092525090565b6000306001600160a01b037f0000000000000000000000000000000000000000000000000000000000000000161480156106d857507f000000000000000000000000000000000000000000000000000000000000000046145b1561070257507f000000000000000000000000000000000000000000000000000000000000000090565b6107aa604080517f8b73c3c69bb8fe3d512ecc4cf759cc79239f7b179b0ffacaa9a75d522b39400f60208201527f0000000000000000000000000000000000000000000000000000000000000000918101919091527f000000000000000000000000000000000000000000000000000000000000000060608201524660808201523060a082015260009060c00160405160208183030381529060405280519060200120905090565b905090565b60008082516041036107e55760208301516040840151606085015160001a6107d987828585610964565b945094505050506107ed565b506000905060025b9250929050565b600081600481111561080857610808610df3565b036108105750565b600181600481111561082457610824610df3565b0361086c5760405162461bcd60e51b815260206004820152601860248201527745434453413a20696e76616c6964207369676e617475726560401b60448201526064016101b3565b600281600481111561088057610880610df3565b036108cd5760405162461bcd60e51b815260206004820152601f60248201527f45434453413a20696e76616c6964207369676e6174757265206c656e6774680060448201526064016101b3565b60038160048111156108e1576108e1610df3565b036109395760405162461bcd60e51b815260206004820152602260248201527f45434453413a20696e76616c6964207369676e6174757265202773272076616c604482015261756560f01b60648201526084016101b3565b50565b600060ff8216601f8111156105e957604051632cd44ac360e21b815260040160405180910390fd5b6000806fa2a8918ca85bafe22016d0b997e4df60600160ff1b038311156109915750600090506003610a15565b6040805160008082526020820180845289905260ff881692820192909252606081018690526080810185905260019060a0016020604051602081039080840390855afa1580156109e5573d6000803e3d6000fd5b5050604051601f1901519150506001600160a01b038116610a0e57600060019250925050610a15565b9150600090505b94509492505050565b600060208284031215610a3057600080fd5b81356001600160a01b0381168114610a4757600080fd5b9392505050565b600080600060408486031215610a6357600080fd5b83356001600160401b03811115610a7957600080fd5b840160c08187031215610a8b57600080fd5b925060208401356001600160401b03811115610aa657600080fd5b8401601f81018613610ab757600080fd5b80356001600160401b03811115610acd57600080fd5b866020828401011115610adf57600080fd5b939660209190910195509293505050565b60005b83811015610b0b578181015183820152602001610af3565b50506000910152565b60008151808452610b2c816020860160208601610af0565b601f01601f19169290920160200192915050565b8215158152604060208201526000610b5b6040830184610b14565b949350505050565b60ff60f81b8816815260e060208201526000610b8260e0830189610b14565b8281036040840152610b948189610b14565b606084018890526001600160a01b038716608085015260a0840186905283810360c08501528451808252602080870193509091019060005b81811015610bea578351835260209384019390920191600101610bcc565b50909b9a5050505050505050505050565b808201808211156105e957634e487b7160e01b600052601160045260246000fd5b6000808335601e19843603018112610c3357600080fd5b8301803591506001600160401b03821115610c4d57600080fd5b6020019150368190038213156107ed57600080fd5b8284823760609190911b6001600160601b0319169101908152601401919050565b60008251610c95818460208701610af0565b9190910192915050565b634e487b7160e01b600052604160045260246000fd5b600060208284031215610cc757600080fd5b81516001600160401b03811115610cdd57600080fd5b8201601f81018413610cee57600080fd5b80516001600160401b03811115610d0757610d07610c9f565b604051601f8201601f19908116603f011681016001600160401b0381118282101715610d3557610d35610c9f565b604052818152828201602001861015610d4d57600080fd5b610539826020830160208601610af0565b602081526000610a476020830184610b14565b600082610d8e57634e487b7160e01b600052601260045260246000fd5b500490565b634e487b7160e01b600052600160045260246000fd5b8183823760009101908152919050565b600181811c90821680610dcd57607f821691505b602082108103610ded57634e487b7160e01b600052602260045260246000fd5b50919050565b634e487b7160e01b600052602160045260246000fdfea2646970667358221220a2fd44293e310beef480e29a6996d969eb4e7c232e943a8d7b1e04bca8d9615564736f6c634300081c0033",
  "linkReferences": {},
  "deployedLinkReferences": {}
}