{
  "_format": "hh-sol-artifact-1",
  "contractName": "Multisender",
  "sourceName": "contracts/lit-node/Multisender.sol",
  "abi": [
    {
      "anonymous": false,
      "inputs": [
        {
          "indexed": true,
          "internalType": "address",
          "name": "previousOwner",
          "type": "address"
        },
        {
          "indexed": true,
          "internalType": "address",
          "name": "newOwner",
          "type": "address"
        }
      ],
      "name": "OwnershipTransferred",
      "type": "event"
    },
    {
      "inputs": [],
      "name": "owner",
      "outputs": [
        {
          "internalType": "address",
          "name": "",
          "type": "address"
        }
      ],
      "stateMutability": "view",
      "type": "function"
    },
    {
      "inputs": [],
      "name": "renounceOwnership",
      "outputs": [],
      "stateMutability": "nonpayable",
      "type": "function"
    },
    {
      "inputs": [
        {
          "internalType": "address[]",
          "name": "_recipients",
          "type": "address[]"
        }
      ],
      "name": "sendEth",
      "outputs": [],
      "stateMutability": "payable",
      "type": "function"
    },
    {
      "inputs": [
        {
          "internalType": "address[]",
          "name": "_recipients",
          "type": "address[]"
        },
        {
          "internalType": "address",
          "name": "tokenContract",
          "type": "address"
        }
      ],
      "name": "sendTokens",
      "outputs": [],
      "stateMutability": "nonpayable",
      "type": "function"
    },
    {
      "inputs": [
        {
          "internalType": "address[]",
          "name": "_recipients",
          "type": "address[]"
        },
        {
          "internalType": "address",
          "name": "tokenContract",
          "type": "address"
        },
        {
          "internalType": "uint256",
          "name": "amountPerRecipient",
          "type": "uint256"
        }
      ],
      "name": "sendTokensExact",
      "outputs": [],
      "stateMutability": "nonpayable",
      "type": "function"
    },
    {
      "inputs": [
        {
          "internalType": "address",
          "name": "newOwner",
          "type": "address"
        }
      ],
      "name": "transferOwnership",
      "outputs": [],
      "stateMutability": "nonpayable",
      "type": "function"
    },
    {
      "inputs": [],
      "name": "withdraw",
      "outputs": [],
      "stateMutability": "nonpayable",
      "type": "function"
    },
    {
      "inputs": [
        {
          "internalType": "address",
          "name": "tokenContract",
          "type": "address"
        }
      ],
      "name": "withdrawTokens",
      "outputs": [],
      "stateMutability": "nonpayable",
      "type": "function"
    }
  ],
  "bytecode": "0x6080604052348015600f57600080fd5b50601733601b565b606b565b600080546001600160a01b038381166001600160a01b0319831681178455604051919092169283917f8be0079c531659141344cd1fd0a4f28419497f9722a3daafe3b4186f6b6457e09190a35050565b6109808061007a6000396000f3fe60806040526004361061006b5760003560e01c80633b2fe781146100705780633ccfd60b1461008557806349df728c1461009a5780636ecf1386146100ba578063715018a6146100da5780638da5cb5b146100ef578063bebfef031461011a578063f2fde38b1461013a575b600080fd5b61008361007e366004610752565b61015a565b005b34801561009157600080fd5b506100836101e1565b3480156100a657600080fd5b506100836100b53660046107af565b610218565b3480156100c657600080fd5b506100836100d53660046107d1565b610306565b3480156100e657600080fd5b50610083610447565b3480156100fb57600080fd5b5061010461045b565b6040516101119190610824565b60405180910390f35b34801561012657600080fd5b50610083610135366004610838565b61046a565b34801561014657600080fd5b506100836101553660046107af565b6105e2565b60006101668234610893565b905060005b828110156101db57838382818110610185576101856108b5565b905060200201602081019061019a91906107af565b6001600160a01b03166108fc839081150290604051600060405180830381858888f193505050501580156101d2573d6000803e3d6000fd5b5060010161016b565b50505050565b6101e9610658565b60405133904780156108fc02916000818181858888f19350505050158015610215573d6000803e3d6000fd5b50565b610220610658565b6040516370a0823160e01b815281906000906001600160a01b038316906370a0823190610251903090600401610824565b602060405180830381865afa15801561026e573d6000803e3d6000fd5b505050506040513d601f19601f8201168201806040525081019061029291906108cb565b60405163a9059cbb60e01b81529091506001600160a01b0383169063a9059cbb906102c390339085906004016108e4565b6020604051808303816000875af11580156102e2573d6000803e3d6000fd5b505050506040513d601f19601f820116820180604052508101906101db91906108fd565b6040516370a0823160e01b815281906000906001600160a01b038316906370a0823190610337903090600401610824565b602060405180830381865afa158015610354573d6000803e3d6000fd5b505050506040513d601f19601f8201168201806040525081019061037891906108cb565b9050600061038785600a61091f565b6103919083610893565b905060005b8581101561043e57836001600160a01b031663a9059cbb8888848181106103bf576103bf6108b5565b90506020020160208101906103d491906107af565b846040518363ffffffff1660e01b81526004016103f29291906108e4565b6020604051808303816000875af1158015610411573d6000803e3d6000fd5b505050506040513d601f19601f8201168201806040525081019061043591906108fd565b50600101610396565b50505050505050565b61044f610658565b61045960006106b7565b565b6000546001600160a01b031690565b816000610477858461091f565b905080826001600160a01b03166370a08231306040518263ffffffff1660e01b81526004016104a69190610824565b602060405180830381865afa1580156104c3573d6000803e3d6000fd5b505050506040513d601f19601f820116820180604052508101906104e791906108cb565b10156105375760405162461bcd60e51b815260206004820152601a602482015279496e73756666696369656e7420746f6b656e2062616c616e636560301b60448201526064015b60405180910390fd5b60005b8581101561043e57826001600160a01b031663a9059cbb888884818110610563576105636108b5565b905060200201602081019061057891906107af565b866040518363ffffffff1660e01b81526004016105969291906108e4565b6020604051808303816000875af11580156105b5573d6000803e3d6000fd5b505050506040513d601f19601f820116820180604052508101906105d991906108fd565b5060010161053a565b6105ea610658565b6001600160a01b03811661064f5760405162461bcd60e51b815260206004820152602660248201527f4f776e61626c653a206e6577206f776e657220697320746865207a65726f206160448201526564647265737360d01b606482015260840161052e565b610215816106b7565b3361066161045b565b6001600160a01b0316146104595760405162461bcd60e51b815260206004820181905260248201527f4f776e61626c653a2063616c6c6572206973206e6f7420746865206f776e6572604482015260640161052e565b600080546001600160a01b038381166001600160a01b0319831681178455604051919092169283917f8be0079c531659141344cd1fd0a4f28419497f9722a3daafe3b4186f6b6457e09190a35050565b60008083601f84011261071957600080fd5b5081356001600160401b0381111561073057600080fd5b6020830191508360208260051b850101111561074b57600080fd5b9250929050565b6000806020838503121561076557600080fd5b82356001600160401b0381111561077b57600080fd5b61078785828601610707565b90969095509350505050565b80356001600160a01b03811681146107aa57600080fd5b919050565b6000602082840312156107c157600080fd5b6107ca82610793565b9392505050565b6000806000604084860312156107e657600080fd5b83356001600160401b038111156107fc57600080fd5b61080886828701610707565b909450925061081b905060208501610793565b90509250925092565b6001600160a01b0391909116815260200190565b6000806000806060858703121561084e57600080fd5b84356001600160401b0381111561086457600080fd5b61087087828801610707565b9095509350610883905060208601610793565b9396929550929360400135925050565b6000826108b057634e487b7160e01b600052601260045260246000fd5b500490565b634e487b7160e01b600052603260045260246000fd5b6000602082840312156108dd57600080fd5b5051919050565b6001600160a01b03929092168252602082015260400190565b60006020828403121561090f57600080fd5b815180151581146107ca57600080fd5b808202811582820484141761094457634e487b7160e01b600052601160045260246000fd5b9291505056fea2646970667358221220910e81c5e15c138d7b759837e0afbf3d71ad4f303828d7ab6463d401cde185da64736f6c634300081c0033",
  "linkReferences": {},
  "deployedLinkReferences": {}
}