{
  "_format": "hh-sol-artifact-1",
  "contractName": "PKPHelper",
  "sourceName": "contracts/lit-node/PKPHelper.sol",
  "abi": [
    {
      "inputs": [
        {
          "internalType": "address",
          "name": "_resolver",
          "type": "address"
        },
        {
          "internalType": "enum ContractResolver.Env",
          "name": "_env",
          "type": "uint8"
        }
      ],
      "stateMutability": "nonpayable",
      "type": "constructor"
    },
    {
      "anonymous": false,
      "inputs": [
        {
          "indexed": false,
          "internalType": "address",
          "name": "newResolverAddress",
          "type": "address"
        }
      ],
      "name": "ContractResolverAddressSet",
      "type": "event"
    },
    {
      "anonymous": false,
      "inputs": [
        {
          "indexed": true,
          "internalType": "address",
          "name": "previousOwner",
          "type": "address"
        },
        {
          "indexed": true,
          "internalType": "address",
          "name": "newOwner",
          "type": "address"
        }
      ],
      "name": "OwnershipTransferred",
      "type": "event"
    },
    {
      "anonymous": false,
      "inputs": [
        {
          "indexed": true,
          "internalType": "bytes32",
          "name": "role",
          "type": "bytes32"
        },
        {
          "indexed": true,
          "internalType": "bytes32",
          "name": "previousAdminRole",
          "type": "bytes32"
        },
        {
          "indexed": true,
          "internalType": "bytes32",
          "name": "newAdminRole",
          "type": "bytes32"
        }
      ],
      "name": "RoleAdminChanged",
      "type": "event"
    },
    {
      "anonymous": false,
      "inputs": [
        {
          "indexed": true,
          "internalType": "bytes32",
          "name": "role",
          "type": "bytes32"
        },
        {
          "indexed": true,
          "internalType": "address",
          "name": "account",
          "type": "address"
        },
        {
          "indexed": true,
          "internalType": "address",
          "name": "sender",
          "type": "address"
        }
      ],
      "name": "RoleGranted",
      "type": "event"
    },
    {
      "anonymous": false,
      "inputs": [
        {
          "indexed": true,
          "internalType": "bytes32",
          "name": "role",
          "type": "bytes32"
        },
        {
          "indexed": true,
          "internalType": "address",
          "name": "account",
          "type": "address"
        },
        {
          "indexed": true,
          "internalType": "address",
          "name": "sender",
          "type": "address"
        }
      ],
      "name": "RoleRevoked",
      "type": "event"
    },
    {
      "inputs": [],
      "name": "DEFAULT_ADMIN_ROLE",
      "outputs": [
        {
          "internalType": "bytes32",
          "name": "",
          "type": "bytes32"
        }
      ],
      "stateMutability": "view",
      "type": "function"
    },
    {
      "inputs": [
        {
          "components": [
            {
              "internalType": "uint256",
              "name": "keyType",
              "type": "uint256"
            },
            {
              "internalType": "bytes32",
              "name": "derivedKeyId",
              "type": "bytes32"
            },
            {
              "components": [
                {
                  "internalType": "bytes32",
                  "name": "r",
                  "type": "bytes32"
                },
                {
                  "internalType": "bytes32",
                  "name": "s",
                  "type": "bytes32"
                },
                {
                  "internalType": "uint8",
                  "name": "v",
                  "type": "uint8"
                }
              ],
              "internalType": "struct IPubkeyRouter.Signature[]",
              "name": "signatures",
              "type": "tuple[]"
            }
          ],
          "internalType": "struct LibPKPNFTStorage.ClaimMaterial",
          "name": "claimMaterial",
          "type": "tuple"
        },
        {
          "components": [
            {
              "internalType": "uint256",
              "name": "keyType",
              "type": "uint256"
            },
            {
              "internalType": "bytes[]",
              "name": "permittedIpfsCIDs",
              "type": "bytes[]"
            },
            {
              "internalType": "uint256[][]",
              "name": "permittedIpfsCIDScopes",
              "type": "uint256[][]"
            },
            {
              "internalType": "address[]",
              "name": "permittedAddresses",
              "type": "address[]"
            },
            {
              "internalType": "uint256[][]",
              "name": "permittedAddressScopes",
              "type": "uint256[][]"
            },
            {
              "internalType": "uint256[]",
              "name": "permittedAuthMethodTypes",
              "type": "uint256[]"
            },
            {
              "internalType": "bytes[]",
              "name": "permittedAuthMethodIds",
              "type": "bytes[]"
            },
            {
              "internalType": "bytes[]",
              "name": "permittedAuthMethodPubkeys",
              "type": "bytes[]"
            },
            {
              "internalType": "uint256[][]",
              "name": "permittedAuthMethodScopes",
              "type": "uint256[][]"
            },
            {
              "internalType": "bool",
              "name": "addPkpEthAddressAsPermittedAddress",
              "type": "bool"
            },
            {
              "internalType": "bool",
              "name": "sendPkpToItself",
              "type": "bool"
            }
          ],
          "internalType": "struct PKPHelper.AuthMethodData",
          "name": "authMethodData",
          "type": "tuple"
        }
      ],
      "name": "claimAndMintNextAndAddAuthMethods",
      "outputs": [
        {
          "internalType": "uint256",
          "name": "",
          "type": "uint256"
        }
      ],
      "stateMutability": "payable",
      "type": "function"
    },
    {
      "inputs": [
        {
          "components": [
            {
              "internalType": "uint256",
              "name": "keyType",
              "type": "uint256"
            },
            {
              "internalType": "bytes32",
              "name": "derivedKeyId",
              "type": "bytes32"
            },
            {
              "components": [
                {
                  "internalType": "bytes32",
                  "name": "r",
                  "type": "bytes32"
                },
                {
                  "internalType": "bytes32",
                  "name": "s",
                  "type": "bytes32"
                },
                {
                  "internalType": "uint8",
                  "name": "v",
                  "type": "uint8"
                }
              ],
              "internalType": "struct IPubkeyRouter.Signature[]",
              "name": "signatures",
              "type": "tuple[]"
            }
          ],
          "internalType": "struct LibPKPNFTStorage.ClaimMaterial",
          "name": "claimMaterial",
          "type": "tuple"
        },
        {
          "components": [
            {
              "internalType": "uint256",
              "name": "keyType",
              "type": "uint256"
            },
            {
              "internalType": "bytes[]",
              "name": "permittedIpfsCIDs",
              "type": "bytes[]"
            },
            {
              "internalType": "uint256[][]",
              "name": "permittedIpfsCIDScopes",
              "type": "uint256[][]"
            },
            {
              "internalType": "address[]",
              "name": "permittedAddresses",
              "type": "address[]"
            },
            {
              "internalType": "uint256[][]",
              "name": "permittedAddressScopes",
              "type": "uint256[][]"
            },
            {
              "internalType": "uint256[]",
              "name": "permittedAuthMethodTypes",
              "type": "uint256[]"
            },
            {
              "internalType": "bytes[]",
              "name": "permittedAuthMethodIds",
              "type": "bytes[]"
            },
            {
              "internalType": "bytes[]",
              "name": "permittedAuthMethodPubkeys",
              "type": "bytes[]"
            },
            {
              "internalType": "uint256[][]",
              "name": "permittedAuthMethodScopes",
              "type": "uint256[][]"
            },
            {
              "internalType": "bool",
              "name": "addPkpEthAddressAsPermittedAddress",
              "type": "bool"
            },
            {
              "internalType": "bool",
              "name": "sendPkpToItself",
              "type": "bool"
            }
          ],
          "internalType": "struct PKPHelper.AuthMethodData",
          "name": "authMethodData",
          "type": "tuple"
        }
      ],
      "name": "claimAndMintNextAndAddAuthMethodsWithTypes",
      "outputs": [
        {
          "internalType": "uint256",
          "name": "",
          "type": "uint256"
        }
      ],
      "stateMutability": "payable",
      "type": "function"
    },
    {
      "inputs": [
        {
          "components": [
            {
              "internalType": "uint256",
              "name": "keyType",
              "type": "uint256"
            },
            {
              "internalType": "string",
              "name": "keySetId",
              "type": "string"
            },
            {
              "internalType": "bytes32",
              "name": "derivedKeyId",
              "type": "bytes32"
            },
            {
              "components": [
                {
                  "internalType": "bytes32",
                  "name": "r",
                  "type": "bytes32"
                },
                {
                  "internalType": "bytes32",
                  "name": "s",
                  "type": "bytes32"
                },
                {
                  "internalType": "uint8",
                  "name": "v",
                  "type": "uint8"
                }
              ],
              "internalType": "struct IPubkeyRouter.Signature[]",
              "name": "signatures",
              "type": "tuple[]"
            },
            {
              "internalType": "address",
              "name": "stakingContractAddress",
              "type": "address"
            }
          ],
          "internalType": "struct LibPKPNFTStorage.ClaimMaterialV2",
          "name": "claimMaterial",
          "type": "tuple"
        },
        {
          "components": [
            {
              "internalType": "uint256",
              "name": "keyType",
              "type": "uint256"
            },
            {
              "internalType": "bytes[]",
              "name": "permittedIpfsCIDs",
              "type": "bytes[]"
            },
            {
              "internalType": "uint256[][]",
              "name": "permittedIpfsCIDScopes",
              "type": "uint256[][]"
            },
            {
              "internalType": "address[]",
              "name": "permittedAddresses",
              "type": "address[]"
            },
            {
              "internalType": "uint256[][]",
              "name": "permittedAddressScopes",
              "type": "uint256[][]"
            },
            {
              "internalType": "uint256[]",
              "name": "permittedAuthMethodTypes",
              "type": "uint256[]"
            },
            {
              "internalType": "bytes[]",
              "name": "permittedAuthMethodIds",
              "type": "bytes[]"
            },
            {
              "internalType": "bytes[]",
              "name": "permittedAuthMethodPubkeys",
              "type": "bytes[]"
            },
            {
              "internalType": "uint256[][]",
              "name": "permittedAuthMethodScopes",
              "type": "uint256[][]"
            },
            {
              "internalType": "bool",
              "name": "addPkpEthAddressAsPermittedAddress",
              "type": "bool"
            },
            {
              "internalType": "bool",
              "name": "sendPkpToItself",
              "type": "bool"
            }
          ],
          "internalType": "struct PKPHelper.AuthMethodData",
          "name": "authMethodData",
          "type": "tuple"
        }
      ],
      "name": "claimAndMintNextAndAddAuthMethodsWithTypesV2",
      "outputs": [
        {
          "internalType": "uint256",
          "name": "",
          "type": "uint256"
        }
      ],
      "stateMutability": "payable",
      "type": "function"
    },
    {
      "inputs": [],
      "name": "contractResolver",
      "outputs": [
        {
          "internalType": "contract ContractResolver",
          "name": "",
          "type": "address"
        }
      ],
      "stateMutability": "view",
      "type": "function"
    },
    {
      "inputs": [],
      "name": "env",
      "outputs": [
        {
          "internalType": "enum ContractResolver.Env",
          "name": "",
          "type": "uint8"
        }
      ],
      "stateMutability": "view",
      "type": "function"
    },
    {
      "inputs": [],
      "name": "getDomainWalletRegistry",
      "outputs": [
        {
          "internalType": "address",
          "name": "",
          "type": "address"
        }
      ],
      "stateMutability": "view",
      "type": "function"
    },
    {
      "inputs": [],
      "name": "getPKPNftMetdataAddress",
      "outputs": [
        {
          "internalType": "address",
          "name": "",
          "type": "address"
        }
      ],
      "stateMutability": "view",
      "type": "function"
    },
    {
      "inputs": [],
      "name": "getPkpNftAddress",
      "outputs": [
        {
          "internalType": "address",
          "name": "",
          "type": "address"
        }
      ],
      "stateMutability": "view",
      "type": "function"
    },
    {
      "inputs": [],
      "name": "getPkpPermissionsAddress",
      "outputs": [
        {
          "internalType": "address",
          "name": "",
          "type": "address"
        }
      ],
      "stateMutability": "view",
      "type": "function"
    },
    {
      "inputs": [
        {
          "internalType": "bytes32",
          "name": "role",
          "type": "bytes32"
        }
      ],
      "name": "getRoleAdmin",
      "outputs": [
        {
          "internalType": "bytes32",
          "name": "",
          "type": "bytes32"
        }
      ],
      "stateMutability": "view",
      "type": "function"
    },
    {
      "inputs": [],
      "name": "getStakingAddress",
      "outputs": [
        {
          "internalType": "address",
          "name": "",
          "type": "address"
        }
      ],
      "stateMutability": "view",
      "type": "function"
    },
    {
      "inputs": [
        {
          "internalType": "bytes32",
          "name": "role",
          "type": "bytes32"
        },
        {
          "internalType": "address",
          "name": "account",
          "type": "address"
        }
      ],
      "name": "grantRole",
      "outputs": [],
      "stateMutability": "nonpayable",
      "type": "function"
    },
    {
      "inputs": [
        {
          "internalType": "bytes32",
          "name": "role",
          "type": "bytes32"
        },
        {
          "internalType": "address",
          "name": "account",
          "type": "address"
        }
      ],
      "name": "hasRole",
      "outputs": [
        {
          "internalType": "bool",
          "name": "",
          "type": "bool"
        }
      ],
      "stateMutability": "view",
      "type": "function"
    },
    {
      "inputs": [
        {
          "internalType": "uint256",
          "name": "keyType",
          "type": "uint256"
        },
        {
          "internalType": "string",
          "name": "keySetId",
          "type": "string"
        },
        {
          "internalType": "uint256[]",
          "name": "permittedAuthMethodTypes",
          "type": "uint256[]"
        },
        {
          "internalType": "bytes[]",
          "name": "permittedAuthMethodIds",
          "type": "bytes[]"
        },
        {
          "internalType": "bytes[]",
          "name": "permittedAuthMethodPubkeys",
          "type": "bytes[]"
        },
        {
          "internalType": "uint256[][]",
          "name": "permittedAuthMethodScopes",
          "type": "uint256[][]"
        },
        {
          "internalType": "bool",
          "name": "addPkpEthAddressAsPermittedAddress",
          "type": "bool"
        },
        {
          "internalType": "bool",
          "name": "sendPkpToItself",
          "type": "bool"
        }
      ],
      "name": "mintNextAndAddAuthMethods",
      "outputs": [
        {
          "internalType": "uint256",
          "name": "",
          "type": "uint256"
        }
      ],
      "stateMutability": "payable",
      "type": "function"
    },
    {
      "inputs": [
        {
          "components": [
            {
              "internalType": "uint256",
              "name": "keyType",
              "type": "uint256"
            },
            {
              "internalType": "string",
              "name": "keySetId",
              "type": "string"
            },
            {
              "internalType": "bytes[]",
              "name": "permittedIpfsCIDs",
              "type": "bytes[]"
            },
            {
              "internalType": "uint256[][]",
              "name": "permittedIpfsCIDScopes",
              "type": "uint256[][]"
            },
            {
              "internalType": "address[]",
              "name": "permittedAddresses",
              "type": "address[]"
            },
            {
              "internalType": "uint256[][]",
              "name": "permittedAddressesScopes",
              "type": "uint256[][]"
            },
            {
              "internalType": "uint256[]",
              "name": "permittedAuthMethodTypes",
              "type": "uint256[]"
            },
            {
              "internalType": "bytes[]",
              "name": "permittedAuthMethodIds",
              "type": "bytes[]"
            },
            {
              "internalType": "bytes[]",
              "name": "permittedAuthMethodPubkeys",
              "type": "bytes[]"
            },
            {
              "internalType": "uint256[][]",
              "name": "permittedAuthMethodScopes",
              "type": "uint256[][]"
            },
            {
              "internalType": "bool",
              "name": "addPkpEthAddressAsPermittedAddress",
              "type": "bool"
            },
            {
              "internalType": "bool",
              "name": "sendPkpToItself",
              "type": "bool"
            }
          ],
          "internalType": "struct PKPHelper.MintNextAndAddAuthMethodsWithTypesParams",
          "name": "params",
          "type": "tuple"
        }
      ],
      "name": "mintNextAndAddAuthMethodsWithTypes",
      "outputs": [
        {
          "internalType": "uint256",
          "name": "",
          "type": "uint256"
        }
      ],
      "stateMutability": "payable",
      "type": "function"
    },
    {
      "inputs": [
        {
          "internalType": "uint256",
          "name": "keyType",
          "type": "uint256"
        },
        {
          "internalType": "string",
          "name": "keySetId",
          "type": "string"
        },
        {
          "internalType": "uint256[]",
          "name": "permittedAuthMethodTypes",
          "type": "uint256[]"
        },
        {
          "internalType": "bytes[]",
          "name": "permittedAuthMethodIds",
          "type": "bytes[]"
        },
        {
          "internalType": "bytes[]",
          "name": "permittedAuthMethodPubkeys",
          "type": "bytes[]"
        },
        {
          "internalType": "uint256[][]",
          "name": "permittedAuthMethodScopes",
          "type": "uint256[][]"
        },
        {
          "internalType": "string[]",
          "name": "nftMetadata",
          "type": "string[]"
        },
        {
          "internalType": "bool",
          "name": "addPkpEthAddressAsPermittedAddress",
          "type": "bool"
        },
        {
          "internalType": "bool",
          "name": "sendPkpToItself",
          "type": "bool"
        }
      ],
      "name": "mintNextAndAddDomainWalletMetadata",
      "outputs": [
        {
          "internalType": "uint256",
          "name": "",
          "type": "uint256"
        }
      ],
      "stateMutability": "payable",
      "type": "function"
    },
    {
      "inputs": [
        {
          "internalType": "address",
          "name": "",
          "type": "address"
        },
        {
          "internalType": "address",
          "name": "",
          "type": "address"
        },
        {
          "internalType": "uint256",
          "name": "",
          "type": "uint256"
        },
        {
          "internalType": "bytes",
          "name": "",
          "type": "bytes"
        }
      ],
      "name": "onERC721Received",
      "outputs": [
        {
          "internalType": "bytes4",
          "name": "",
          "type": "bytes4"
        }
      ],
      "stateMutability": "view",
      "type": "function"
    },
    {
      "inputs": [],
      "name": "owner",
      "outputs": [
        {
          "internalType": "address",
          "name": "",
          "type": "address"
        }
      ],
      "stateMutability": "view",
      "type": "function"
    },
    {
      "inputs": [
        {
          "internalType": "uint256",
          "name": "tokenId",
          "type": "uint256"
        }
      ],
      "name": "removePkpMetadata",
      "outputs": [],
      "stateMutability": "nonpayable",
      "type": "function"
    },
    {
      "inputs": [],
      "name": "renounceOwnership",
      "outputs": [],
      "stateMutability": "nonpayable",
      "type": "function"
    },
    {
      "inputs": [
        {
          "internalType": "bytes32",
          "name": "role",
          "type": "bytes32"
        },
        {
          "internalType": "address",
          "name": "account",
          "type": "address"
        }
      ],
      "name": "renounceRole",
      "outputs": [],
      "stateMutability": "nonpayable",
      "type": "function"
    },
    {
      "inputs": [
        {
          "internalType": "bytes32",
          "name": "role",
          "type": "bytes32"
        },
        {
          "internalType": "address",
          "name": "account",
          "type": "address"
        }
      ],
      "name": "revokeRole",
      "outputs": [],
      "stateMutability": "nonpayable",
      "type": "function"
    },
    {
      "inputs": [
        {
          "internalType": "address",
          "name": "newResolverAddress",
          "type": "address"
        }
      ],
      "name": "setContractResolver",
      "outputs": [],
      "stateMutability": "nonpayable",
      "type": "function"
    },
    {
      "inputs": [
        {
          "internalType": "uint256",
          "name": "tokenId",
          "type": "uint256"
        },
        {
          "internalType": "string[]",
          "name": "nftMetadata",
          "type": "string[]"
        }
      ],
      "name": "setPkpMetadata",
      "outputs": [],
      "stateMutability": "nonpayable",
      "type": "function"
    },
    {
      "inputs": [
        {
          "internalType": "bytes4",
          "name": "interfaceId",
          "type": "bytes4"
        }
      ],
      "name": "supportsInterface",
      "outputs": [
        {
          "internalType": "bool",
          "name": "",
          "type": "bool"
        }
      ],
      "stateMutability": "view",
      "type": "function"
    },
    {
      "inputs": [
        {
          "internalType": "address",
          "name": "newOwner",
          "type": "address"
        }
      ],
      "name": "transferOwnership",
      "outputs": [],
      "stateMutability": "nonpayable",
      "type": "function"
    }
  ],
  "bytecode": "0x608060405234801561001057600080fd5b50604051613a66380380613a6683398101604081905261002f916100d5565b61003833610085565b600280546001600160a01b0384166001600160a01b03198216811783558392916001600160a81b03191617600160a01b83838111156100795761007961011f565b02179055505050610135565b600080546001600160a01b038381166001600160a01b0319831681178455604051919092169283917f8be0079c531659141344cd1fd0a4f28419497f9722a3daafe3b4186f6b6457e09190a35050565b600080604083850312156100e857600080fd5b82516001600160a01b03811681146100ff57600080fd5b60208401519092506003811061011457600080fd5b809150509250929050565b634e487b7160e01b600052602160045260246000fd5b613922806101446000396000f3fe60806040526004361061013c5760003560e01c806301ffc9a7146101415780630e9ed68b1461017657806313af411b14610198578063150b7a02146101b9578063202f724f146101f2578063248a9ca3146102055780632b553551146102255780632f2ff15d146102475780633276558c1461026757806336568abe1461027c5780635043026c1461029c57806350d17b5e146102b1578063715018a6146102d157806373cc4111146102e6578063778fe572146102fb578063782e2ea51461030e5780638da5cb5b1461032e57806391d148541461034357806391ee4fd5146103635780639dca003214610376578063a217fddf146103a4578063caead0c7146103b9578063d547741f146103ce578063db0bf933146103ee578063e4f11df614610401578063f2fde38b14610414578063f95d71b114610434575b600080fd5b34801561014d57600080fd5b5061016161015c366004612588565b610454565b60405190151581526020015b60405180910390f35b34801561018257600080fd5b5061018b61048b565b60405161016d91906125b2565b6101ab6101a6366004612b74565b610576565b60405190815260200161016d565b3480156101c557600080fd5b506101d96101d4366004612c22565b6105f3565b6040516001600160e01b0319909116815260200161016d565b6101ab610200366004612b74565b610697565b34801561021157600080fd5b506101ab610220366004612cc1565b6106aa565b34801561023157600080fd5b50610245610240366004612cc1565b6106c0565b005b34801561025357600080fd5b50610245610262366004612cda565b61089b565b34801561027357600080fd5b5061018b6108bc565b34801561028857600080fd5b50610245610297366004612cda565b61090e565b3480156102a857600080fd5b5061018b61098c565b3480156102bd57600080fd5b5060025461018b906001600160a01b031681565b3480156102dd57600080fd5b506102456109de565b3480156102f257600080fd5b5061018b6109f2565b6101ab610309366004612d2a565b610a44565b34801561031a57600080fd5b50610245610329366004612fa8565b611056565b34801561033a57600080fd5b5061018b611279565b34801561034f57600080fd5b5061016161035e366004612cda565b611288565b6101ab610371366004612fe4565b6112b3565b34801561038257600080fd5b5060025461039790600160a01b900460ff1681565b60405161016d91906130e0565b3480156103b057600080fd5b506101ab600081565b3480156103c557600080fd5b5061018b611955565b3480156103da57600080fd5b506102456103e9366004612cda565b6119a7565b6101ab6103fc3660046130ee565b6119c3565b6101ab61040f36600461322b565b611fcd565b34801561042057600080fd5b5061024561042f36600461333d565b612120565b34801561044057600080fd5b5061024561044f36600461333d565b612199565b60006001600160e01b03198216637965db0b60e01b148061048557506301ffc9a760e01b6001600160e01b03198316145b92915050565b6002546040805163da19ddfb60e01b815290516000926001600160a01b031691638e8dfd1691839163da19ddfb9160048083019260209291908290030181865afa1580156104dd573d6000803e3d6000fd5b505050506040513d601f19601f82011682018060405250810190610501919061335a565b60025460405160e084901b6001600160e01b03191681526105309291600160a01b900460ff1690600401613373565b602060405180830381865afa15801561054d573d6000803e3d6000fd5b505050506040513d601f19601f820116820180604052508101906105719190613387565b905090565b6000806040518060a00160405280856000015181526020016040518060400160405280600c81526020016b6e6167612d6b65797365743160a01b815250815260200185602001518152602001856040015181526020016105d461048b565b6001600160a01b0316905290506105eb81846112b3565b949350505050565b60006105fd611955565b6001600160a01b0316336001600160a01b0316146106855760405162461bcd60e51b815260206004820152603a60248201527f504b5048656c7065723a206f6e6c792061636365707473207472616e736665726044820152791cc8199c9bdb481d1a19481412d41391950818dbdb9d1c9858dd60321b60648201526084015b60405180910390fd5b50630a85bd0160e11b95945050505050565b60006106a38383610576565b9392505050565b6000908152600160208190526040909120015490565b6002546040805163210b739d60e11b815290516001600160a01b0390921691638e8dfd16918391634216e73a916004808201926020929091908290030181865afa158015610712573d6000803e3d6000fd5b505050506040513d601f19601f82011682018060405250810190610736919061335a565b60025460405160e084901b6001600160e01b03191681526107659291600160a01b900460ff1690600401613373565b602060405180830381865afa158015610782573d6000803e3d6000fd5b505050506040513d601f19601f820116820180604052508101906107a69190613387565b6001600160a01b0316336001600160a01b0316146107d65760405162461bcd60e51b815260040161067c906133a4565b60006107e061098c565b60405163b63a767760e01b8152600481018490529091506001600160a01b0382169063b63a767790602401600060405180830381600087803b15801561082557600080fd5b505af1158015610839573d6000803e3d6000fd5b50506040516328cd10c760e11b8152600481018590526001600160a01b038416925063519a218e9150602401600060405180830381600087803b15801561087f57600080fd5b505af1158015610893573d6000803e3d6000fd5b505050505050565b6108a4826106aa565b6108ad816121f7565b6108b78383612201565b505050565b6002546040805163120e5f0760e31b815290516000926001600160a01b031691638e8dfd16918391639072f8389160048083019260209291908290030181865afa1580156104dd573d6000803e3d6000fd5b6001600160a01b038116331461097e5760405162461bcd60e51b815260206004820152602f60248201527f416363657373436f6e74726f6c3a2063616e206f6e6c792072656e6f756e636560448201526e103937b632b9903337b91039b2b63360891b606482015260840161067c565b610988828261226c565b5050565b600254604080516316f76bbf60e01b815290516000926001600160a01b031691638e8dfd169183916316f76bbf9160048083019260209291908290030181865afa1580156104dd573d6000803e3d6000fd5b6109e66122d3565b6109f06000612332565b565b6002546040805163210b739d60e11b815290516000926001600160a01b031691638e8dfd16918391634216e73a9160048083019260209291908290030181865afa1580156104dd573d6000803e3d6000fd5b600080610a4f611955565b83516020850151604051633ff8069760e11b81526001600160a01b039390931692637ff00d2e923492610a8492600401613474565b60206040518083038185885af1158015610aa2573d6000803e3d6000fd5b50505050506040513d601f19601f82011682018060405250810190610ac7919061335a565b905082606001515183604001515114610af25760405162461bcd60e51b815260040161067c9061348d565b8260a001515183608001515114610b1b5760405162461bcd60e51b815260040161067c906134e3565b8260e00151518360c001515114610b445760405162461bcd60e51b815260040161067c90613538565b826101000151518360c001515114610b6e5760405162461bcd60e51b815260040161067c90613581565b826101200151518360c001515114610b985760405162461bcd60e51b815260040161067c906135cc565b60408301515115610c645760005b836040015151811015610c6257610bbb6108bc565b6001600160a01b0316638a4315788386604001518481518110610be057610be0613617565b602002602001015187606001518581518110610bfe57610bfe613617565b60200260200101516040518463ffffffff1660e01b8152600401610c2493929190613669565b600060405180830381600087803b158015610c3e57600080fd5b505af1158015610c52573d6000803e3d6000fd5b505060019092019150610ba69050565b505b60808301515115610d305760005b836080015151811015610d2e57610c876108bc565b6001600160a01b0316631663c1218386608001518481518110610cac57610cac613617565b60200260200101518760a001518581518110610cca57610cca613617565b60200260200101516040518463ffffffff1660e01b8152600401610cf09392919061369e565b600060405180830381600087803b158015610d0a57600080fd5b505af1158015610d1e573d6000803e3d6000fd5b505060019092019150610c729050565b505b60c08301515115610e525760005b8360c0015151811015610e5057610d536108bc565b6001600160a01b0316639dd4349b8360405180606001604052808860c001518681518110610d8357610d83613617565b602002602001015181526020018860e001518681518110610da657610da6613617565b602002602001015181526020018861010001518681518110610dca57610dca613617565b60200260200101518152508761012001518581518110610dec57610dec613617565b60200260200101516040518463ffffffff1660e01b8152600401610e12939291906136d1565b600060405180830381600087803b158015610e2c57600080fd5b505af1158015610e40573d6000803e3d6000fd5b505060019092019150610d3e9050565b505b6000610e5c6108bc565b6001600160a01b031663bd4986a0836040518263ffffffff1660e01b8152600401610e8991815260200190565b602060405180830381865afa158015610ea6573d6000803e3d6000fd5b505050506040513d601f19601f82011682018060405250810190610eca9190613387565b905083610140015115610f6c57610edf6108bc565b6001600160a01b0316631663c12183836000604051908082528060200260200182016040528015610f1a578160200160208202803683370190505b506040518463ffffffff1660e01b8152600401610f399392919061369e565b600060405180830381600087803b158015610f5357600080fd5b505af1158015610f67573d6000803e3d6000fd5b505050505b83610160015115610fe557610f7f611955565b6001600160a01b03166342842e0e3083856040518463ffffffff1660e01b8152600401610fae9392919061372f565b600060405180830381600087803b158015610fc857600080fd5b505af1158015610fdc573d6000803e3d6000fd5b5050505061104f565b610fed611955565b6001600160a01b03166342842e0e3033856040518463ffffffff1660e01b815260040161101c9392919061372f565b600060405180830381600087803b15801561103657600080fd5b505af115801561104a573d6000803e3d6000fd5b505050505b5092915050565b6002546040805163210b739d60e11b815290516001600160a01b0390921691638e8dfd16918391634216e73a916004808201926020929091908290030181865afa1580156110a8573d6000803e3d6000fd5b505050506040513d601f19601f820116820180604052508101906110cc919061335a565b60025460405160e084901b6001600160e01b03191681526110fb9291600160a01b900460ff1690600401613373565b602060405180830381865afa158015611118573d6000803e3d6000fd5b505050506040513d601f19601f8201168201806040525081019061113c9190613387565b6001600160a01b0316336001600160a01b03161461116c5760405162461bcd60e51b815260040161067c906133a4565b600061117661098c565b8251909150156108b757806001600160a01b031663855eec2284846000815181106111a3576111a3613617565b60200260200101516040518363ffffffff1660e01b81526004016111c8929190613474565b600060405180830381600087803b1580156111e257600080fd5b505af11580156111f6573d6000803e3d6000fd5b50505050806001600160a01b0316639000fee1848460018151811061121d5761121d613617565b60200260200101516040518363ffffffff1660e01b8152600401611242929190613474565b600060405180830381600087803b15801561125c57600080fd5b505af1158015611270573d6000803e3d6000fd5b50505050505050565b6000546001600160a01b031690565b60009182526001602090815260408084206001600160a01b0393909316845291905290205460ff1690565b805182516000911461132d5760405162461bcd60e51b815260206004820152603e60248201527f504b5048656c7065723a20436c61696d206b65792074797065206d757374206d60448201527f617463682041757468204d6574686f642064617461206b657920747970650000606482015260840161067c565b60016000611339611955565b6001600160a01b03166371aa9acf3484886000015189602001518a604001518b606001518c608001516040518863ffffffff1660e01b815260040161138396959493929190613753565b60206040518083038185885af11580156113a1573d6000803e3d6000fd5b50505050506040513d601f19601f820116820180604052508101906113c6919061335a565b9050836040015151846020015151146113f15760405162461bcd60e51b815260040161067c9061348d565b8360800151518460600151511461141a5760405162461bcd60e51b815260040161067c906134e3565b8360c00151518460a0015151146114435760405162461bcd60e51b815260040161067c90613538565b8360e00151518460a00151511461146c5760405162461bcd60e51b815260040161067c90613581565b836101000151518460a0015151146114965760405162461bcd60e51b815260040161067c906135cc565b602084015151156115625760005b846020015151811015611560576114b96108bc565b6001600160a01b0316638a43157883876020015184815181106114de576114de613617565b6020026020010151886040015185815181106114fc576114fc613617565b60200260200101516040518463ffffffff1660e01b815260040161152293929190613669565b600060405180830381600087803b15801561153c57600080fd5b505af1158015611550573d6000803e3d6000fd5b5050600190920191506114a49050565b505b6060840151511561162e5760005b84606001515181101561162c576115856108bc565b6001600160a01b0316631663c12183876060015184815181106115aa576115aa613617565b6020026020010151886080015185815181106115c8576115c8613617565b60200260200101516040518463ffffffff1660e01b81526004016115ee9392919061369e565b600060405180830381600087803b15801561160857600080fd5b505af115801561161c573d6000803e3d6000fd5b5050600190920191506115709050565b505b60a0840151511561174f5760005b8460a001515181101561174d576116516108bc565b6001600160a01b0316639dd4349b8360405180606001604052808960a00151868151811061168157611681613617565b602002602001015181526020018960c0015186815181106116a4576116a4613617565b602002602001015181526020018960e0015186815181106116c7576116c7613617565b602002602001015181525088610100015185815181106116e9576116e9613617565b60200260200101516040518463ffffffff1660e01b815260040161170f939291906136d1565b600060405180830381600087803b15801561172957600080fd5b505af115801561173d573d6000803e3d6000fd5b50506001909201915061163c9050565b505b60006117596108bc565b6001600160a01b031663bd4986a0836040518263ffffffff1660e01b815260040161178691815260200190565b602060405180830381865afa1580156117a3573d6000803e3d6000fd5b505050506040513d601f19601f820116820180604052508101906117c79190613387565b905084610120015115611869576117dc6108bc565b6001600160a01b0316631663c12183836000604051908082528060200260200182016040528015611817578160200160208202803683370190505b506040518463ffffffff1660e01b81526004016118369392919061369e565b600060405180830381600087803b15801561185057600080fd5b505af1158015611864573d6000803e3d6000fd5b505050505b846101400151156118e25761187c611955565b6001600160a01b03166342842e0e3083856040518463ffffffff1660e01b81526004016118ab9392919061372f565b600060405180830381600087803b1580156118c557600080fd5b505af11580156118d9573d6000803e3d6000fd5b5050505061194c565b6118ea611955565b6001600160a01b03166342842e0e3033856040518463ffffffff1660e01b81526004016119199392919061372f565b600060405180830381600087803b15801561193357600080fd5b505af1158015611947573d6000803e3d6000fd5b505050505b50949350505050565b60025460408051632c0b8bf760e01b815290516000926001600160a01b031691638e8dfd16918391632c0b8bf79160048083019260209291908290030181865afa1580156104dd573d6000803e3d6000fd5b6119b0826106aa565b6119b9816121f7565b6108b7838361226c565b6002546040805163210b739d60e11b815290516000926001600160a01b031691638e8dfd16918391634216e73a9160048083019260209291908290030181865afa158015611a15573d6000803e3d6000fd5b505050506040513d601f19601f82011682018060405250810190611a39919061335a565b60025460405160e084901b6001600160e01b0319168152611a689291600160a01b900460ff1690600401613373565b602060405180830381865afa158015611a85573d6000803e3d6000fd5b505050506040513d601f19601f82011682018060405250810190611aa99190613387565b6001600160a01b0316336001600160a01b031614611ad95760405162461bcd60e51b815260040161067c906133a4565b6000611ae3611955565b6001600160a01b0316637ff00d2e348d8d6040518463ffffffff1660e01b8152600401611b11929190613474565b60206040518083038185885af1158015611b2f573d6000803e3d6000fd5b50505050506040513d601f19601f82011682018060405250810190611b54919061335a565b90508751895114611b775760405162461bcd60e51b815260040161067c90613538565b8651895114611b985760405162461bcd60e51b815260040161067c90613581565b8551895114611bb95760405162461bcd60e51b815260040161067c906135cc565b885115611cc15760005b8951811015611cbf57611bd46108bc565b6001600160a01b0316639dd4349b8360405180606001604052808e8681518110611c0057611c00613617565b602002602001015181526020018d8681518110611c1f57611c1f613617565b602002602001015181526020018c8681518110611c3e57611c3e613617565b60200260200101518152508a8581518110611c5b57611c5b613617565b60200260200101516040518463ffffffff1660e01b8152600401611c81939291906136d1565b600060405180830381600087803b158015611c9b57600080fd5b505af1158015611caf573d6000803e3d6000fd5b505060019092019150611bc39050565b505b6000611ccb6108bc565b6001600160a01b031663bd4986a0836040518263ffffffff1660e01b8152600401611cf891815260200190565b602060405180830381865afa158015611d15573d6000803e3d6000fd5b505050506040513d601f19601f82011682018060405250810190611d399190613387565b90508415611dd657611d496108bc565b6001600160a01b0316631663c12183836000604051908082528060200260200182016040528015611d84578160200160208202803683370190505b506040518463ffffffff1660e01b8152600401611da39392919061369e565b600060405180830381600087803b158015611dbd57600080fd5b505af1158015611dd1573d6000803e3d6000fd5b505050505b8315611e4a57611de4611955565b6001600160a01b03166342842e0e3083856040518463ffffffff1660e01b8152600401611e139392919061372f565b600060405180830381600087803b158015611e2d57600080fd5b505af1158015611e41573d6000803e3d6000fd5b50505050611eb4565b611e52611955565b6001600160a01b03166342842e0e3033856040518463ffffffff1660e01b8152600401611e819392919061372f565b600060405180830381600087803b158015611e9b57600080fd5b505af1158015611eaf573d6000803e3d6000fd5b505050505b855115611fbe57611ec361098c565b6001600160a01b031663855eec228388600081518110611ee557611ee5613617565b60200260200101516040518363ffffffff1660e01b8152600401611f0a929190613474565b600060405180830381600087803b158015611f2457600080fd5b505af1158015611f38573d6000803e3d6000fd5b50505050611f4461098c565b6001600160a01b0316639000fee18388600181518110611f6657611f66613617565b60200260200101516040518363ffffffff1660e01b8152600401611f8b929190613474565b600060405180830381600087803b158015611fa557600080fd5b505af1158015611fb9573d6000803e3d6000fd5b505050505b509a9950505050505050505050565b6000806040518061018001604052808b81526020018a815260200160006001600160401b03811115612001576120016125c6565b60405190808252806020026020018201604052801561203457816020015b606081526020019060019003908161201f5790505b508152602001600060405190808252806020026020018201604052801561206f57816020015b606081526020019060019003908161205a5790505b50815260200160006040519080825280602002602001820160405280156120a0578160200160208202803683370190505b50815260200160006040519080825280602002602001820160405280156120db57816020015b60608152602001906001900390816120c65790505b5081526020018981526020018881526020018781526020018681526020018515158152602001841515815250905061211281610a44565b9a9950505050505050505050565b6121286122d3565b6001600160a01b03811661218d5760405162461bcd60e51b815260206004820152602660248201527f4f776e61626c653a206e6577206f776e657220697320746865207a65726f206160448201526564647265737360d01b606482015260840161067c565b61219681612332565b50565b6121a16122d3565b600280546001600160a01b0319166001600160a01b0383161790556040517f2760073c7cd8cac531d7f643becbfbb74d8b8156443eacf879622532dbbb3cd5906121ec9083906125b2565b60405180910390a150565b6121968133612382565b61220b8282611288565b6109885760008281526001602081815260408084206001600160a01b0386168086529252808420805460ff19169093179092559051339285917f2f8788117e7eff1d82e926ec794901d17c78024a50270940304540a733656f0d9190a45050565b6122768282611288565b156109885760008281526001602090815260408083206001600160a01b0385168085529252808320805460ff1916905551339285917ff6391f5c32d9c69d2a47ea670b442974b53935d1edc7fd64eb21e047a839171b9190a45050565b336122dc611279565b6001600160a01b0316146109f05760405162461bcd60e51b815260206004820181905260248201527f4f776e61626c653a2063616c6c6572206973206e6f7420746865206f776e6572604482015260640161067c565b600080546001600160a01b038381166001600160a01b0319831681178455604051919092169283917f8be0079c531659141344cd1fd0a4f28419497f9722a3daafe3b4186f6b6457e09190a35050565b61238c8282611288565b61098857612399816123db565b6123a48360206123ed565b6040516020016123b59291906137f3565b60408051601f198184030181529082905262461bcd60e51b825261067c91600401613862565b60606104856001600160a01b03831660145b606060006123fc83600261388b565b6124079060026138a2565b6001600160401b0381111561241e5761241e6125c6565b6040519080825280601f01601f191660200182016040528015612448576020820181803683370190505b509050600360fc1b8160008151811061246357612463613617565b60200101906001600160f81b031916908160001a905350600f60fb1b8160018151811061249257612492613617565b60200101906001600160f81b031916908160001a90535060006124b684600261388b565b6124c19060016138a2565b90505b6001811115612539576f181899199a1a9b1b9c1cb0b131b232b360811b85600f16601081106124f5576124f5613617565b1a60f81b82828151811061250b5761250b613617565b60200101906001600160f81b031916908160001a90535060049490941c93612532816138b5565b90506124c4565b5083156106a35760405162461bcd60e51b815260206004820181905260248201527f537472696e67733a20686578206c656e67746820696e73756666696369656e74604482015260640161067c565b60006020828403121561259a57600080fd5b81356001600160e01b0319811681146106a357600080fd5b6001600160a01b0391909116815260200190565b634e487b7160e01b600052604160045260246000fd5b604051606081016001600160401b03811182821017156125fe576125fe6125c6565b60405290565b60405161016081016001600160401b03811182821017156125fe576125fe6125c6565b60405161018081016001600160401b03811182821017156125fe576125fe6125c6565b60405160a081016001600160401b03811182821017156125fe576125fe6125c6565b604051601f8201601f191681016001600160401b0381118282101715612694576126946125c6565b604052919050565b60006001600160401b038211156126b5576126b56125c6565b5060051b60200190565b600082601f8301126126d057600080fd5b81356126e36126de8261269c565b61266c565b8082825260208201915060206060840286010192508583111561270557600080fd5b602085015b83811015612761576060818803121561272257600080fd5b61272a6125dc565b8135815260208083013590820152604082013560ff8116811461274c57600080fd5b6040820152835260209092019160600161270a565b5095945050505050565b6000806001600160401b03841115612785576127856125c6565b50601f8301601f191660200161279a8161266c565b9150508281528383830111156127af57600080fd5b828260208301376000602084830101529392505050565b600082601f8301126127d757600080fd5b81356127e56126de8261269c565b8082825260208201915060208360051b86010192508583111561280757600080fd5b602085015b838110156127615780356001600160401b0381111561282a57600080fd5b8601603f8101881361283b57600080fd5b61284d8860208301356040840161276b565b8452506020928301920161280c565b600082601f83011261286d57600080fd5b813561287b6126de8261269c565b8082825260208201915060208360051b86010192508583111561289d57600080fd5b602085015b838110156127615780358352602092830192016128a2565b600082601f8301126128cb57600080fd5b81356128d96126de8261269c565b8082825260208201915060208360051b8601019250858311156128fb57600080fd5b602085015b838110156127615780356001600160401b0381111561291e57600080fd5b61292d886020838a010161285c565b84525060209283019201612900565b6001600160a01b038116811461219657600080fd5b600082601f83011261296257600080fd5b81356129706126de8261269c565b8082825260208201915060208360051b86010192508583111561299257600080fd5b602085015b838110156127615780356129aa8161293c565b835260209283019201612997565b803580151581146129c857600080fd5b919050565b600061016082840312156129e057600080fd5b6129e8612604565b82358152905060208201356001600160401b03811115612a0757600080fd5b612a13848285016127c6565b60208301525060408201356001600160401b03811115612a3257600080fd5b612a3e848285016128ba565b60408301525060608201356001600160401b03811115612a5d57600080fd5b612a6984828501612951565b60608301525060808201356001600160401b03811115612a8857600080fd5b612a94848285016128ba565b60808301525060a08201356001600160401b03811115612ab357600080fd5b612abf8482850161285c565b60a08301525060c08201356001600160401b03811115612ade57600080fd5b612aea848285016127c6565b60c08301525060e08201356001600160401b03811115612b0957600080fd5b612b15848285016127c6565b60e0830152506101008201356001600160401b03811115612b3557600080fd5b612b41848285016128ba565b61010083015250612b5561012083016129b8565b610120820152612b6861014083016129b8565b61014082015292915050565b60008060408385031215612b8757600080fd5b82356001600160401b03811115612b9d57600080fd5b830160608186031215612baf57600080fd5b612bb76125dc565b813581526020808301359082015260408201356001600160401b03811115612bde57600080fd5b612bea878285016126bf565b60408301525092505060208301356001600160401b03811115612c0c57600080fd5b612c18858286016129cd565b9150509250929050565b600080600080600060808688031215612c3a57600080fd5b8535612c458161293c565b94506020860135612c558161293c565b93506040860135925060608601356001600160401b03811115612c7757600080fd5b8601601f81018813612c8857600080fd5b80356001600160401b03811115612c9e57600080fd5b886020828401011115612cb057600080fd5b959894975092955050506020019190565b600060208284031215612cd357600080fd5b5035919050565b60008060408385031215612ced57600080fd5b823591506020830135612cff8161293c565b809150509250929050565b600082601f830112612d1b57600080fd5b6106a38383356020850161276b565b600060208284031215612d3c57600080fd5b81356001600160401b03811115612d5257600080fd5b82016101808185031215612d6557600080fd5b612d6d612627565b8135815260208201356001600160401b03811115612d8a57600080fd5b612d9686828501612d0a565b60208301525060408201356001600160401b03811115612db557600080fd5b612dc1868285016127c6565b60408301525060608201356001600160401b03811115612de057600080fd5b612dec868285016128ba565b60608301525060808201356001600160401b03811115612e0b57600080fd5b612e1786828501612951565b60808301525060a08201356001600160401b03811115612e3657600080fd5b612e42868285016128ba565b60a08301525060c08201356001600160401b03811115612e6157600080fd5b612e6d8682850161285c565b60c08301525060e08201356001600160401b03811115612e8c57600080fd5b612e98868285016127c6565b60e0830152506101008201356001600160401b03811115612eb857600080fd5b612ec4868285016127c6565b610100830152506101208201356001600160401b03811115612ee557600080fd5b612ef1868285016128ba565b61012083015250612f0561014083016129b8565b610140820152612f1861016083016129b8565b610160820152949350505050565b600082601f830112612f3757600080fd5b8135612f456126de8261269c565b8082825260208201915060208360051b860101925085831115612f6757600080fd5b602085015b838110156127615780356001600160401b03811115612f8a57600080fd5b612f99886020838a0101612d0a565b84525060209283019201612f6c565b60008060408385031215612fbb57600080fd5b8235915060208301356001600160401b03811115612fd857600080fd5b612c1885828601612f26565b60008060408385031215612ff757600080fd5b82356001600160401b0381111561300d57600080fd5b830160a0818603121561301f57600080fd5b61302761264a565b8135815260208201356001600160401b0381111561304457600080fd5b61305087828501612d0a565b6020830152506040828101359082015260608201356001600160401b0381111561307957600080fd5b613085878285016126bf565b6060830152506080820135915061309b8261293c565b6080810191909152915060208301356001600160401b03811115612c0c57600080fd5b600381106130dc57634e487b7160e01b600052602160045260246000fd5b9052565b6020810161048582846130be565b60008060008060008060008060006101208a8c03121561310d57600080fd5b8935985060208a01356001600160401b0381111561312a57600080fd5b6131368c828d01612d0a565b98505060408a01356001600160401b0381111561315257600080fd5b61315e8c828d0161285c565b97505060608a01356001600160401b0381111561317a57600080fd5b6131868c828d016127c6565b96505060808a01356001600160401b038111156131a257600080fd5b6131ae8c828d016127c6565b95505060a08a01356001600160401b038111156131ca57600080fd5b6131d68c828d016128ba565b94505060c08a01356001600160401b038111156131f257600080fd5b6131fe8c828d01612f26565b93505061320d60e08b016129b8565b915061321c6101008b016129b8565b90509295985092959850929598565b600080600080600080600080610100898b03121561324857600080fd5b8835975060208901356001600160401b0381111561326557600080fd5b6132718b828c01612d0a565b97505060408901356001600160401b0381111561328d57600080fd5b6132998b828c0161285c565b96505060608901356001600160401b038111156132b557600080fd5b6132c18b828c016127c6565b95505060808901356001600160401b038111156132dd57600080fd5b6132e98b828c016127c6565b94505060a08901356001600160401b0381111561330557600080fd5b6133118b828c016128ba565b93505061332060c08a016129b8565b915061332e60e08a016129b8565b90509295985092959890939650565b60006020828403121561334f57600080fd5b81356106a38161293c565b60006020828403121561336c57600080fd5b5051919050565b828152604081016106a360208301846130be565b60006020828403121561339957600080fd5b81516106a38161293c565b6020808252605a908201527f504b5048656c7065723a206f6e6c792074686520446f6d61696e2057616c6c6560408201527f7420726567697374727920697320616c6c6f77656420746f206d696e7420646f6060820152796d61696e2077616c6c6574732c2077686f2061726520796f753f60301b608082015260a00190565b60005b8381101561343f578181015183820152602001613427565b50506000910152565b60008151808452613460816020860160208601613424565b601f01601f19169290920160200192915050565b8281526040602082015260006105eb6040830184613448565b60208082526036908201527f504b5048656c7065723a20697066732063696420616e642073636f70652061726040820152750e4c2f240d8cadccee8d0e640daeae6e840dac2e8c6d60531b606082015260800190565b60208082526035908201527f504b5048656c7065723a206164647265737320616e642073636f7065206172726040820152740c2f240d8cadccee8d0e640daeae6e840dac2e8c6d605b1b606082015260800190565b6020808252603b908201526000805160206138cd83398151915260408201527a0d2c840c2e4e4c2f240d8cadccee8d0e640daeae6e840dac2e8c6d602b1b606082015260800190565b6020808252603f908201526000805160206138cd83398151915260408201527f7075626b6579206172726179206c656e67746873206d757374206d6174636800606082015260800190565b6020808252603f908201526000805160206138cd83398151915260408201527f73636f706573206172726179206c656e67746873206d757374206d6174636800606082015260800190565b634e487b7160e01b600052603260045260246000fd5b600081518084526020840193506020830160005b8281101561365f578151865260209586019590910190600101613641565b5093949350505050565b8381526060602082015260006136826060830185613448565b8281036040840152613694818561362d565b9695505050505050565b8381526001600160a01b03831660208201526060604082018190526000906136c89083018461362d565b95945050505050565b838152606060208201528251606082015260006020840151606060808401526136fd60c0840182613448565b90506040850151605f198483030160a085015261371a8282613448565b9150508281036040840152613694818561362d565b6001600160a01b039384168152919092166020820152604081019190915260600190565b86815285602082015260c06040820152600061377260c0830187613448565b6060830186905282810360808401528451808252602080870192019060005b818110156137ce578351805184526020810151602085015260ff604082015116604085015250606083019250602084019350600181019050613791565b50506001600160a01b03851660a085015291506137e89050565b979650505050505050565b76020b1b1b2b9b9a1b7b73a3937b61d1030b1b1b7bab73a1604d1b815260008351613825816017850160208801613424565b7001034b99036b4b9b9b4b733903937b6329607d1b6017918401918201528351613856816028840160208801613424565b01602801949350505050565b6020815260006106a36020830184613448565b634e487b7160e01b600052601160045260246000fd5b808202811582820484141761048557610485613875565b8082018082111561048557610485613875565b6000816138c4576138c4613875565b50600019019056fe504b5048656c7065723a2061757468206d6574686f64207479706520616e6420a264697066735822122009dc91373cbed6234987ff9ea9bac80cf40628bda598c876f9b23fc03da6a8d264736f6c634300081c0033",
  "linkReferences": {},
  "deployedLinkReferences": {}
}