{
  "_format": "hh-sol-artifact-1",
  "contractName": "PKPHelper",
  "sourceName": "contracts/lit-node/PKPHelper.sol",
  "abi": [
    {
      "inputs": [
        {
          "internalType": "address",
          "name": "_resolver",
          "type": "address"
        },
        {
          "internalType": "enum ContractResolver.Env",
          "name": "_env",
          "type": "uint8"
        }
      ],
      "stateMutability": "nonpayable",
      "type": "constructor"
    },
    {
      "anonymous": false,
      "inputs": [
        {
          "indexed": false,
          "internalType": "address",
          "name": "newResolverAddress",
          "type": "address"
        }
      ],
      "name": "ContractResolverAddressSet",
      "type": "event"
    },
    {
      "anonymous": false,
      "inputs": [
        {
          "indexed": true,
          "internalType": "address",
          "name": "previousOwner",
          "type": "address"
        },
        {
          "indexed": true,
          "internalType": "address",
          "name": "newOwner",
          "type": "address"
        }
      ],
      "name": "OwnershipTransferred",
      "type": "event"
    },
    {
      "anonymous": false,
      "inputs": [
        {
          "indexed": true,
          "internalType": "bytes32",
          "name": "role",
          "type": "bytes32"
        },
        {
          "indexed": true,
          "internalType": "bytes32",
          "name": "previousAdminRole",
          "type": "bytes32"
        },
        {
          "indexed": true,
          "internalType": "bytes32",
          "name": "newAdminRole",
          "type": "bytes32"
        }
      ],
      "name": "RoleAdminChanged",
      "type": "event"
    },
    {
      "anonymous": false,
      "inputs": [
        {
          "indexed": true,
          "internalType": "bytes32",
          "name": "role",
          "type": "bytes32"
        },
        {
          "indexed": true,
          "internalType": "address",
          "name": "account",
          "type": "address"
        },
        {
          "indexed": true,
          "internalType": "address",
          "name": "sender",
          "type": "address"
        }
      ],
      "name": "RoleGranted",
      "type": "event"
    },
    {
      "anonymous": false,
      "inputs": [
        {
          "indexed": true,
          "internalType": "bytes32",
          "name": "role",
          "type": "bytes32"
        },
        {
          "indexed": true,
          "internalType": "address",
          "name": "account",
          "type": "address"
        },
        {
          "indexed": true,
          "internalType": "address",
          "name": "sender",
          "type": "address"
        }
      ],
      "name": "RoleRevoked",
      "type": "event"
    },
    {
      "inputs": [],
      "name": "DEFAULT_ADMIN_ROLE",
      "outputs": [
        {
          "internalType": "bytes32",
          "name": "",
          "type": "bytes32"
        }
      ],
      "stateMutability": "view",
      "type": "function"
    },
    {
      "inputs": [
        {
          "components": [
            {
              "internalType": "uint256",
              "name": "keyType",
              "type": "uint256"
            },
            {
              "internalType": "bytes32",
              "name": "derivedKeyId",
              "type": "bytes32"
            },
            {
              "components": [
                {
                  "internalType": "bytes32",
                  "name": "r",
                  "type": "bytes32"
                },
                {
                  "internalType": "bytes32",
                  "name": "s",
                  "type": "bytes32"
                },
                {
                  "internalType": "uint8",
                  "name": "v",
                  "type": "uint8"
                }
              ],
              "internalType": "struct IPubkeyRouter.Signature[]",
              "name": "signatures",
              "type": "tuple[]"
            }
          ],
          "internalType": "struct LibPKPNFTStorage.ClaimMaterial",
          "name": "claimMaterial",
          "type": "tuple"
        },
        {
          "components": [
            {
              "internalType": "uint256",
              "name": "keyType",
              "type": "uint256"
            },
            {
              "internalType": "bytes[]",
              "name": "permittedIpfsCIDs",
              "type": "bytes[]"
            },
            {
              "internalType": "uint256[][]",
              "name": "permittedIpfsCIDScopes",
              "type": "uint256[][]"
            },
            {
              "internalType": "address[]",
              "name": "permittedAddresses",
              "type": "address[]"
            },
            {
              "internalType": "uint256[][]",
              "name": "permittedAddressScopes",
              "type": "uint256[][]"
            },
            {
              "internalType": "uint256[]",
              "name": "permittedAuthMethodTypes",
              "type": "uint256[]"
            },
            {
              "internalType": "bytes[]",
              "name": "permittedAuthMethodIds",
              "type": "bytes[]"
            },
            {
              "internalType": "bytes[]",
              "name": "permittedAuthMethodPubkeys",
              "type": "bytes[]"
            },
            {
              "internalType": "uint256[][]",
              "name": "permittedAuthMethodScopes",
              "type": "uint256[][]"
            },
            {
              "internalType": "bool",
              "name": "addPkpEthAddressAsPermittedAddress",
              "type": "bool"
            },
            {
              "internalType": "bool",
              "name": "sendPkpToItself",
              "type": "bool"
            }
          ],
          "internalType": "struct PKPHelper.AuthMethodData",
          "name": "authMethodData",
          "type": "tuple"
        }
      ],
      "name": "claimAndMintNextAndAddAuthMethods",
      "outputs": [
        {
          "internalType": "uint256",
          "name": "",
          "type": "uint256"
        }
      ],
      "stateMutability": "payable",
      "type": "function"
    },
    {
      "inputs": [
        {
          "components": [
            {
              "internalType": "uint256",
              "name": "keyType",
              "type": "uint256"
            },
            {
              "internalType": "bytes32",
              "name": "derivedKeyId",
              "type": "bytes32"
            },
            {
              "components": [
                {
                  "internalType": "bytes32",
                  "name": "r",
                  "type": "bytes32"
                },
                {
                  "internalType": "bytes32",
                  "name": "s",
                  "type": "bytes32"
                },
                {
                  "internalType": "uint8",
                  "name": "v",
                  "type": "uint8"
                }
              ],
              "internalType": "struct IPubkeyRouter.Signature[]",
              "name": "signatures",
              "type": "tuple[]"
            }
          ],
          "internalType": "struct LibPKPNFTStorage.ClaimMaterial",
          "name": "claimMaterial",
          "type": "tuple"
        },
        {
          "components": [
            {
              "internalType": "uint256",
              "name": "keyType",
              "type": "uint256"
            },
            {
              "internalType": "bytes[]",
              "name": "permittedIpfsCIDs",
              "type": "bytes[]"
            },
            {
              "internalType": "uint256[][]",
              "name": "permittedIpfsCIDScopes",
              "type": "uint256[][]"
            },
            {
              "internalType": "address[]",
              "name": "permittedAddresses",
              "type": "address[]"
            },
            {
              "internalType": "uint256[][]",
              "name": "permittedAddressScopes",
              "type": "uint256[][]"
            },
            {
              "internalType": "uint256[]",
              "name": "permittedAuthMethodTypes",
              "type": "uint256[]"
            },
            {
              "internalType": "bytes[]",
              "name": "permittedAuthMethodIds",
              "type": "bytes[]"
            },
            {
              "internalType": "bytes[]",
              "name": "permittedAuthMethodPubkeys",
              "type": "bytes[]"
            },
            {
              "internalType": "uint256[][]",
              "name": "permittedAuthMethodScopes",
              "type": "uint256[][]"
            },
            {
              "internalType": "bool",
              "name": "addPkpEthAddressAsPermittedAddress",
              "type": "bool"
            },
            {
              "internalType": "bool",
              "name": "sendPkpToItself",
              "type": "bool"
            }
          ],
          "internalType": "struct PKPHelper.AuthMethodData",
          "name": "authMethodData",
          "type": "tuple"
        }
      ],
      "name": "claimAndMintNextAndAddAuthMethodsWithTypes",
      "outputs": [
        {
          "internalType": "uint256",
          "name": "",
          "type": "uint256"
        }
      ],
      "stateMutability": "payable",
      "type": "function"
    },
    {
      "inputs": [
        {
          "components": [
            {
              "internalType": "uint256",
              "name": "keyType",
              "type": "uint256"
            },
            {
              "internalType": "string",
              "name": "keySetId",
              "type": "string"
            },
            {
              "internalType": "bytes32",
              "name": "derivedKeyId",
              "type": "bytes32"
            },
            {
              "components": [
                {
                  "internalType": "bytes32",
                  "name": "r",
                  "type": "bytes32"
                },
                {
                  "internalType": "bytes32",
                  "name": "s",
                  "type": "bytes32"
                },
                {
                  "internalType": "uint8",
                  "name": "v",
                  "type": "uint8"
                }
              ],
              "internalType": "struct IPubkeyRouter.Signature[]",
              "name": "signatures",
              "type": "tuple[]"
            },
            {
              "internalType": "address",
              "name": "stakingContractAddress",
              "type": "address"
            }
          ],
          "internalType": "struct LibPKPNFTStorage.ClaimMaterialV2",
          "name": "claimMaterial",
          "type": "tuple"
        },
        {
          "components": [
            {
              "internalType": "uint256",
              "name": "keyType",
              "type": "uint256"
            },
            {
              "internalType": "bytes[]",
              "name": "permittedIpfsCIDs",
              "type": "bytes[]"
            },
            {
              "internalType": "uint256[][]",
              "name": "permittedIpfsCIDScopes",
              "type": "uint256[][]"
            },
            {
              "internalType": "address[]",
              "name": "permittedAddresses",
              "type": "address[]"
            },
            {
              "internalType": "uint256[][]",
              "name": "permittedAddressScopes",
              "type": "uint256[][]"
            },
            {
              "internalType": "uint256[]",
              "name": "permittedAuthMethodTypes",
              "type": "uint256[]"
            },
            {
              "internalType": "bytes[]",
              "name": "permittedAuthMethodIds",
              "type": "bytes[]"
            },
            {
              "internalType": "bytes[]",
              "name": "permittedAuthMethodPubkeys",
              "type": "bytes[]"
            },
            {
              "internalType": "uint256[][]",
              "name": "permittedAuthMethodScopes",
              "type": "uint256[][]"
            },
            {
              "internalType": "bool",
              "name": "addPkpEthAddressAsPermittedAddress",
              "type": "bool"
            },
            {
              "internalType": "bool",
              "name": "sendPkpToItself",
              "type": "bool"
            }
          ],
          "internalType": "struct PKPHelper.AuthMethodData",
          "name": "authMethodData",
          "type": "tuple"
        }
      ],
      "name": "claimAndMintNextAndAddAuthMethodsWithTypesV2",
      "outputs": [
        {
          "internalType": "uint256",
          "name": "",
          "type": "uint256"
        }
      ],
      "stateMutability": "payable",
      "type": "function"
    },
    {
      "inputs": [],
      "name": "contractResolver",
      "outputs": [
        {
          "internalType": "contract ContractResolver",
          "name": "",
          "type": "address"
        }
      ],
      "stateMutability": "view",
      "type": "function"
    },
    {
      "inputs": [],
      "name": "env",
      "outputs": [
        {
          "internalType": "enum ContractResolver.Env",
          "name": "",
          "type": "uint8"
        }
      ],
      "stateMutability": "view",
      "type": "function"
    },
    {
      "inputs": [],
      "name": "getDomainWalletRegistry",
      "outputs": [
        {
          "internalType": "address",
          "name": "",
          "type": "address"
        }
      ],
      "stateMutability": "view",
      "type": "function"
    },
    {
      "inputs": [],
      "name": "getPKPNftMetdataAddress",
      "outputs": [
        {
          "internalType": "address",
          "name": "",
          "type": "address"
        }
      ],
      "stateMutability": "view",
      "type": "function"
    },
    {
      "inputs": [],
      "name": "getPkpNftAddress",
      "outputs": [
        {
          "internalType": "address",
          "name": "",
          "type": "address"
        }
      ],
      "stateMutability": "view",
      "type": "function"
    },
    {
      "inputs": [],
      "name": "getPkpPermissionsAddress",
      "outputs": [
        {
          "internalType": "address",
          "name": "",
          "type": "address"
        }
      ],
      "stateMutability": "view",
      "type": "function"
    },
    {
      "inputs": [
        {
          "internalType": "bytes32",
          "name": "role",
          "type": "bytes32"
        }
      ],
      "name": "getRoleAdmin",
      "outputs": [
        {
          "internalType": "bytes32",
          "name": "",
          "type": "bytes32"
        }
      ],
      "stateMutability": "view",
      "type": "function"
    },
    {
      "inputs": [],
      "name": "getStakingAddress",
      "outputs": [
        {
          "internalType": "address",
          "name": "",
          "type": "address"
        }
      ],
      "stateMutability": "view",
      "type": "function"
    },
    {
      "inputs": [
        {
          "internalType": "bytes32",
          "name": "role",
          "type": "bytes32"
        },
        {
          "internalType": "address",
          "name": "account",
          "type": "address"
        }
      ],
      "name": "grantRole",
      "outputs": [],
      "stateMutability": "nonpayable",
      "type": "function"
    },
    {
      "inputs": [
        {
          "internalType": "bytes32",
          "name": "role",
          "type": "bytes32"
        },
        {
          "internalType": "address",
          "name": "account",
          "type": "address"
        }
      ],
      "name": "hasRole",
      "outputs": [
        {
          "internalType": "bool",
          "name": "",
          "type": "bool"
        }
      ],
      "stateMutability": "view",
      "type": "function"
    },
    {
      "inputs": [
        {
          "internalType": "uint256",
          "name": "keyType",
          "type": "uint256"
        },
        {
          "internalType": "string",
          "name": "keySetId",
          "type": "string"
        },
        {
          "internalType": "uint256[]",
          "name": "permittedAuthMethodTypes",
          "type": "uint256[]"
        },
        {
          "internalType": "bytes[]",
          "name": "permittedAuthMethodIds",
          "type": "bytes[]"
        },
        {
          "internalType": "bytes[]",
          "name": "permittedAuthMethodPubkeys",
          "type": "bytes[]"
        },
        {
          "internalType": "uint256[][]",
          "name": "permittedAuthMethodScopes",
          "type": "uint256[][]"
        },
        {
          "internalType": "bool",
          "name": "addPkpEthAddressAsPermittedAddress",
          "type": "bool"
        },
        {
          "internalType": "bool",
          "name": "sendPkpToItself",
          "type": "bool"
        }
      ],
      "name": "mintNextAndAddAuthMethods",
      "outputs": [
        {
          "internalType": "uint256",
          "name": "",
          "type": "uint256"
        }
      ],
      "stateMutability": "payable",
      "type": "function"
    },
    {
      "inputs": [
        {
          "components": [
            {
              "internalType": "uint256",
              "name": "keyType",
              "type": "uint256"
            },
            {
              "internalType": "string",
              "name": "keySetId",
              "type": "string"
            },
            {
              "internalType": "bytes[]",
              "name": "permittedIpfsCIDs",
              "type": "bytes[]"
            },
            {
              "internalType": "uint256[][]",
              "name": "permittedIpfsCIDScopes",
              "type": "uint256[][]"
            },
            {
              "internalType": "address[]",
              "name": "permittedAddresses",
              "type": "address[]"
            },
            {
              "internalType": "uint256[][]",
              "name": "permittedAddressesScopes",
              "type": "uint256[][]"
            },
            {
              "internalType": "uint256[]",
              "name": "permittedAuthMethodTypes",
              "type": "uint256[]"
            },
            {
              "internalType": "bytes[]",
              "name": "permittedAuthMethodIds",
              "type": "bytes[]"
            },
            {
              "internalType": "bytes[]",
              "name": "permittedAuthMethodPubkeys",
              "type": "bytes[]"
            },
            {
              "internalType": "uint256[][]",
              "name": "permittedAuthMethodScopes",
              "type": "uint256[][]"
            },
            {
              "internalType": "bool",
              "name": "addPkpEthAddressAsPermittedAddress",
              "type": "bool"
            },
            {
              "internalType": "bool",
              "name": "sendPkpToItself",
              "type": "bool"
            }
          ],
          "internalType": "struct PKPHelper.MintNextAndAddAuthMethodsWithTypesParams",
          "name": "params",
          "type": "tuple"
        }
      ],
      "name": "mintNextAndAddAuthMethodsWithTypes",
      "outputs": [
        {
          "internalType": "uint256",
          "name": "",
          "type": "uint256"
        }
      ],
      "stateMutability": "payable",
      "type": "function"
    },
    {
      "inputs": [
        {
          "internalType": "uint256",
          "name": "keyType",
          "type": "uint256"
        },
        {
          "internalType": "string",
          "name": "keySetId",
          "type": "string"
        },
        {
          "internalType": "uint256[]",
          "name": "permittedAuthMethodTypes",
          "type": "uint256[]"
        },
        {
          "internalType": "bytes[]",
          "name": "permittedAuthMethodIds",
          "type": "bytes[]"
        },
        {
          "internalType": "bytes[]",
          "name": "permittedAuthMethodPubkeys",
          "type": "bytes[]"
        },
        {
          "internalType": "uint256[][]",
          "name": "permittedAuthMethodScopes",
          "type": "uint256[][]"
        },
        {
          "internalType": "string[]",
          "name": "nftMetadata",
          "type": "string[]"
        },
        {
          "internalType": "bool",
          "name": "addPkpEthAddressAsPermittedAddress",
          "type": "bool"
        },
        {
          "internalType": "bool",
          "name": "sendPkpToItself",
          "type": "bool"
        }
      ],
      "name": "mintNextAndAddDomainWalletMetadata",
      "outputs": [
        {
          "internalType": "uint256",
          "name": "",
          "type": "uint256"
        }
      ],
      "stateMutability": "payable",
      "type": "function"
    },
    {
      "inputs": [
        {
          "internalType": "address",
          "name": "",
          "type": "address"
        },
        {
          "internalType": "address",
          "name": "",
          "type": "address"
        },
        {
          "internalType": "uint256",
          "name": "",
          "type": "uint256"
        },
        {
          "internalType": "bytes",
          "name": "",
          "type": "bytes"
        }
      ],
      "name": "onERC721Received",
      "outputs": [
        {
          "internalType": "bytes4",
          "name": "",
          "type": "bytes4"
        }
      ],
      "stateMutability": "view",
      "type": "function"
    },
    {
      "inputs": [],
      "name": "owner",
      "outputs": [
        {
          "internalType": "address",
          "name": "",
          "type": "address"
        }
      ],
      "stateMutability": "view",
      "type": "function"
    },
    {
      "inputs": [
        {
          "internalType": "uint256",
          "name": "tokenId",
          "type": "uint256"
        }
      ],
      "name": "removePkpMetadata",
      "outputs": [],
      "stateMutability": "nonpayable",
      "type": "function"
    },
    {
      "inputs": [],
      "name": "renounceOwnership",
      "outputs": [],
      "stateMutability": "nonpayable",
      "type": "function"
    },
    {
      "inputs": [
        {
          "internalType": "bytes32",
          "name": "role",
          "type": "bytes32"
        },
        {
          "internalType": "address",
          "name": "account",
          "type": "address"
        }
      ],
      "name": "renounceRole",
      "outputs": [],
      "stateMutability": "nonpayable",
      "type": "function"
    },
    {
      "inputs": [
        {
          "internalType": "bytes32",
          "name": "role",
          "type": "bytes32"
        },
        {
          "internalType": "address",
          "name": "account",
          "type": "address"
        }
      ],
      "name": "revokeRole",
      "outputs": [],
      "stateMutability": "nonpayable",
      "type": "function"
    },
    {
      "inputs": [
        {
          "internalType": "address",
          "name": "newResolverAddress",
          "type": "address"
        }
      ],
      "name": "setContractResolver",
      "outputs": [],
      "stateMutability": "nonpayable",
      "type": "function"
    },
    {
      "inputs": [
        {
          "internalType": "uint256",
          "name": "tokenId",
          "type": "uint256"
        },
        {
          "internalType": "string[]",
          "name": "nftMetadata",
          "type": "string[]"
        }
      ],
      "name": "setPkpMetadata",
      "outputs": [],
      "stateMutability": "nonpayable",
      "type": "function"
    },
    {
      "inputs": [
        {
          "internalType": "bytes4",
          "name": "interfaceId",
          "type": "bytes4"
        }
      ],
      "name": "supportsInterface",
      "outputs": [
        {
          "internalType": "bool",
          "name": "",
          "type": "bool"
        }
      ],
      "stateMutability": "view",
      "type": "function"
    },
    {
      "inputs": [
        {
          "internalType": "address",
          "name": "newOwner",
          "type": "address"
        }
      ],
      "name": "transferOwnership",
      "outputs": [],
      "stateMutability": "nonpayable",
      "type": "function"
    }
  ],
  "bytecode": "0x608060405234801561001057600080fd5b50604051613a76380380613a7683398101604081905261002f916100d5565b61003833610085565b600280546001600160a01b0384166001600160a01b03198216811783558392916001600160a81b03191617600160a01b83838111156100795761007961011f565b02179055505050610135565b600080546001600160a01b038381166001600160a01b0319831681178455604051919092169283917f8be0079c531659141344cd1fd0a4f28419497f9722a3daafe3b4186f6b6457e09190a35050565b600080604083850312156100e857600080fd5b82516001600160a01b03811681146100ff57600080fd5b60208401519092506003811061011457600080fd5b809150509250929050565b634e487b7160e01b600052602160045260246000fd5b613932806101446000396000f3fe60806040526004361061014c5760003560e01c806373cc4111116100bc57806373cc4111146102f6578063778fe5721461030b578063782e2ea51461031e5780638da5cb5b1461033e57806391d148541461035357806391ee4fd5146103735780639dca003214610386578063a217fddf146103b4578063caead0c7146103c9578063d547741f146103de578063db0bf933146103fe578063e4f11df614610411578063f2fde38b14610424578063f95d71b11461044457600080fd5b806301ffc9a7146101515780630e9ed68b1461018657806313af411b146101a8578063150b7a02146101c9578063202f724f14610202578063248a9ca3146102155780632b553551146102355780632f2ff15d146102575780633276558c1461027757806336568abe1461028c5780635043026c146102ac57806350d17b5e146102c1578063715018a6146102e1575b600080fd5b34801561015d57600080fd5b5061017161016c366004612598565b610464565b60405190151581526020015b60405180910390f35b34801561019257600080fd5b5061019b61049b565b60405161017d91906125c2565b6101bb6101b6366004612b84565b610586565b60405190815260200161017d565b3480156101d557600080fd5b506101e96101e4366004612c32565b610603565b6040516001600160e01b0319909116815260200161017d565b6101bb610210366004612b84565b6106a7565b34801561022157600080fd5b506101bb610230366004612cd1565b6106ba565b34801561024157600080fd5b50610255610250366004612cd1565b6106d0565b005b34801561026357600080fd5b50610255610272366004612cea565b6108ab565b34801561028357600080fd5b5061019b6108cc565b34801561029857600080fd5b506102556102a7366004612cea565b61091e565b3480156102b857600080fd5b5061019b61099c565b3480156102cd57600080fd5b5060025461019b906001600160a01b031681565b3480156102ed57600080fd5b506102556109ee565b34801561030257600080fd5b5061019b610a02565b6101bb610319366004612d3a565b610a54565b34801561032a57600080fd5b50610255610339366004612fb8565b611066565b34801561034a57600080fd5b5061019b611289565b34801561035f57600080fd5b5061017161036e366004612cea565b611298565b6101bb610381366004612ff4565b6112c3565b34801561039257600080fd5b506002546103a790600160a01b900460ff1681565b60405161017d91906130f0565b3480156103c057600080fd5b506101bb600081565b3480156103d557600080fd5b5061019b611965565b3480156103ea57600080fd5b506102556103f9366004612cea565b6119b7565b6101bb61040c3660046130fe565b6119d3565b6101bb61041f36600461323b565b611fdd565b34801561043057600080fd5b5061025561043f36600461334d565b612130565b34801561045057600080fd5b5061025561045f36600461334d565b6121a9565b60006001600160e01b03198216637965db0b60e01b148061049557506301ffc9a760e01b6001600160e01b03198316145b92915050565b6002546040805163da19ddfb60e01b815290516000926001600160a01b031691638e8dfd1691839163da19ddfb9160048083019260209291908290030181865afa1580156104ed573d6000803e3d6000fd5b505050506040513d601f19601f82011682018060405250810190610511919061336a565b60025460405160e084901b6001600160e01b03191681526105409291600160a01b900460ff1690600401613383565b602060405180830381865afa15801561055d573d6000803e3d6000fd5b505050506040513d601f19601f820116820180604052508101906105819190613397565b905090565b6000806040518060a00160405280856000015181526020016040518060400160405280600c81526020016b6e6167612d6b65797365743160a01b815250815260200185602001518152602001856040015181526020016105e461049b565b6001600160a01b0316905290506105fb81846112c3565b949350505050565b600061060d611965565b6001600160a01b0316336001600160a01b0316146106955760405162461bcd60e51b815260206004820152603a60248201527f504b5048656c7065723a206f6e6c792061636365707473207472616e736665726044820152791cc8199c9bdb481d1a19481412d41391950818dbdb9d1c9858dd60321b60648201526084015b60405180910390fd5b50630a85bd0160e11b95945050505050565b60006106b38383610586565b9392505050565b6000908152600160208190526040909120015490565b6002546040805163210b739d60e11b815290516001600160a01b0390921691638e8dfd16918391634216e73a916004808201926020929091908290030181865afa158015610722573d6000803e3d6000fd5b505050506040513d601f19601f82011682018060405250810190610746919061336a565b60025460405160e084901b6001600160e01b03191681526107759291600160a01b900460ff1690600401613383565b602060405180830381865afa158015610792573d6000803e3d6000fd5b505050506040513d601f19601f820116820180604052508101906107b69190613397565b6001600160a01b0316336001600160a01b0316146107e65760405162461bcd60e51b815260040161068c906133b4565b60006107f061099c565b60405163b63a767760e01b8152600481018490529091506001600160a01b0382169063b63a767790602401600060405180830381600087803b15801561083557600080fd5b505af1158015610849573d6000803e3d6000fd5b50506040516328cd10c760e11b8152600481018590526001600160a01b038416925063519a218e9150602401600060405180830381600087803b15801561088f57600080fd5b505af11580156108a3573d6000803e3d6000fd5b505050505050565b6108b4826106ba565b6108bd81612207565b6108c78383612211565b505050565b6002546040805163120e5f0760e31b815290516000926001600160a01b031691638e8dfd16918391639072f8389160048083019260209291908290030181865afa1580156104ed573d6000803e3d6000fd5b6001600160a01b038116331461098e5760405162461bcd60e51b815260206004820152602f60248201527f416363657373436f6e74726f6c3a2063616e206f6e6c792072656e6f756e636560448201526e103937b632b9903337b91039b2b63360891b606482015260840161068c565b610998828261227c565b5050565b600254604080516316f76bbf60e01b815290516000926001600160a01b031691638e8dfd169183916316f76bbf9160048083019260209291908290030181865afa1580156104ed573d6000803e3d6000fd5b6109f66122e3565b610a006000612342565b565b6002546040805163210b739d60e11b815290516000926001600160a01b031691638e8dfd16918391634216e73a9160048083019260209291908290030181865afa1580156104ed573d6000803e3d6000fd5b600080610a5f611965565b83516020850151604051633ff8069760e11b81526001600160a01b039390931692637ff00d2e923492610a9492600401613484565b60206040518083038185885af1158015610ab2573d6000803e3d6000fd5b50505050506040513d601f19601f82011682018060405250810190610ad7919061336a565b905082606001515183604001515114610b025760405162461bcd60e51b815260040161068c9061349d565b8260a001515183608001515114610b2b5760405162461bcd60e51b815260040161068c906134f3565b8260e00151518360c001515114610b545760405162461bcd60e51b815260040161068c90613548565b826101000151518360c001515114610b7e5760405162461bcd60e51b815260040161068c90613591565b826101200151518360c001515114610ba85760405162461bcd60e51b815260040161068c906135dc565b60408301515115610c745760005b836040015151811015610c7257610bcb6108cc565b6001600160a01b0316638a4315788386604001518481518110610bf057610bf0613627565b602002602001015187606001518581518110610c0e57610c0e613627565b60200260200101516040518463ffffffff1660e01b8152600401610c3493929190613679565b600060405180830381600087803b158015610c4e57600080fd5b505af1158015610c62573d6000803e3d6000fd5b505060019092019150610bb69050565b505b60808301515115610d405760005b836080015151811015610d3e57610c976108cc565b6001600160a01b0316631663c1218386608001518481518110610cbc57610cbc613627565b60200260200101518760a001518581518110610cda57610cda613627565b60200260200101516040518463ffffffff1660e01b8152600401610d00939291906136ae565b600060405180830381600087803b158015610d1a57600080fd5b505af1158015610d2e573d6000803e3d6000fd5b505060019092019150610c829050565b505b60c08301515115610e625760005b8360c0015151811015610e6057610d636108cc565b6001600160a01b0316639dd4349b8360405180606001604052808860c001518681518110610d9357610d93613627565b602002602001015181526020018860e001518681518110610db657610db6613627565b602002602001015181526020018861010001518681518110610dda57610dda613627565b60200260200101518152508761012001518581518110610dfc57610dfc613627565b60200260200101516040518463ffffffff1660e01b8152600401610e22939291906136e1565b600060405180830381600087803b158015610e3c57600080fd5b505af1158015610e50573d6000803e3d6000fd5b505060019092019150610d4e9050565b505b6000610e6c6108cc565b6001600160a01b031663bd4986a0836040518263ffffffff1660e01b8152600401610e9991815260200190565b602060405180830381865afa158015610eb6573d6000803e3d6000fd5b505050506040513d601f19601f82011682018060405250810190610eda9190613397565b905083610140015115610f7c57610eef6108cc565b6001600160a01b0316631663c12183836000604051908082528060200260200182016040528015610f2a578160200160208202803683370190505b506040518463ffffffff1660e01b8152600401610f49939291906136ae565b600060405180830381600087803b158015610f6357600080fd5b505af1158015610f77573d6000803e3d6000fd5b505050505b83610160015115610ff557610f8f611965565b6001600160a01b03166342842e0e3083856040518463ffffffff1660e01b8152600401610fbe9392919061373f565b600060405180830381600087803b158015610fd857600080fd5b505af1158015610fec573d6000803e3d6000fd5b5050505061105f565b610ffd611965565b6001600160a01b03166342842e0e3033856040518463ffffffff1660e01b815260040161102c9392919061373f565b600060405180830381600087803b15801561104657600080fd5b505af115801561105a573d6000803e3d6000fd5b505050505b5092915050565b6002546040805163210b739d60e11b815290516001600160a01b0390921691638e8dfd16918391634216e73a916004808201926020929091908290030181865afa1580156110b8573d6000803e3d6000fd5b505050506040513d601f19601f820116820180604052508101906110dc919061336a565b60025460405160e084901b6001600160e01b031916815261110b9291600160a01b900460ff1690600401613383565b602060405180830381865afa158015611128573d6000803e3d6000fd5b505050506040513d601f19601f8201168201806040525081019061114c9190613397565b6001600160a01b0316336001600160a01b03161461117c5760405162461bcd60e51b815260040161068c906133b4565b600061118661099c565b8251909150156108c757806001600160a01b031663855eec2284846000815181106111b3576111b3613627565b60200260200101516040518363ffffffff1660e01b81526004016111d8929190613484565b600060405180830381600087803b1580156111f257600080fd5b505af1158015611206573d6000803e3d6000fd5b50505050806001600160a01b0316639000fee1848460018151811061122d5761122d613627565b60200260200101516040518363ffffffff1660e01b8152600401611252929190613484565b600060405180830381600087803b15801561126c57600080fd5b505af1158015611280573d6000803e3d6000fd5b50505050505050565b6000546001600160a01b031690565b60009182526001602090815260408084206001600160a01b0393909316845291905290205460ff1690565b805182516000911461133d5760405162461bcd60e51b815260206004820152603e60248201527f504b5048656c7065723a20436c61696d206b65792074797065206d757374206d60448201527f617463682041757468204d6574686f642064617461206b657920747970650000606482015260840161068c565b60016000611349611965565b6001600160a01b03166371aa9acf3484886000015189602001518a604001518b606001518c608001516040518863ffffffff1660e01b815260040161139396959493929190613763565b60206040518083038185885af11580156113b1573d6000803e3d6000fd5b50505050506040513d601f19601f820116820180604052508101906113d6919061336a565b9050836040015151846020015151146114015760405162461bcd60e51b815260040161068c9061349d565b8360800151518460600151511461142a5760405162461bcd60e51b815260040161068c906134f3565b8360c00151518460a0015151146114535760405162461bcd60e51b815260040161068c90613548565b8360e00151518460a00151511461147c5760405162461bcd60e51b815260040161068c90613591565b836101000151518460a0015151146114a65760405162461bcd60e51b815260040161068c906135dc565b602084015151156115725760005b846020015151811015611570576114c96108cc565b6001600160a01b0316638a43157883876020015184815181106114ee576114ee613627565b60200260200101518860400151858151811061150c5761150c613627565b60200260200101516040518463ffffffff1660e01b815260040161153293929190613679565b600060405180830381600087803b15801561154c57600080fd5b505af1158015611560573d6000803e3d6000fd5b5050600190920191506114b49050565b505b6060840151511561163e5760005b84606001515181101561163c576115956108cc565b6001600160a01b0316631663c12183876060015184815181106115ba576115ba613627565b6020026020010151886080015185815181106115d8576115d8613627565b60200260200101516040518463ffffffff1660e01b81526004016115fe939291906136ae565b600060405180830381600087803b15801561161857600080fd5b505af115801561162c573d6000803e3d6000fd5b5050600190920191506115809050565b505b60a0840151511561175f5760005b8460a001515181101561175d576116616108cc565b6001600160a01b0316639dd4349b8360405180606001604052808960a00151868151811061169157611691613627565b602002602001015181526020018960c0015186815181106116b4576116b4613627565b602002602001015181526020018960e0015186815181106116d7576116d7613627565b602002602001015181525088610100015185815181106116f9576116f9613627565b60200260200101516040518463ffffffff1660e01b815260040161171f939291906136e1565b600060405180830381600087803b15801561173957600080fd5b505af115801561174d573d6000803e3d6000fd5b50506001909201915061164c9050565b505b60006117696108cc565b6001600160a01b031663bd4986a0836040518263ffffffff1660e01b815260040161179691815260200190565b602060405180830381865afa1580156117b3573d6000803e3d6000fd5b505050506040513d601f19601f820116820180604052508101906117d79190613397565b905084610120015115611879576117ec6108cc565b6001600160a01b0316631663c12183836000604051908082528060200260200182016040528015611827578160200160208202803683370190505b506040518463ffffffff1660e01b8152600401611846939291906136ae565b600060405180830381600087803b15801561186057600080fd5b505af1158015611874573d6000803e3d6000fd5b505050505b846101400151156118f25761188c611965565b6001600160a01b03166342842e0e3083856040518463ffffffff1660e01b81526004016118bb9392919061373f565b600060405180830381600087803b1580156118d557600080fd5b505af11580156118e9573d6000803e3d6000fd5b5050505061195c565b6118fa611965565b6001600160a01b03166342842e0e3033856040518463ffffffff1660e01b81526004016119299392919061373f565b600060405180830381600087803b15801561194357600080fd5b505af1158015611957573d6000803e3d6000fd5b505050505b50949350505050565b60025460408051632c0b8bf760e01b815290516000926001600160a01b031691638e8dfd16918391632c0b8bf79160048083019260209291908290030181865afa1580156104ed573d6000803e3d6000fd5b6119c0826106ba565b6119c981612207565b6108c7838361227c565b6002546040805163210b739d60e11b815290516000926001600160a01b031691638e8dfd16918391634216e73a9160048083019260209291908290030181865afa158015611a25573d6000803e3d6000fd5b505050506040513d601f19601f82011682018060405250810190611a49919061336a565b60025460405160e084901b6001600160e01b0319168152611a789291600160a01b900460ff1690600401613383565b602060405180830381865afa158015611a95573d6000803e3d6000fd5b505050506040513d601f19601f82011682018060405250810190611ab99190613397565b6001600160a01b0316336001600160a01b031614611ae95760405162461bcd60e51b815260040161068c906133b4565b6000611af3611965565b6001600160a01b0316637ff00d2e348d8d6040518463ffffffff1660e01b8152600401611b21929190613484565b60206040518083038185885af1158015611b3f573d6000803e3d6000fd5b50505050506040513d601f19601f82011682018060405250810190611b64919061336a565b90508751895114611b875760405162461bcd60e51b815260040161068c90613548565b8651895114611ba85760405162461bcd60e51b815260040161068c90613591565b8551895114611bc95760405162461bcd60e51b815260040161068c906135dc565b885115611cd15760005b8951811015611ccf57611be46108cc565b6001600160a01b0316639dd4349b8360405180606001604052808e8681518110611c1057611c10613627565b602002602001015181526020018d8681518110611c2f57611c2f613627565b602002602001015181526020018c8681518110611c4e57611c4e613627565b60200260200101518152508a8581518110611c6b57611c6b613627565b60200260200101516040518463ffffffff1660e01b8152600401611c91939291906136e1565b600060405180830381600087803b158015611cab57600080fd5b505af1158015611cbf573d6000803e3d6000fd5b505060019092019150611bd39050565b505b6000611cdb6108cc565b6001600160a01b031663bd4986a0836040518263ffffffff1660e01b8152600401611d0891815260200190565b602060405180830381865afa158015611d25573d6000803e3d6000fd5b505050506040513d601f19601f82011682018060405250810190611d499190613397565b90508415611de657611d596108cc565b6001600160a01b0316631663c12183836000604051908082528060200260200182016040528015611d94578160200160208202803683370190505b506040518463ffffffff1660e01b8152600401611db3939291906136ae565b600060405180830381600087803b158015611dcd57600080fd5b505af1158015611de1573d6000803e3d6000fd5b505050505b8315611e5a57611df4611965565b6001600160a01b03166342842e0e3083856040518463ffffffff1660e01b8152600401611e239392919061373f565b600060405180830381600087803b158015611e3d57600080fd5b505af1158015611e51573d6000803e3d6000fd5b50505050611ec4565b611e62611965565b6001600160a01b03166342842e0e3033856040518463ffffffff1660e01b8152600401611e919392919061373f565b600060405180830381600087803b158015611eab57600080fd5b505af1158015611ebf573d6000803e3d6000fd5b505050505b855115611fce57611ed361099c565b6001600160a01b031663855eec228388600081518110611ef557611ef5613627565b60200260200101516040518363ffffffff1660e01b8152600401611f1a929190613484565b600060405180830381600087803b158015611f3457600080fd5b505af1158015611f48573d6000803e3d6000fd5b50505050611f5461099c565b6001600160a01b0316639000fee18388600181518110611f7657611f76613627565b60200260200101516040518363ffffffff1660e01b8152600401611f9b929190613484565b600060405180830381600087803b158015611fb557600080fd5b505af1158015611fc9573d6000803e3d6000fd5b505050505b509a9950505050505050505050565b6000806040518061018001604052808b81526020018a815260200160006001600160401b03811115612011576120116125d6565b60405190808252806020026020018201604052801561204457816020015b606081526020019060019003908161202f5790505b508152602001600060405190808252806020026020018201604052801561207f57816020015b606081526020019060019003908161206a5790505b50815260200160006040519080825280602002602001820160405280156120b0578160200160208202803683370190505b50815260200160006040519080825280602002602001820160405280156120eb57816020015b60608152602001906001900390816120d65790505b5081526020018981526020018881526020018781526020018681526020018515158152602001841515815250905061212281610a54565b9a9950505050505050505050565b6121386122e3565b6001600160a01b03811661219d5760405162461bcd60e51b815260206004820152602660248201527f4f776e61626c653a206e6577206f776e657220697320746865207a65726f206160448201526564647265737360d01b606482015260840161068c565b6121a681612342565b50565b6121b16122e3565b600280546001600160a01b0319166001600160a01b0383161790556040517f2760073c7cd8cac531d7f643becbfbb74d8b8156443eacf879622532dbbb3cd5906121fc9083906125c2565b60405180910390a150565b6121a68133612392565b61221b8282611298565b6109985760008281526001602081815260408084206001600160a01b0386168086529252808420805460ff19169093179092559051339285917f2f8788117e7eff1d82e926ec794901d17c78024a50270940304540a733656f0d9190a45050565b6122868282611298565b156109985760008281526001602090815260408083206001600160a01b0385168085529252808320805460ff1916905551339285917ff6391f5c32d9c69d2a47ea670b442974b53935d1edc7fd64eb21e047a839171b9190a45050565b336122ec611289565b6001600160a01b031614610a005760405162461bcd60e51b815260206004820181905260248201527f4f776e61626c653a2063616c6c6572206973206e6f7420746865206f776e6572604482015260640161068c565b600080546001600160a01b038381166001600160a01b0319831681178455604051919092169283917f8be0079c531659141344cd1fd0a4f28419497f9722a3daafe3b4186f6b6457e09190a35050565b61239c8282611298565b610998576123a9816123eb565b6123b48360206123fd565b6040516020016123c5929190613803565b60408051601f198184030181529082905262461bcd60e51b825261068c91600401613872565b60606104956001600160a01b03831660145b6060600061240c83600261389b565b6124179060026138b2565b6001600160401b0381111561242e5761242e6125d6565b6040519080825280601f01601f191660200182016040528015612458576020820181803683370190505b509050600360fc1b8160008151811061247357612473613627565b60200101906001600160f81b031916908160001a905350600f60fb1b816001815181106124a2576124a2613627565b60200101906001600160f81b031916908160001a90535060006124c684600261389b565b6124d19060016138b2565b90505b6001811115612549576f181899199a1a9b1b9c1cb0b131b232b360811b85600f166010811061250557612505613627565b1a60f81b82828151811061251b5761251b613627565b60200101906001600160f81b031916908160001a90535060049490941c93612542816138c5565b90506124d4565b5083156106b35760405162461bcd60e51b815260206004820181905260248201527f537472696e67733a20686578206c656e67746820696e73756666696369656e74604482015260640161068c565b6000602082840312156125aa57600080fd5b81356001600160e01b0319811681146106b357600080fd5b6001600160a01b0391909116815260200190565b634e487b7160e01b600052604160045260246000fd5b604051606081016001600160401b038111828210171561260e5761260e6125d6565b60405290565b60405161016081016001600160401b038111828210171561260e5761260e6125d6565b60405161018081016001600160401b038111828210171561260e5761260e6125d6565b60405160a081016001600160401b038111828210171561260e5761260e6125d6565b604051601f8201601f191681016001600160401b03811182821017156126a4576126a46125d6565b604052919050565b60006001600160401b038211156126c5576126c56125d6565b5060051b60200190565b600082601f8301126126e057600080fd5b81356126f36126ee826126ac565b61267c565b8082825260208201915060206060840286010192508583111561271557600080fd5b602085015b83811015612771576060818803121561273257600080fd5b61273a6125ec565b8135815260208083013590820152604082013560ff8116811461275c57600080fd5b6040820152835260209092019160600161271a565b5095945050505050565b6000806001600160401b03841115612795576127956125d6565b50601f8301601f19166020016127aa8161267c565b9150508281528383830111156127bf57600080fd5b828260208301376000602084830101529392505050565b600082601f8301126127e757600080fd5b81356127f56126ee826126ac565b8082825260208201915060208360051b86010192508583111561281757600080fd5b602085015b838110156127715780356001600160401b0381111561283a57600080fd5b8601603f8101881361284b57600080fd5b61285d8860208301356040840161277b565b8452506020928301920161281c565b600082601f83011261287d57600080fd5b813561288b6126ee826126ac565b8082825260208201915060208360051b8601019250858311156128ad57600080fd5b602085015b838110156127715780358352602092830192016128b2565b600082601f8301126128db57600080fd5b81356128e96126ee826126ac565b8082825260208201915060208360051b86010192508583111561290b57600080fd5b602085015b838110156127715780356001600160401b0381111561292e57600080fd5b61293d886020838a010161286c565b84525060209283019201612910565b6001600160a01b03811681146121a657600080fd5b600082601f83011261297257600080fd5b81356129806126ee826126ac565b8082825260208201915060208360051b8601019250858311156129a257600080fd5b602085015b838110156127715780356129ba8161294c565b8352602092830192016129a7565b803580151581146129d857600080fd5b919050565b600061016082840312156129f057600080fd5b6129f8612614565b82358152905060208201356001600160401b03811115612a1757600080fd5b612a23848285016127d6565b60208301525060408201356001600160401b03811115612a4257600080fd5b612a4e848285016128ca565b60408301525060608201356001600160401b03811115612a6d57600080fd5b612a7984828501612961565b60608301525060808201356001600160401b03811115612a9857600080fd5b612aa4848285016128ca565b60808301525060a08201356001600160401b03811115612ac357600080fd5b612acf8482850161286c565b60a08301525060c08201356001600160401b03811115612aee57600080fd5b612afa848285016127d6565b60c08301525060e08201356001600160401b03811115612b1957600080fd5b612b25848285016127d6565b60e0830152506101008201356001600160401b03811115612b4557600080fd5b612b51848285016128ca565b61010083015250612b6561012083016129c8565b610120820152612b7861014083016129c8565b61014082015292915050565b60008060408385031215612b9757600080fd5b82356001600160401b03811115612bad57600080fd5b830160608186031215612bbf57600080fd5b612bc76125ec565b813581526020808301359082015260408201356001600160401b03811115612bee57600080fd5b612bfa878285016126cf565b60408301525092505060208301356001600160401b03811115612c1c57600080fd5b612c28858286016129dd565b9150509250929050565b600080600080600060808688031215612c4a57600080fd5b8535612c558161294c565b94506020860135612c658161294c565b93506040860135925060608601356001600160401b03811115612c8757600080fd5b8601601f81018813612c9857600080fd5b80356001600160401b03811115612cae57600080fd5b886020828401011115612cc057600080fd5b959894975092955050506020019190565b600060208284031215612ce357600080fd5b5035919050565b60008060408385031215612cfd57600080fd5b823591506020830135612d0f8161294c565b809150509250929050565b600082601f830112612d2b57600080fd5b6106b38383356020850161277b565b600060208284031215612d4c57600080fd5b81356001600160401b03811115612d6257600080fd5b82016101808185031215612d7557600080fd5b612d7d612637565b8135815260208201356001600160401b03811115612d9a57600080fd5b612da686828501612d1a565b60208301525060408201356001600160401b03811115612dc557600080fd5b612dd1868285016127d6565b60408301525060608201356001600160401b03811115612df057600080fd5b612dfc868285016128ca565b60608301525060808201356001600160401b03811115612e1b57600080fd5b612e2786828501612961565b60808301525060a08201356001600160401b03811115612e4657600080fd5b612e52868285016128ca565b60a08301525060c08201356001600160401b03811115612e7157600080fd5b612e7d8682850161286c565b60c08301525060e08201356001600160401b03811115612e9c57600080fd5b612ea8868285016127d6565b60e0830152506101008201356001600160401b03811115612ec857600080fd5b612ed4868285016127d6565b610100830152506101208201356001600160401b03811115612ef557600080fd5b612f01868285016128ca565b61012083015250612f1561014083016129c8565b610140820152612f2861016083016129c8565b610160820152949350505050565b600082601f830112612f4757600080fd5b8135612f556126ee826126ac565b8082825260208201915060208360051b860101925085831115612f7757600080fd5b602085015b838110156127715780356001600160401b03811115612f9a57600080fd5b612fa9886020838a0101612d1a565b84525060209283019201612f7c565b60008060408385031215612fcb57600080fd5b8235915060208301356001600160401b03811115612fe857600080fd5b612c2885828601612f36565b6000806040838503121561300757600080fd5b82356001600160401b0381111561301d57600080fd5b830160a0818603121561302f57600080fd5b61303761265a565b8135815260208201356001600160401b0381111561305457600080fd5b61306087828501612d1a565b6020830152506040828101359082015260608201356001600160401b0381111561308957600080fd5b613095878285016126cf565b606083015250608082013591506130ab8261294c565b6080810191909152915060208301356001600160401b03811115612c1c57600080fd5b600381106130ec57634e487b7160e01b600052602160045260246000fd5b9052565b6020810161049582846130ce565b60008060008060008060008060006101208a8c03121561311d57600080fd5b8935985060208a01356001600160401b0381111561313a57600080fd5b6131468c828d01612d1a565b98505060408a01356001600160401b0381111561316257600080fd5b61316e8c828d0161286c565b97505060608a01356001600160401b0381111561318a57600080fd5b6131968c828d016127d6565b96505060808a01356001600160401b038111156131b257600080fd5b6131be8c828d016127d6565b95505060a08a01356001600160401b038111156131da57600080fd5b6131e68c828d016128ca565b94505060c08a01356001600160401b0381111561320257600080fd5b61320e8c828d01612f36565b93505061321d60e08b016129c8565b915061322c6101008b016129c8565b90509295985092959850929598565b600080600080600080600080610100898b03121561325857600080fd5b8835975060208901356001600160401b0381111561327557600080fd5b6132818b828c01612d1a565b97505060408901356001600160401b0381111561329d57600080fd5b6132a98b828c0161286c565b96505060608901356001600160401b038111156132c557600080fd5b6132d18b828c016127d6565b95505060808901356001600160401b038111156132ed57600080fd5b6132f98b828c016127d6565b94505060a08901356001600160401b0381111561331557600080fd5b6133218b828c016128ca565b93505061333060c08a016129c8565b915061333e60e08a016129c8565b90509295985092959890939650565b60006020828403121561335f57600080fd5b81356106b38161294c565b60006020828403121561337c57600080fd5b5051919050565b828152604081016106b360208301846130ce565b6000602082840312156133a957600080fd5b81516106b38161294c565b6020808252605a908201527f504b5048656c7065723a206f6e6c792074686520446f6d61696e2057616c6c6560408201527f7420726567697374727920697320616c6c6f77656420746f206d696e7420646f6060820152796d61696e2077616c6c6574732c2077686f2061726520796f753f60301b608082015260a00190565b60005b8381101561344f578181015183820152602001613437565b50506000910152565b60008151808452613470816020860160208601613434565b601f01601f19169290920160200192915050565b8281526040602082015260006105fb6040830184613458565b60208082526036908201527f504b5048656c7065723a20697066732063696420616e642073636f70652061726040820152750e4c2f240d8cadccee8d0e640daeae6e840dac2e8c6d60531b606082015260800190565b60208082526035908201527f504b5048656c7065723a206164647265737320616e642073636f7065206172726040820152740c2f240d8cadccee8d0e640daeae6e840dac2e8c6d605b1b606082015260800190565b6020808252603b908201526000805160206138dd83398151915260408201527a0d2c840c2e4e4c2f240d8cadccee8d0e640daeae6e840dac2e8c6d602b1b606082015260800190565b6020808252603f908201526000805160206138dd83398151915260408201527f7075626b6579206172726179206c656e67746873206d757374206d6174636800606082015260800190565b6020808252603f908201526000805160206138dd83398151915260408201527f73636f706573206172726179206c656e67746873206d757374206d6174636800606082015260800190565b634e487b7160e01b600052603260045260246000fd5b600081518084526020840193506020830160005b8281101561366f578151865260209586019590910190600101613651565b5093949350505050565b8381526060602082015260006136926060830185613458565b82810360408401526136a4818561363d565b9695505050505050565b8381526001600160a01b03831660208201526060604082018190526000906136d89083018461363d565b95945050505050565b8381526060602082015282516060820152600060208401516060608084015261370d60c0840182613458565b90506040850151605f198483030160a085015261372a8282613458565b91505082810360408401526136a4818561363d565b6001600160a01b039384168152919092166020820152604081019190915260600190565b86815285602082015260c06040820152600061378260c0830187613458565b6060830186905282810360808401528451808252602080870192019060005b818110156137de578351805184526020810151602085015260ff6040820151166040850152506060830192506020840193506001810190506137a1565b50506001600160a01b03851660a085015291506137f89050565b979650505050505050565b76020b1b1b2b9b9a1b7b73a3937b61d1030b1b1b7bab73a1604d1b815260008351613835816017850160208801613434565b7001034b99036b4b9b9b4b733903937b6329607d1b6017918401918201528351613866816028840160208801613434565b01602801949350505050565b6020815260006106b36020830184613458565b634e487b7160e01b600052601160045260246000fd5b808202811582820484141761049557610495613885565b8082018082111561049557610495613885565b6000816138d4576138d4613885565b50600019019056fe504b5048656c7065723a2061757468206d6574686f64207479706520616e6420a264697066735822122001cf4dad4e3b8669662a3414bbd23a6ede2a3734f393956c3e5288072fe553ab64736f6c634300081c0033",
  "linkReferences": {},
  "deployedLinkReferences": {}
}