{
  "_format": "hh-sol-artifact-1",
  "contractName": "PKPNFTMetadata",
  "sourceName": "contracts/lit-node/PKPNFTMetadata.sol",
  "abi": [
    {
      "inputs": [
        {
          "internalType": "address",
          "name": "_resolver",
          "type": "address"
        },
        {
          "internalType": "enum ContractResolver.Env",
          "name": "_env",
          "type": "uint8"
        }
      ],
      "stateMutability": "nonpayable",
      "type": "constructor"
    },
    {
      "inputs": [
        {
          "internalType": "bytes",
          "name": "buffer",
          "type": "bytes"
        }
      ],
      "name": "bytesToHex",
      "outputs": [
        {
          "internalType": "string",
          "name": "",
          "type": "string"
        }
      ],
      "stateMutability": "pure",
      "type": "function"
    },
    {
      "inputs": [],
      "name": "contractResolver",
      "outputs": [
        {
          "internalType": "contract ContractResolver",
          "name": "",
          "type": "address"
        }
      ],
      "stateMutability": "view",
      "type": "function"
    },
    {
      "inputs": [],
      "name": "env",
      "outputs": [
        {
          "internalType": "enum ContractResolver.Env",
          "name": "",
          "type": "uint8"
        }
      ],
      "stateMutability": "view",
      "type": "function"
    },
    {
      "inputs": [
        {
          "internalType": "uint256",
          "name": "tokenId",
          "type": "uint256"
        }
      ],
      "name": "removeProfileForPkp",
      "outputs": [],
      "stateMutability": "nonpayable",
      "type": "function"
    },
    {
      "inputs": [
        {
          "internalType": "uint256",
          "name": "tokenId",
          "type": "uint256"
        }
      ],
      "name": "removeUrlForPKP",
      "outputs": [],
      "stateMutability": "nonpayable",
      "type": "function"
    },
    {
      "inputs": [
        {
          "internalType": "uint256",
          "name": "tokenId",
          "type": "uint256"
        },
        {
          "internalType": "string",
          "name": "imgUrl",
          "type": "string"
        }
      ],
      "name": "setProfileForPKP",
      "outputs": [],
      "stateMutability": "nonpayable",
      "type": "function"
    },
    {
      "inputs": [
        {
          "internalType": "uint256",
          "name": "tokenId",
          "type": "uint256"
        },
        {
          "internalType": "string",
          "name": "url",
          "type": "string"
        }
      ],
      "name": "setUrlForPKP",
      "outputs": [],
      "stateMutability": "nonpayable",
      "type": "function"
    },
    {
      "inputs": [
        {
          "internalType": "uint256",
          "name": "tokenId",
          "type": "uint256"
        },
        {
          "internalType": "bytes",
          "name": "pubKey",
          "type": "bytes"
        },
        {
          "internalType": "address",
          "name": "ethAddress",
          "type": "address"
        }
      ],
      "name": "tokenURI",
      "outputs": [
        {
          "internalType": "string",
          "name": "",
          "type": "string"
        }
      ],
      "stateMutability": "view",
      "type": "function"
    }
  ],
  "bytecode": "0x6080604052348015600f57600080fd5b50604051611c7d380380611c7d833981016040819052602c916076565b600080546001600160a01b0384166001600160a01b03198216811783558392916001600160a81b03191617600160a01b836002811115606b57606b60bd565b0217905550505060d3565b60008060408385031215608857600080fd5b82516001600160a01b0381168114609e57600080fd5b60208401519092506003811060b257600080fd5b809150509250929050565b634e487b7160e01b600052602160045260246000fd5b611b9b806100e26000396000f3fe608060405234801561001057600080fd5b50600436106100785760003560e01c8063451d89fa1461007d57806350d17b5e146100a6578063519a218e146100d1578063855eec22146100e65780639000fee1146100f9578063950462ee1461010c5780639dca00321461011f578063b63a767714610140575b600080fd5b61009061008b366004610fb0565b610153565b60405161009d9190611010565b60405180910390f35b6000546100b9906001600160a01b031681565b6040516001600160a01b03909116815260200161009d565b6100e46100df366004611043565b61030c565b005b6100e46100f436600461105c565b610456565b6100e461010736600461105c565b610589565b61009061011a3660046110ce565b6106b7565b60005461013390600160a01b900460ff1681565b60405161009d919061114a565b6100e461014e366004611043565b6106f3565b6060600082516002610165919061116e565b6001600160401b0381111561017c5761017c610f02565b6040519080825280601f01601f1916602001820160405280156101a6576020820181803683370190505b5060408051808201909152601081526f181899199a1a9b1b9c1cb0b131b232b360811b602082015290915060005b84518110156102e2578182518683815181106101f2576101f2611185565b0160200151610204919060f81c6111b1565b8151811061021457610214611185565b01602001516001600160f81b0319168361022f83600261116e565b8151811061023f5761023f611185565b60200101906001600160f81b031916908160001a90535081825186838151811061026b5761026b611185565b016020015161027d919060f81c6111c5565b8151811061028d5761028d611185565b01602001516001600160f81b031916836102a883600261116e565b6102b39060016111d9565b815181106102c3576102c3611185565b60200101906001600160f81b031916908160001a9053506001016101d4565b50816040516020016102f49190611208565b60405160208183030381529060405292505050919050565b60005460408051630977a80760e41b815290516001600160a01b0390921691638e8dfd1691839163977a8070916004808201926020929091908290030181865afa15801561035e573d6000803e3d6000fd5b505050506040513d601f19601f820116820180604052508101906103829190611232565b60005460405160e084901b6001600160e01b03191681526103b19291600160a01b900460ff169060040161124b565b602060405180830381865afa1580156103ce573d6000803e3d6000fd5b505050506040513d601f19601f820116820180604052508101906103f2919061125f565b6001600160a01b0316336001600160a01b03161461042b5760405162461bcd60e51b81526004016104229061127c565b60405180910390fd5b60408051602080820183526000808352848152600190915291909120906104529082611376565b5050565b60005460408051630977a80760e41b815290516001600160a01b0390921691638e8dfd1691839163977a8070916004808201926020929091908290030181865afa1580156104a8573d6000803e3d6000fd5b505050506040513d601f19601f820116820180604052508101906104cc9190611232565b60005460405160e084901b6001600160e01b03191681526104fb9291600160a01b900460ff169060040161124b565b602060405180830381865afa158015610518573d6000803e3d6000fd5b505050506040513d601f19601f8201168201806040525081019061053c919061125f565b6001600160a01b0316336001600160a01b03161461056c5760405162461bcd60e51b81526004016104229061127c565b60008281526001602052604090206105848282611376565b505050565b60005460408051630977a80760e41b815290516001600160a01b0390921691638e8dfd1691839163977a8070916004808201926020929091908290030181865afa1580156105db573d6000803e3d6000fd5b505050506040513d601f19601f820116820180604052508101906105ff9190611232565b60005460405160e084901b6001600160e01b031916815261062e9291600160a01b900460ff169060040161124b565b602060405180830381865afa15801561064b573d6000803e3d6000fd5b505050506040513d601f19601f8201168201806040525081019061066f919061125f565b6001600160a01b0316336001600160a01b03161461069f5760405162461bcd60e51b81526004016104229061127c565b60008281526002602052604090206105848282611376565b606060006106c6858585610830565b9050806040516020016106d99190611434565b6040516020818303038152906040529150505b9392505050565b60005460408051630977a80760e41b815290516001600160a01b0390921691638e8dfd1691839163977a8070916004808201926020929091908290030181865afa158015610745573d6000803e3d6000fd5b505050506040513d601f19601f820116820180604052508101906107699190611232565b60005460405160e084901b6001600160e01b03191681526107989291600160a01b900460ff169060040161124b565b602060405180830381865afa1580156107b5573d6000803e3d6000fd5b505050506040513d601f19601f820116820180604052508101906107d9919061125f565b6001600160a01b0316336001600160a01b0316146108095760405162461bcd60e51b81526004016104229061127c565b60408051602080820183526000808352848152600290915291909120906104529082611376565b6060600060405180610480016040528061045681526020016116d061045691399050600061085d85610153565b9050600061086a85610a84565b9050600061087788610aa0565b600089815260016020526040812080549293509091610895906112ee565b80601f01602080910402602001604051908101604052809291908181526020018280546108c1906112ee565b801561090e5780601f106108e35761010080835404028352916020019161090e565b820191906000526020600020905b8154815290600101906020018083116108f157829003601f168201915b505050505090506000600260008b81526020019081526020016000208054610935906112ee565b80601f0160208091040260200160405190810160405280929190818152602001828054610961906112ee565b80156109ae5780601f10610983576101008083540402835291602001916109ae565b820191906000526020600020905b81548152906001019060200180831161099157829003601f168201915b50505050509050815160001480156109c65750805115155b156109f257826040516020016109dc9190611479565b6040516020818303038152906040529150610a46565b815115801590610a0157508051155b15610a0d575084610a46565b8151158015610a1b57508051155b15610a465782604051602001610a319190611479565b60405160208183030381529060405291508590505b610a768282878787604051602001610a629594939291906114aa565b604051602081830303815290604052610b32565b9a9950505050505050505050565b6060610a9a6001600160a01b0383166014610c91565b92915050565b60606000610aad83610e2c565b60010190506000816001600160401b03811115610acc57610acc610f02565b6040519080825280601f01601f191660200182016040528015610af6576020820181803683370190505b5090508181016020015b600019016f181899199a1a9b1b9c1cb0b131b232b360811b600a86061a8153600a8504945084610b0057509392505050565b60608151600003610b5157505060408051602081019091526000815290565b6000604051806060016040528060408152602001611b266040913990506000600384516002610b8091906111d9565b610b8a91906111b1565b610b9590600461116e565b6001600160401b03811115610bac57610bac610f02565b6040519080825280601f01601f191660200182016040528015610bd6576020820181803683370190505b50905060018201602082018586518701602081018051600082525b82841015610c4c576003840193508351603f8160121c168701518653600186019550603f81600c1c168701518653600186019550603f8160061c168701518653600186019550603f8116870151865350600185019450610bf1565b9052505085516003900660018114610c6b5760028114610c7e57610c86565b603d6001830353603d6002830353610c86565b603d60018303535b509195945050505050565b60606000610ca083600261116e565b610cab9060026111d9565b6001600160401b03811115610cc257610cc2610f02565b6040519080825280601f01601f191660200182016040528015610cec576020820181803683370190505b509050600360fc1b81600081518110610d0757610d07611185565b60200101906001600160f81b031916908160001a905350600f60fb1b81600181518110610d3657610d36611185565b60200101906001600160f81b031916908160001a9053506000610d5a84600261116e565b610d659060016111d9565b90505b6001811115610ddd576f181899199a1a9b1b9c1cb0b131b232b360811b85600f1660108110610d9957610d99611185565b1a60f81b828281518110610daf57610daf611185565b60200101906001600160f81b031916908160001a90535060049490941c93610dd6816116b8565b9050610d68565b5083156106ec5760405162461bcd60e51b815260206004820181905260248201527f537472696e67733a20686578206c656e67746820696e73756666696369656e746044820152606401610422565b60008072184f03e93ff9f4daa797ed6e38ed64bf6a1f0160401b8310610e6b5772184f03e93ff9f4daa797ed6e38ed64bf6a1f0160401b830492506040015b6904ee2d6d415b85acef8160201b8310610e95576904ee2d6d415b85acef8160201b830492506020015b662386f26fc100008310610eb357662386f26fc10000830492506010015b6305f5e1008310610ecb576305f5e100830492506008015b6127108310610edf57612710830492506004015b60648310610ef1576064830492506002015b600a8310610a9a5760010192915050565b634e487b7160e01b600052604160045260246000fd5b6000806001600160401b03841115610f3257610f32610f02565b50604051601f19601f85018116603f011681018181106001600160401b0382111715610f6057610f60610f02565b604052838152905080828401851015610f7857600080fd5b83836020830137600060208583010152509392505050565b600082601f830112610fa157600080fd5b6106ec83833560208501610f18565b600060208284031215610fc257600080fd5b81356001600160401b03811115610fd857600080fd5b610fe484828501610f90565b949350505050565b60005b83811015611007578181015183820152602001610fef565b50506000910152565b602081526000825180602084015261102f816040850160208701610fec565b601f01601f19169190910160400192915050565b60006020828403121561105557600080fd5b5035919050565b6000806040838503121561106f57600080fd5b8235915060208301356001600160401b0381111561108c57600080fd5b8301601f8101851361109d57600080fd5b6110ac85823560208401610f18565b9150509250929050565b6001600160a01b03811681146110cb57600080fd5b50565b6000806000606084860312156110e357600080fd5b8335925060208401356001600160401b0381111561110057600080fd5b61110c86828701610f90565b925050604084013561111d816110b6565b809150509250925092565b6003811061114657634e487b7160e01b600052602160045260246000fd5b9052565b60208101610a9a8284611128565b634e487b7160e01b600052601160045260246000fd5b8082028115828204841417610a9a57610a9a611158565b634e487b7160e01b600052603260045260246000fd5b634e487b7160e01b600052601260045260246000fd5b6000826111c0576111c061119b565b500490565b6000826111d4576111d461119b565b500690565b80820180821115610a9a57610a9a611158565b600081516111fe818560208601610fec565b9290920192915050565b61060f60f31b815260008251611225816002850160208701610fec565b9190910160020192915050565b60006020828403121561124457600080fd5b5051919050565b828152604081016106ec6020830184611128565b60006020828403121561127157600080fd5b81516106ec816110b6565b6020808252604c908201527f504b5048656c7065723a206f6e6c792074686520446f6d61696e2057616c6c6560408201527f7420726567697374727920697320616c6c6f77656420746f206d696e7420646f60608201526b6d61696e2077616c6c65747360a01b608082015260a00190565b600181811c9082168061130257607f821691505b60208210810361132257634e487b7160e01b600052602260045260246000fd5b50919050565b601f82111561058457806000526020600020601f840160051c8101602085101561134f5750805b601f840160051c820191505b8181101561136f576000815560010161135b565b5050505050565b81516001600160401b0381111561138f5761138f610f02565b6113a38161139d84546112ee565b84611328565b6020601f8211600181146113d757600083156113bf5750848201515b600019600385901b1c1916600184901b17845561136f565b600084815260208120601f198516915b8281101561140757878501518255602094850194600190920191016113e7565b50848210156114255786840151600019600387901b60f8161c191681555b50505050600190811b01905550565b7f646174613a6170706c69636174696f6e2f6a736f6e3b6261736536342c00000081526000825161146c81601d850160208701610fec565b91909101601d0192915050565b684c697420504b50202360b81b81526000825161149d816009850160208701610fec565b9190910160090192915050565b683d913730b6b2911d1160b91b815285516000906114cf816009850160208b01610fec565b7f222c20226465736372697074696f6e223a202254686973204e465420656e74696009918401918201527f746c65732074686520686f6c64657220746f207573652061204c69742050726f60298201527f746f636f6c20504b502c20616e6420746f206772616e7420616363657373207460498201527f6f206f7468657220757365727320616e64204c697420416374696f6e7320746f60698201527f20757365207468697320504b50222c22696d6167655f64617461223a20220000608982015286516115a48160a7840160208b01610fec565b6009818301019150507f222c2261747472696275746573223a205b7b2274726169745f74797065223a20609e8201527711283ab13634b19025b2bc911610113b30b63ab2911d101160411b60be8201526116ac61169c61169661165b61165561161060d687018c6111ec565b7f227d2c207b2274726169745f74797065223a20224554482057616c6c6574204181527232323932b9b9911610113b30b63ab2911d101160691b602082015260330190565b896111ec565b7f227d2c207b2274726169745f74797065223a2022546f6b656e204944222c20228152683b30b63ab2911d101160b91b602082015260290190565b866111ec565b63227d5d7d60e01b815260040190565b98975050505050505050565b6000816116c7576116c7611158565b50600019019056fe3c73766720786d6c6e733d27687474703a2f2f7777772e77332e6f72672f323030302f737667272077696474683d273130383027206865696768743d2731303830272066696c6c3d276e6f6e652720786d6c6e733a763d2768747470733a2f2f76656374612e696f2f6e616e6f273e3c7061746820643d274d3336332e303736203339322e323237732d2e3937372031382e3532342d33362e3837342037382e393437632d34312e3537362037302e3031382d34352e343831203135312e3937382d332e303137203232302e342038392e353231203134342e323435203333322e343831203134312e3532203432322e3535362e3038392033342e3833322d35342e3730372034342e3831362d3131372e3437392033322e3932342d3138312e323438203020302d32382e3831392d3133332e3134342d3132372e3233372d3231372e30393920312e35353320312e33303820352e3336392031392e31323220362e3130312032362e37323220322e3234312032332e3335342e3034352034372e3833382d372e3738372037302e3036322d352e3734362031362e33332d31332e3731312033302e3436372d32372e3137382034312e33363820302d332e3831312d2e3935342d31302e3633352d2e3937362d31322e3931382d2e3634342d34362e3530382d31382e3635392d38392e3538322d34382e3031312d3132352e3734332d32352e3634372d33312e3535322d36302e3831322d35332e3038392d39372e38342d36382e3933322e39333120332e31393120322e3636322031362e34313920322e3930362031392e30333320312e3930382032312e39353820322e3236332035322e3731332d2e3632312037342e363439732d372e3833322033332e3837382d31342e3535342035342e343431632d31302e3138342033312e3137352d32342e30352035342e3238352d34312e3632312038322e3030342d332e323420352e3039362d31322e3931332031392e3037382d31382e3038322032362e313436203020302d382e3839372d35362e3139312d34302e3636372d38372e393231682d2e3032327a272066696c6c3d2723303030272f3e3c7061746820643d274d3536322e352032372e32386c3431302e323739203233362e3837346331332e39323320382e3033392032322e352032322e3839352032322e352033382e393731763437332e373563302031362e3037362d382e3537372033302e3933322d32322e352033382e3937314c3536322e3520313035322e3732632d31332e39323320382e30342d33312e30373720382e30342d343520304c3130372e323231203831352e383436632d31332e3932332d382e3033392d32322e352d32322e3839352d32322e352d33382e393731762d3437332e37356134352034352030203020312032322e352d33382e3937314c3531372e352032372e323861343520343520302030203120343520307a27207374726f6b653d272330303027207374726f6b652d77696474683d2732342e3735272f3e3c2f7376673e4142434445464748494a4b4c4d4e4f505152535455565758595a6162636465666768696a6b6c6d6e6f707172737475767778797a303132333435363738392b2fa26469706673582212208f1399b085bffde06578f1dd04ad36217eed47fba06d75a31f5ce9e67151788264736f6c634300081c0033",
  "linkReferences": {},
  "deployedLinkReferences": {}
}