{
  "_format": "hh-sol-artifact-1",
  "contractName": "ReleaseRegister",
  "sourceName": "contracts/lit-core/ReleaseRegister.sol",
  "abi": [
    {
      "inputs": [
        {
          "internalType": "enum ReleaseRegister.Env",
          "name": "env",
          "type": "uint8"
        }
      ],
      "stateMutability": "nonpayable",
      "type": "constructor"
    },
    {
      "inputs": [],
      "name": "ActivatorRoleRequired",
      "type": "error"
    },
    {
      "inputs": [],
      "name": "AdminRoleRequired",
      "type": "error"
    },
    {
      "inputs": [],
      "name": "BurnerRoleRequired",
      "type": "error"
    },
    {
      "inputs": [],
      "name": "CreatorRoleRequired",
      "type": "error"
    },
    {
      "inputs": [],
      "name": "DeactivatorRoleRequired",
      "type": "error"
    },
    {
      "inputs": [],
      "name": "InvalidEnv",
      "type": "error"
    },
    {
      "inputs": [],
      "name": "InvalidStatus",
      "type": "error"
    },
    {
      "inputs": [],
      "name": "ReleaseNotFound",
      "type": "error"
    },
    {
      "anonymous": false,
      "inputs": [
        {
          "indexed": false,
          "internalType": "bytes",
          "name": "pubKey",
          "type": "bytes"
        }
      ],
      "name": "AllowedAdminSigningPublicKeyAdded",
      "type": "event"
    },
    {
      "anonymous": false,
      "inputs": [
        {
          "indexed": false,
          "internalType": "bytes",
          "name": "pubKey",
          "type": "bytes"
        }
      ],
      "name": "AllowedAdminSigningPublicKeyRemoved",
      "type": "event"
    },
    {
      "anonymous": false,
      "inputs": [
        {
          "indexed": false,
          "internalType": "bytes",
          "name": "digest",
          "type": "bytes"
        }
      ],
      "name": "AllowedAuthorKeyDigestAdded",
      "type": "event"
    },
    {
      "anonymous": false,
      "inputs": [
        {
          "indexed": false,
          "internalType": "bytes",
          "name": "digest",
          "type": "bytes"
        }
      ],
      "name": "AllowedAuthorKeyDigestRemoved",
      "type": "event"
    },
    {
      "anonymous": false,
      "inputs": [
        {
          "indexed": false,
          "internalType": "enum ReleaseRegister.Env",
          "name": "env",
          "type": "uint8"
        }
      ],
      "name": "AllowedEnvAdded",
      "type": "event"
    },
    {
      "anonymous": false,
      "inputs": [
        {
          "indexed": false,
          "internalType": "enum ReleaseRegister.Env",
          "name": "env",
          "type": "uint8"
        }
      ],
      "name": "AllowedEnvRemoved",
      "type": "event"
    },
    {
      "anonymous": false,
      "inputs": [
        {
          "indexed": false,
          "internalType": "address",
          "name": "subnet",
          "type": "address"
        }
      ],
      "name": "AllowedSubnetAdded",
      "type": "event"
    },
    {
      "anonymous": false,
      "inputs": [
        {
          "indexed": false,
          "internalType": "address",
          "name": "subnet",
          "type": "address"
        }
      ],
      "name": "AllowedSubnetRemoved",
      "type": "event"
    },
    {
      "anonymous": false,
      "inputs": [
        {
          "indexed": false,
          "internalType": "bytes",
          "name": "domain",
          "type": "bytes"
        },
        {
          "indexed": false,
          "internalType": "bytes",
          "name": "authorKeyDigest",
          "type": "bytes"
        }
      ],
      "name": "InitCreator",
      "type": "event"
    },
    {
      "anonymous": false,
      "inputs": [
        {
          "indexed": false,
          "internalType": "bytes32",
          "name": "releaseId",
          "type": "bytes32"
        }
      ],
      "name": "ReleaseBurned",
      "type": "event"
    },
    {
      "anonymous": false,
      "inputs": [
        {
          "indexed": false,
          "internalType": "bytes32",
          "name": "releaseId",
          "type": "bytes32"
        },
        {
          "indexed": false,
          "internalType": "enum ReleaseRegister.Status",
          "name": "status",
          "type": "uint8"
        },
        {
          "indexed": false,
          "internalType": "enum ReleaseRegister.Env",
          "name": "env",
          "type": "uint8"
        },
        {
          "indexed": false,
          "internalType": "enum ReleaseRegister.Type",
          "name": "typ",
          "type": "uint8"
        },
        {
          "indexed": false,
          "internalType": "bytes",
          "name": "kind",
          "type": "bytes"
        },
        {
          "indexed": false,
          "internalType": "uint256",
          "name": "date",
          "type": "uint256"
        },
        {
          "indexed": false,
          "internalType": "enum ReleaseRegister.Platform",
          "name": "platform",
          "type": "uint8"
        },
        {
          "indexed": false,
          "internalType": "uint256",
          "name": "options",
          "type": "uint256"
        },
        {
          "indexed": false,
          "internalType": "bytes",
          "name": "id_key_digest",
          "type": "bytes"
        },
        {
          "indexed": false,
          "internalType": "bytes",
          "name": "public_key",
          "type": "bytes"
        },
        {
          "indexed": false,
          "internalType": "bytes",
          "name": "cid",
          "type": "bytes"
        }
      ],
      "name": "ReleaseCreated",
      "type": "event"
    },
    {
      "anonymous": false,
      "inputs": [
        {
          "indexed": false,
          "internalType": "bytes32",
          "name": "releaseId",
          "type": "bytes32"
        },
        {
          "indexed": false,
          "internalType": "enum ReleaseRegister.Status",
          "name": "status",
          "type": "uint8"
        }
      ],
      "name": "ReleaseStatusChange",
      "type": "event"
    },
    {
      "anonymous": false,
      "inputs": [
        {
          "indexed": true,
          "internalType": "bytes32",
          "name": "role",
          "type": "bytes32"
        },
        {
          "indexed": true,
          "internalType": "bytes32",
          "name": "previousAdminRole",
          "type": "bytes32"
        },
        {
          "indexed": true,
          "internalType": "bytes32",
          "name": "newAdminRole",
          "type": "bytes32"
        }
      ],
      "name": "RoleAdminChanged",
      "type": "event"
    },
    {
      "anonymous": false,
      "inputs": [
        {
          "indexed": true,
          "internalType": "bytes32",
          "name": "role",
          "type": "bytes32"
        },
        {
          "indexed": true,
          "internalType": "address",
          "name": "account",
          "type": "address"
        },
        {
          "indexed": true,
          "internalType": "address",
          "name": "sender",
          "type": "address"
        }
      ],
      "name": "RoleGranted",
      "type": "event"
    },
    {
      "anonymous": false,
      "inputs": [
        {
          "indexed": true,
          "internalType": "bytes32",
          "name": "role",
          "type": "bytes32"
        },
        {
          "indexed": true,
          "internalType": "address",
          "name": "account",
          "type": "address"
        },
        {
          "indexed": true,
          "internalType": "address",
          "name": "sender",
          "type": "address"
        }
      ],
      "name": "RoleRevoked",
      "type": "event"
    },
    {
      "inputs": [],
      "name": "ACTIVATOR_ROLE",
      "outputs": [
        {
          "internalType": "bytes32",
          "name": "",
          "type": "bytes32"
        }
      ],
      "stateMutability": "view",
      "type": "function"
    },
    {
      "inputs": [],
      "name": "ADMIN_ROLE",
      "outputs": [
        {
          "internalType": "bytes32",
          "name": "",
          "type": "bytes32"
        }
      ],
      "stateMutability": "view",
      "type": "function"
    },
    {
      "inputs": [],
      "name": "BURNER_ROLE",
      "outputs": [
        {
          "internalType": "bytes32",
          "name": "",
          "type": "bytes32"
        }
      ],
      "stateMutability": "view",
      "type": "function"
    },
    {
      "inputs": [],
      "name": "CREATOR_ROLE",
      "outputs": [
        {
          "internalType": "bytes32",
          "name": "",
          "type": "bytes32"
        }
      ],
      "stateMutability": "view",
      "type": "function"
    },
    {
      "inputs": [],
      "name": "DEACTIVATOR_ROLE",
      "outputs": [
        {
          "internalType": "bytes32",
          "name": "",
          "type": "bytes32"
        }
      ],
      "stateMutability": "view",
      "type": "function"
    },
    {
      "inputs": [],
      "name": "DEFAULT_ADMIN_ROLE",
      "outputs": [
        {
          "internalType": "bytes32",
          "name": "",
          "type": "bytes32"
        }
      ],
      "stateMutability": "view",
      "type": "function"
    },
    {
      "inputs": [],
      "name": "RELEASE_OPTION_RO",
      "outputs": [
        {
          "internalType": "uint256",
          "name": "",
          "type": "uint256"
        }
      ],
      "stateMutability": "view",
      "type": "function"
    },
    {
      "inputs": [],
      "name": "RELEASE_OPTION_SSH",
      "outputs": [
        {
          "internalType": "uint256",
          "name": "",
          "type": "uint256"
        }
      ],
      "stateMutability": "view",
      "type": "function"
    },
    {
      "inputs": [],
      "name": "RELEASE_OPTION_USERS",
      "outputs": [
        {
          "internalType": "uint256",
          "name": "",
          "type": "uint256"
        }
      ],
      "stateMutability": "view",
      "type": "function"
    },
    {
      "inputs": [
        {
          "internalType": "bytes",
          "name": "pubKey",
          "type": "bytes"
        }
      ],
      "name": "addAllowedAdminSigningPublicKey",
      "outputs": [],
      "stateMutability": "nonpayable",
      "type": "function"
    },
    {
      "inputs": [
        {
          "internalType": "enum ReleaseRegister.Env",
          "name": "env",
          "type": "uint8"
        }
      ],
      "name": "addAllowedEnv",
      "outputs": [],
      "stateMutability": "nonpayable",
      "type": "function"
    },
    {
      "inputs": [
        {
          "internalType": "address",
          "name": "subnet",
          "type": "address"
        }
      ],
      "name": "addAllowedSubnet",
      "outputs": [],
      "stateMutability": "nonpayable",
      "type": "function"
    },
    {
      "inputs": [
        {
          "internalType": "bytes32",
          "name": "releaseId",
          "type": "bytes32"
        }
      ],
      "name": "burnRelease",
      "outputs": [],
      "stateMutability": "nonpayable",
      "type": "function"
    },
    {
      "inputs": [
        {
          "internalType": "bytes32",
          "name": "releaseId",
          "type": "bytes32"
        },
        {
          "internalType": "enum ReleaseRegister.Status",
          "name": "status",
          "type": "uint8"
        },
        {
          "internalType": "enum ReleaseRegister.Env",
          "name": "env",
          "type": "uint8"
        },
        {
          "internalType": "enum ReleaseRegister.Type",
          "name": "typ",
          "type": "uint8"
        },
        {
          "internalType": "bytes",
          "name": "kind",
          "type": "bytes"
        },
        {
          "internalType": "enum ReleaseRegister.Platform",
          "name": "platform",
          "type": "uint8"
        },
        {
          "internalType": "uint256",
          "name": "options",
          "type": "uint256"
        },
        {
          "internalType": "bytes",
          "name": "id_key_digest",
          "type": "bytes"
        },
        {
          "internalType": "bytes",
          "name": "public_key",
          "type": "bytes"
        },
        {
          "internalType": "bytes",
          "name": "cid",
          "type": "bytes"
        },
        {
          "internalType": "uint256",
          "name": "date",
          "type": "uint256"
        }
      ],
      "name": "createRelease",
      "outputs": [],
      "stateMutability": "nonpayable",
      "type": "function"
    },
    {
      "inputs": [
        {
          "internalType": "enum ReleaseRegister.Env",
          "name": "env",
          "type": "uint8"
        },
        {
          "internalType": "enum ReleaseRegister.Type",
          "name": "typ",
          "type": "uint8"
        },
        {
          "internalType": "bytes",
          "name": "kind",
          "type": "bytes"
        },
        {
          "internalType": "enum ReleaseRegister.Platform",
          "name": "platform",
          "type": "uint8"
        }
      ],
      "name": "getActiveRelease",
      "outputs": [
        {
          "internalType": "bytes32",
          "name": "",
          "type": "bytes32"
        }
      ],
      "stateMutability": "view",
      "type": "function"
    },
    {
      "inputs": [],
      "name": "getActiveReleases",
      "outputs": [
        {
          "internalType": "bytes32[]",
          "name": "",
          "type": "bytes32[]"
        }
      ],
      "stateMutability": "view",
      "type": "function"
    },
    {
      "inputs": [],
      "name": "getCreatorDomain",
      "outputs": [
        {
          "internalType": "bytes",
          "name": "",
          "type": "bytes"
        }
      ],
      "stateMutability": "view",
      "type": "function"
    },
    {
      "inputs": [
        {
          "internalType": "bytes32",
          "name": "releaseId",
          "type": "bytes32"
        }
      ],
      "name": "getRelease",
      "outputs": [
        {
          "components": [
            {
              "internalType": "enum ReleaseRegister.Status",
              "name": "status",
              "type": "uint8"
            },
            {
              "internalType": "enum ReleaseRegister.Env",
              "name": "env",
              "type": "uint8"
            },
            {
              "internalType": "enum ReleaseRegister.Type",
              "name": "typ",
              "type": "uint8"
            },
            {
              "internalType": "bytes",
              "name": "kind",
              "type": "bytes"
            },
            {
              "internalType": "uint256",
              "name": "date",
              "type": "uint256"
            },
            {
              "internalType": "enum ReleaseRegister.Platform",
              "name": "platform",
              "type": "uint8"
            },
            {
              "internalType": "uint256",
              "name": "options",
              "type": "uint256"
            },
            {
              "internalType": "bytes",
              "name": "id_key_digest",
              "type": "bytes"
            },
            {
              "internalType": "bytes",
              "name": "public_key",
              "type": "bytes"
            },
            {
              "internalType": "bytes",
              "name": "cid",
              "type": "bytes"
            }
          ],
          "internalType": "struct ReleaseRegister.Release",
          "name": "",
          "type": "tuple"
        }
      ],
      "stateMutability": "view",
      "type": "function"
    },
    {
      "inputs": [
        {
          "internalType": "bytes32",
          "name": "role",
          "type": "bytes32"
        }
      ],
      "name": "getRoleAdmin",
      "outputs": [
        {
          "internalType": "bytes32",
          "name": "",
          "type": "bytes32"
        }
      ],
      "stateMutability": "view",
      "type": "function"
    },
    {
      "inputs": [
        {
          "internalType": "bytes32",
          "name": "role",
          "type": "bytes32"
        },
        {
          "internalType": "address",
          "name": "account",
          "type": "address"
        }
      ],
      "name": "grantRole",
      "outputs": [],
      "stateMutability": "nonpayable",
      "type": "function"
    },
    {
      "inputs": [
        {
          "internalType": "bytes",
          "name": "pubKey",
          "type": "bytes"
        }
      ],
      "name": "hasAllowedAdminSigningPublicKey",
      "outputs": [
        {
          "internalType": "bool",
          "name": "",
          "type": "bool"
        }
      ],
      "stateMutability": "view",
      "type": "function"
    },
    {
      "inputs": [
        {
          "internalType": "bytes",
          "name": "digest",
          "type": "bytes"
        }
      ],
      "name": "hasAllowedAuthorKeyDigest",
      "outputs": [
        {
          "internalType": "bool",
          "name": "",
          "type": "bool"
        }
      ],
      "stateMutability": "view",
      "type": "function"
    },
    {
      "inputs": [
        {
          "internalType": "enum ReleaseRegister.Env",
          "name": "env",
          "type": "uint8"
        }
      ],
      "name": "hasAllowedEnv",
      "outputs": [
        {
          "internalType": "bool",
          "name": "",
          "type": "bool"
        }
      ],
      "stateMutability": "view",
      "type": "function"
    },
    {
      "inputs": [
        {
          "internalType": "address",
          "name": "subnet",
          "type": "address"
        }
      ],
      "name": "hasAllowedSubnet",
      "outputs": [
        {
          "internalType": "bool",
          "name": "",
          "type": "bool"
        }
      ],
      "stateMutability": "view",
      "type": "function"
    },
    {
      "inputs": [],
      "name": "hasCreatorInit",
      "outputs": [
        {
          "internalType": "bool",
          "name": "",
          "type": "bool"
        }
      ],
      "stateMutability": "view",
      "type": "function"
    },
    {
      "inputs": [
        {
          "internalType": "bytes32",
          "name": "role",
          "type": "bytes32"
        },
        {
          "internalType": "address",
          "name": "account",
          "type": "address"
        }
      ],
      "name": "hasRole",
      "outputs": [
        {
          "internalType": "bool",
          "name": "",
          "type": "bool"
        }
      ],
      "stateMutability": "view",
      "type": "function"
    },
    {
      "inputs": [
        {
          "internalType": "enum ReleaseRegister.Env",
          "name": "env",
          "type": "uint8"
        },
        {
          "internalType": "address",
          "name": "subnetId",
          "type": "address"
        },
        {
          "internalType": "bytes",
          "name": "domain",
          "type": "bytes"
        },
        {
          "internalType": "bytes",
          "name": "authorKeyDigest",
          "type": "bytes"
        }
      ],
      "name": "initCreator",
      "outputs": [],
      "stateMutability": "nonpayable",
      "type": "function"
    },
    {
      "inputs": [
        {
          "internalType": "bytes",
          "name": "pubKey",
          "type": "bytes"
        }
      ],
      "name": "removeAllowedAdminSigningPublicKey",
      "outputs": [],
      "stateMutability": "nonpayable",
      "type": "function"
    },
    {
      "inputs": [
        {
          "internalType": "enum ReleaseRegister.Env",
          "name": "env",
          "type": "uint8"
        }
      ],
      "name": "removeAllowedEnv",
      "outputs": [],
      "stateMutability": "nonpayable",
      "type": "function"
    },
    {
      "inputs": [
        {
          "internalType": "address",
          "name": "subnet",
          "type": "address"
        }
      ],
      "name": "removeAllowedSubnet",
      "outputs": [],
      "stateMutability": "nonpayable",
      "type": "function"
    },
    {
      "inputs": [
        {
          "internalType": "bytes32",
          "name": "role",
          "type": "bytes32"
        },
        {
          "internalType": "address",
          "name": "account",
          "type": "address"
        }
      ],
      "name": "renounceRole",
      "outputs": [],
      "stateMutability": "nonpayable",
      "type": "function"
    },
    {
      "inputs": [
        {
          "internalType": "bytes32",
          "name": "role",
          "type": "bytes32"
        },
        {
          "internalType": "address",
          "name": "account",
          "type": "address"
        }
      ],
      "name": "revokeRole",
      "outputs": [],
      "stateMutability": "nonpayable",
      "type": "function"
    },
    {
      "inputs": [
        {
          "internalType": "bytes32",
          "name": "releaseId",
          "type": "bytes32"
        },
        {
          "internalType": "enum ReleaseRegister.Status",
          "name": "status",
          "type": "uint8"
        }
      ],
      "name": "setReleaseStatus",
      "outputs": [],
      "stateMutability": "nonpayable",
      "type": "function"
    },
    {
      "inputs": [
        {
          "internalType": "bytes4",
          "name": "interfaceId",
          "type": "bytes4"
        }
      ],
      "name": "supportsInterface",
      "outputs": [
        {
          "internalType": "bool",
          "name": "",
          "type": "bool"
        }
      ],
      "stateMutability": "view",
      "type": "function"
    }
  ],
  "bytecode": "0x608060405234801561001057600080fd5b506040516133ee3803806133ee83398101604081905261002f916102c1565b6100476000805160206133ce833981519152336101ca565b61005f6000805160206133ce833981519152806101d8565b6100977f3c2519c4487d47714872f92cf90a50c25f5deaec2789dc2a497b1272df611db66000805160206133ce8339815191526101d8565b6100cf7fce1f15692823e8a9d77ca8c1b7a2cc145ffd008750ee9d3f8604f9c52eeea73c6000805160206133ce8339815191526101d8565b6101077f50a3dccc47363872dd46de62b59273989edb72901adea0b961d5232bf9a1febf6000805160206133ce8339815191526101d8565b61013f7f9667e80708b6eeeb0053fa0cca44e028ff548e2a9f029edfeac87c118b08b7c86000805160206133ce8339815191526101d8565b600160036000836002811115610157576101576102e9565b6002811115610168576101686102e9565b815260200190815260200160002060006101000a81548160ff0219169083151502179055507f839ad2743d4062df579edf3818f642b71ee0688a35d6bc4438ef5314cece8015816040516101bc91906102ff565b60405180910390a150610327565b6101d48282610223565b5050565b600082815260208190526040808220600101805490849055905190918391839186917fbd79b86ffe0ab8e8776151514217cd7cacd52c909f66475c3af44e129f0b00ff9190a4505050565b6000828152602081815260408083206001600160a01b038516845290915290205460ff166101d4576000828152602081815260408083206001600160a01b03851684529091529020805460ff1916600117905561027d3390565b6001600160a01b0316816001600160a01b0316837f2f8788117e7eff1d82e926ec794901d17c78024a50270940304540a733656f0d60405160405180910390a45050565b6000602082840312156102d357600080fd5b8151600381106102e257600080fd5b9392505050565b634e487b7160e01b600052602160045260246000fd5b602081016003831061032157634e487b7160e01b600052602160045260246000fd5b91905290565b613098806103366000396000f3fe608060405234801561001057600080fd5b50600436106101a65760003560e01c806370e65a45116100ea57806370e65a451461032157806374bc81391461033457806375b238fc146103475780637f698e921461035c5780638aeda25a1461037c5780638deb38931461039157806391d14854146103a45780639bb4e2f7146103b7578063a0908300146103cc578063a217fddf146103f8578063ad76939414610400578063bc7ca31714610408578063d547741f1461041b578063d6bc626d1461042e578063db2d303b14610441578063e1c0af0814610454578063f2dc99161461046757600080fd5b806301ffc9a7146101ab578063023e9288146101d357806308740a3b146101e85780630e092b181461020b5780630e1e59dd1461021e57806319724065146102335780631bd564dc14610246578063248a9ca3146102595780632609e5861461026c578063277dceaf1461027f578063282c51f3146102875780632ae79b6d146102ae5780632f2ff15d146102c157806336568abe146102d45780633acd1ea3146102e75780633dc6c858146102ef578063458be7dc146102fa575b600080fd5b6101be6101b936600461262b565b61047a565b60405190151581526020015b60405180910390f35b6101db6104b1565b6040516101ca9190612655565b6101fd60008051602061302383398151915281565b6040519081526020016101ca565b6101be61021936600461273b565b6104c2565b61023161022c366004612794565b6104ed565b005b6102316102413660046127e2565b610a94565b6101be610254366004612907565b611019565b6101fd610267366004612922565b61105c565b61023161027a366004612922565b611071565b6101fd600481565b6101fd7f9667e80708b6eeeb0053fa0cca44e028ff548e2a9f029edfeac87c118b08b7c881565b6101fd6102bc36600461293b565b6111ab565b6102316102cf3660046129c2565b6111f4565b6102316102e23660046129c2565b611210565b6101fd600881565b60015460ff166101be565b6101fd7f50a3dccc47363872dd46de62b59273989edb72901adea0b961d5232bf9a1febf81565b61023161032f36600461273b565b61128e565b610231610342366004612907565b611323565b6101fd60008051602061304383398151915281565b61036f61036a366004612922565b6113d5565b6040516101ca9190612a91565b6101fd60008051602061300383398151915281565b61023161039f366004612907565b61171d565b6101be6103b23660046129c2565b6117c1565b6103bf6117ea565b6040516101ca9190612b74565b6101be6103da366004612b87565b6001600160a01b031660009081526004602052604090205460ff1690565b6101fd600081565b6101fd600281565b610231610416366004612ba2565b61187c565b6102316104293660046129c2565b611a1f565b6101be61043c36600461273b565b611a3b565b61023161044f366004612b87565b611a4d565b61023161046236600461273b565b611ad2565b610231610475366004612b87565b611b5b565b60006001600160e01b03198216637965db0b60e01b14806104ab57506301ffc9a760e01b6001600160e01b03198316145b92915050565b60606104bd6009611be3565b905090565b60006005826040516104d49190612c2a565b9081526040519081900360200190205460ff1692915050565b6002816003811115610501576105016129ee565b036105405761051e600080516020613023833981519152336117c1565b61053b57604051632e10891f60e11b815260040160405180910390fd5b6105b9565b6003816003811115610554576105546129ee565b036105a0576105837f50a3dccc47363872dd46de62b59273989edb72901adea0b961d5232bf9a1febf336117c1565b61053b5760405163093efaf960e01b815260040160405180910390fd5b6040516307a92f1960e51b815260040160405180910390fd5b60008281526007602052604081205460ff1660038111156105dc576105dc6129ee565b036105fa5760405163050cc7ff60e31b815260040160405180910390fd5b600082815260076020526040808220815161014081019092528054829060ff16600381111561062b5761062b6129ee565b600381111561063c5761063c6129ee565b81528154602090910190610100900460ff16600281111561065f5761065f6129ee565b6002811115610670576106706129ee565b8152815460209091019062010000900460ff166003811115610694576106946129ee565b60038111156106a5576106a56129ee565b81526020016001820180546106b990612c46565b80601f01602080910402602001604051908101604052809291908181526020018280546106e590612c46565b80156107325780601f1061070757610100808354040283529160200191610732565b820191906000526020600020905b81548152906001019060200180831161071557829003601f168201915b505050918352505060028201546020820152600382015460409091019060ff168015610760576107606129ee565b801561076e5761076e6129ee565b81526020016004820154815260200160058201805461078c90612c46565b80601f01602080910402602001604051908101604052809291908181526020018280546107b890612c46565b80156108055780601f106107da57610100808354040283529160200191610805565b820191906000526020600020905b8154815290600101906020018083116107e857829003601f168201915b5050505050815260200160068201805461081e90612c46565b80601f016020809104026020016040519081016040528092919081815260200182805461084a90612c46565b80156108975780601f1061086c57610100808354040283529160200191610897565b820191906000526020600020905b81548152906001019060200180831161087a57829003601f168201915b505050505081526020016007820180546108b090612c46565b80601f01602080910402602001604051908101604052809291908181526020018280546108dc90612c46565b80156109295780601f106108fe57610100808354040283529160200191610929565b820191906000526020600020905b81548152906001019060200180831161090c57829003601f168201915b505050505081525050905060026003811115610947576109476129ee565b826003811115610959576109596129ee565b146109f3578261097b8260200151836040015184606001518560a001516111ab565b036109f35760405162461bcd60e51b815260206004820152603e60248201527f4d757374207265706c616365206163746976652072656c65617365206265666f60448201527f7265206368616e67696e67207374617475732066726f6d20416374697665000060648201526084015b60405180910390fd5b6000838152600760205260409020805483919060ff19166001836003811115610a1e57610a1e6129ee565b02179055507f6ae24fa3345cd7488c35e11c5278059a0a545fd008c33d2d396d917b69bed5bf8383604051610a54929190612c80565b60405180910390a16002826003811115610a7057610a706129ee565b03610a8357610a7e83611bf7565b505050565b610a8e600984612065565b50505050565b610aac600080516020613003833981519152336117c1565b610ac9576040516380510fe160e01b815260040160405180910390fd5b60028a6003811115610add57610add6129ee565b03610b1c57610afa600080516020613023833981519152336117c1565b610b1757604051632e10891f60e11b815260040160405180910390fd5b610b6e565b60018a6003811115610b3057610b306129ee565b14158015610b50575060038a6003811115610b4d57610b4d6129ee565b14155b15610b6e576040516307a92f1960e51b815260040160405180910390fd5b600360008a6002811115610b8457610b846129ee565b6002811115610b9557610b956129ee565b815260208101919091526040016000205460ff161515600114610bcb57604051633239ea5f60e21b815260040160405180910390fd5b60046000610bda8d6004612071565b6001600160a01b0316815260208101919091526040016000205460ff161515600114610c815760405162461bcd60e51b815260206004820152604a60248201527f5468652070726f7669646564207375626e6574202877697468696e207468652060448201527f72656c6561736520696429206973206e6f742076616c696420666f72207468696064820152691cc818dbdb9d1c9858dd60b21b608482015260a4016109ea565b6000896002811115610c9557610c956129ee565b14158015610cb557506001896002811115610cb257610cb26129ee565b14155b15610d385760008b81526007602052604081205460ff166003811115610cdd57610cdd6129ee565b14610d385760405162461bcd60e51b815260206004820152602560248201527f412072656c656173652077697468207468697320494420616c72656164792065604482015264786973747360d81b60648201526084016109ea565b6002896002811115610d4c57610d4c6129ee565b03610db85760028516600003610db85760405162461bcd60e51b815260206004820152602b60248201527f54686520524f206f7074696f6e20697320726571756972656420666f7220707260448201526a6f642072656c656173657360a81b60648201526084016109ea565b80600003610dc35750425b6040518061014001604052808b6003811115610de157610de16129ee565b81526020018a6002811115610df857610df86129ee565b8152602001896003811115610e0f57610e0f6129ee565b8152602001888152602001828152602001876000811115610e3257610e326129ee565b81526020808201889052604080830188905260608301879052608090920185905260008e815260079091522081518154829060ff19166001836003811115610e7c57610e7c6129ee565b021790555060208201518154829061ff001916610100836002811115610ea457610ea46129ee565b021790555060408201518154829062ff0000191662010000836003811115610ece57610ece6129ee565b021790555060608201516001820190610ee79082612ce4565b506080820151600282015560a082015160038201805460ff19166001838015610f1257610f126129ee565b021790555060c0820151600482015560e08201516005820190610f359082612ce4565b506101008201516006820190610f4b9082612ce4565b506101208201516007820190610f619082612ce4565b509050507f90a862cc16ebcb9b549c932013f77c422df117e24d48d7d26a7d90fbc43c3c8f8b8b8b8b8b868c8c8c8c8c604051610fa89b9a99989796959493929190612da2565b60405180910390a160028a6003811115610fc457610fc46129ee565b0361100c57610fd28b611bf7565b7f6ae24fa3345cd7488c35e11c5278059a0a545fd008c33d2d396d917b69bed5bf8b8b604051611003929190612c80565b60405180910390a15b5050505050505050505050565b600060036000836002811115611031576110316129ee565b6002811115611042576110426129ee565b815260208101919091526040016000205460ff1692915050565b60009081526020819052604090206001015490565b61109b7f9667e80708b6eeeb0053fa0cca44e028ff548e2a9f029edfeac87c118b08b7c8336117c1565b6110b857604051633d3b2b5960e21b815260040160405180910390fd5b60008181526007602052604081205460ff1660038111156110db576110db6129ee565b036110f95760405163050cc7ff60e31b815260040160405180910390fd5b6000818152600760205260408120805462ffffff191681559061111f6001830182612574565b60006002830181905560038301805460ff1916905560048301819055611149906005840190612574565b611157600683016000612574565b611165600783016000612574565b506111739050600982612065565b506040518181527fe4a7f7b48251ad70e63f800758a445b00386e2fa98d5afce96a546e8fce2114e906020015b60405180910390a150565b600080858585856040516020016111c59493929190612e50565b60408051808303601f190181529181528151602092830120600090815260089092529020549695505050505050565b6111fd8261105c565b611206816120ce565b610a7e83836120db565b6001600160a01b03811633146112805760405162461bcd60e51b815260206004820152602f60248201527f416363657373436f6e74726f6c3a2063616e206f6e6c792072656e6f756e636560448201526e103937b632b9903337b91039b2b63360891b60648201526084016109ea565b61128a828261215f565b5050565b6112a6600080516020613043833981519152336117c1565b6112c3576040516364487c2560e11b815260040160405180910390fd5b60016005826040516112d59190612c2a565b908152604051908190036020018120805492151560ff19909316929092179091557fe7735e9f569fe61671662a8829db77de38ef614c77b1b136c958aff781df7c75906111a0908390612b74565b61133b600080516020613043833981519152336117c1565b611358576040516364487c2560e11b815260040160405180910390fd5b600160036000836002811115611370576113706129ee565b6002811115611381576113816129ee565b815260200190815260200160002060006101000a81548160ff0219169083151502179055507f839ad2743d4062df579edf3818f642b71ee0688a35d6bc4438ef5314cece8015816040516111a09190612eb6565b6113dd6125ae565b60008281526007602052604090819020815161014081019092528054829060ff16600381111561140f5761140f6129ee565b6003811115611420576114206129ee565b81528154602090910190610100900460ff166002811115611443576114436129ee565b6002811115611454576114546129ee565b8152815460209091019062010000900460ff166003811115611478576114786129ee565b6003811115611489576114896129ee565b815260200160018201805461149d90612c46565b80601f01602080910402602001604051908101604052809291908181526020018280546114c990612c46565b80156115165780601f106114eb57610100808354040283529160200191611516565b820191906000526020600020905b8154815290600101906020018083116114f957829003601f168201915b505050918352505060028201546020820152600382015460409091019060ff168015611544576115446129ee565b8015611552576115526129ee565b81526020016004820154815260200160058201805461157090612c46565b80601f016020809104026020016040519081016040528092919081815260200182805461159c90612c46565b80156115e95780601f106115be576101008083540402835291602001916115e9565b820191906000526020600020905b8154815290600101906020018083116115cc57829003601f168201915b5050505050815260200160068201805461160290612c46565b80601f016020809104026020016040519081016040528092919081815260200182805461162e90612c46565b801561167b5780601f106116505761010080835404028352916020019161167b565b820191906000526020600020905b81548152906001019060200180831161165e57829003601f168201915b5050505050815260200160078201805461169490612c46565b80601f01602080910402602001604051908101604052809291908181526020018280546116c090612c46565b801561170d5780601f106116e25761010080835404028352916020019161170d565b820191906000526020600020905b8154815290600101906020018083116116f057829003601f168201915b5050505050815250509050919050565b611735600080516020613043833981519152336117c1565b611752576040516364487c2560e11b815260040160405180910390fd5b60036000826002811115611768576117686129ee565b6002811115611779576117796129ee565b815260208101919091526040908101600020805460ff19169055517f3f178f17dae6caf8ca09c4857502baf7744e8597de42d6596476fe9e06b8ad47906111a0908390612eb6565b6000918252602082815260408084206001600160a01b0393909316845291905290205460ff1690565b6060600280546117f990612c46565b80601f016020809104026020016040519081016040528092919081815260200182805461182590612c46565b80156118725780601f1061184757610100808354040283529160200191611872565b820191906000526020600020905b81548152906001019060200180831161185557829003601f168201915b5050505050905090565b611894600080516020613003833981519152336117c1565b6118b1576040516380510fe160e01b815260040160405180910390fd5b600360008560028111156118c7576118c76129ee565b60028111156118d8576118d86129ee565b815260208101919091526040016000205460ff16151560011461190e57604051633239ea5f60e21b815260040160405180910390fd5b600261191a8382612ce4565b506001600160a01b03831660009081526004602052604090819020805460ff191660019081179091559051600690611953908490612c2a565b908152604051908190036020018120805492151560ff19909316929092179091557f18f0396c6d01876d7610d96877b44f017ab4ca2265b13079b10e0be6b6af30d4906119a1908390612b74565b60405180910390a17f1a7b784416b53672844a12947a59696e835a6d8dffbb0c4630a4d04812bd6278836040516119d89190612ec4565b60405180910390a17f5b590cceabbeb28cd16e41a811ba46df5bb82c98920d5e7ff77e4fa9db709b338282604051611a11929190612ed8565b60405180910390a150505050565b611a288261105c565b611a31816120ce565b610a7e838361215f565b60006006826040516104d49190612c2a565b611a65600080516020613043833981519152336117c1565b611a82576040516364487c2560e11b815260040160405180910390fd5b6001600160a01b03811660009081526004602052604090819020805460ff19169055517ff580a1ea01c0ed3ec5e4797c560ee7046c3591588c0feb814f5f2d4eca50272c906111a0908390612ec4565b611aea600080516020613043833981519152336117c1565b611b07576040516364487c2560e11b815260040160405180910390fd5b600581604051611b179190612c2a565b908152604051908190036020018120805460ff191690557ff13042255d0b58f7acc82c201a0cd4d834b0783dd7b3c29cca9b96840d633f74906111a0908390612b74565b611b73600080516020613043833981519152336117c1565b611b90576040516364487c2560e11b815260040160405180910390fd5b6001600160a01b03811660009081526004602052604090819020805460ff19166001179055517f1a7b784416b53672844a12947a59696e835a6d8dffbb0c4630a4d04812bd6278906111a0908390612ec4565b60606000611bf0836121c4565b9392505050565b60008181526007602052604081205460ff166003811115611c1a57611c1a6129ee565b03611c385760405163050cc7ff60e31b815260040160405180910390fd5b600081815260076020526040808220815161014081019092528054829060ff166003811115611c6957611c696129ee565b6003811115611c7a57611c7a6129ee565b81528154602090910190610100900460ff166002811115611c9d57611c9d6129ee565b6002811115611cae57611cae6129ee565b8152815460209091019062010000900460ff166003811115611cd257611cd26129ee565b6003811115611ce357611ce36129ee565b8152602001600182018054611cf790612c46565b80601f0160208091040260200160405190810160405280929190818152602001828054611d2390612c46565b8015611d705780601f10611d4557610100808354040283529160200191611d70565b820191906000526020600020905b815481529060010190602001808311611d5357829003601f168201915b505050918352505060028201546020820152600382015460409091019060ff168015611d9e57611d9e6129ee565b8015611dac57611dac6129ee565b815260200160048201548152602001600582018054611dca90612c46565b80601f0160208091040260200160405190810160405280929190818152602001828054611df690612c46565b8015611e435780601f10611e1857610100808354040283529160200191611e43565b820191906000526020600020905b815481529060010190602001808311611e2657829003601f168201915b50505050508152602001600682018054611e5c90612c46565b80601f0160208091040260200160405190810160405280929190818152602001828054611e8890612c46565b8015611ed55780601f10611eaa57610100808354040283529160200191611ed5565b820191906000526020600020905b815481529060010190602001808311611eb857829003601f168201915b50505050508152602001600782018054611eee90612c46565b80601f0160208091040260200160405190810160405280929190818152602001828054611f1a90612c46565b8015611f675780601f10611f3c57610100808354040283529160200191611f67565b820191906000526020600020905b815481529060010190602001808311611f4a57829003601f168201915b505050505081525050905060026003811115611f8557611f856129ee565b81516003811115611f9857611f986129ee565b14611fb6576040516307a92f1960e51b815260040160405180910390fd5b60008160200151826040015183606001518460a00151604051602001611fdf9493929190612e50565b60408051601f198184030181529181528151602092830120600081815260089093529120549091508015612041576000818152600760205260409020600201546080840151111561203c5760008281526008602052604090208490555b612053565b60008281526008602052604090208490555b61205e600985612220565b5050505050565b6000611bf0838361222c565b60008060005b60148110156120c35761208b816008612f13565b856120968387612f2a565b602081106120a6576120a6612f3d565b1a60f81b6001600160f81b031916901c9190911790600101612077565b5060601c9392505050565b6120d8813361231f565b50565b6120e582826117c1565b61128a576000828152602081815260408083206001600160a01b03851684529091529020805460ff1916600117905561211b3390565b6001600160a01b0316816001600160a01b0316837f2f8788117e7eff1d82e926ec794901d17c78024a50270940304540a733656f0d60405160405180910390a45050565b61216982826117c1565b1561128a576000828152602081815260408083206001600160a01b0385168085529252808320805460ff1916905551339285917ff6391f5c32d9c69d2a47ea670b442974b53935d1edc7fd64eb21e047a839171b9190a45050565b60608160000180548060200260200160405190810160405280929190818152602001828054801561221457602002820191906000526020600020905b815481526020019060010190808311612200575b50505050509050919050565b6000611bf08383612378565b60008181526001830160205260408120548015612315576000612250600183612f53565b855490915060009061226490600190612f53565b90508181146122c957600086600001828154811061228457612284612f3d565b90600052602060002001549050808760000184815481106122a7576122a7612f3d565b6000918252602080832090910192909255918252600188019052604090208390555b85548690806122da576122da612f66565b6001900381819060005260206000200160009055905585600101600086815260200190815260200160002060009055600193505050506104ab565b60009150506104ab565b61232982826117c1565b61128a57612336816123c7565b6123418360206123d9565b604051602001612352929190612f7c565b60408051601f198184030181529082905262461bcd60e51b82526109ea91600401612b74565b60008181526001830160205260408120546123bf575081546001818101845560008481526020808220909301849055845484825282860190935260409020919091556104ab565b5060006104ab565b60606104ab6001600160a01b03831660145b606060006123e8836002612f13565b6123f3906002612f2a565b6001600160401b0381111561240a5761240a612698565b6040519080825280601f01601f191660200182016040528015612434576020820181803683370190505b509050600360fc1b8160008151811061244f5761244f612f3d565b60200101906001600160f81b031916908160001a905350600f60fb1b8160018151811061247e5761247e612f3d565b60200101906001600160f81b031916908160001a90535060006124a2846002612f13565b6124ad906001612f2a565b90505b6001811115612525576f181899199a1a9b1b9c1cb0b131b232b360811b85600f16601081106124e1576124e1612f3d565b1a60f81b8282815181106124f7576124f7612f3d565b60200101906001600160f81b031916908160001a90535060049490941c9361251e81612feb565b90506124b0565b508315611bf05760405162461bcd60e51b815260206004820181905260248201527f537472696e67733a20686578206c656e67746820696e73756666696369656e7460448201526064016109ea565b50805461258090612c46565b6000825580601f10612590575050565b601f0160209004906000526020600020908101906120d89190612612565b6040805161014081019091528060008152602001600081526020016000815260200160608152602001600081526020016000808111156125f0576125f06129ee565b8152602001600081526020016060815260200160608152602001606081525090565b5b808211156126275760008155600101612613565b5090565b60006020828403121561263d57600080fd5b81356001600160e01b031981168114611bf057600080fd5b602080825282518282018190526000918401906040840190835b8181101561268d57835183526020938401939092019160010161266f565b509095945050505050565b634e487b7160e01b600052604160045260246000fd5b600082601f8301126126bf57600080fd5b81356001600160401b038111156126d8576126d8612698565b604051601f8201601f19908116603f011681016001600160401b038111828210171561270657612706612698565b60405281815283820160200185101561271e57600080fd5b816020850160208301376000918101602001919091529392505050565b60006020828403121561274d57600080fd5b81356001600160401b0381111561276357600080fd5b61276f848285016126ae565b949350505050565b600481106120d857600080fd5b803561278f81612777565b919050565b600080604083850312156127a757600080fd5b8235915060208301356127b981612777565b809150509250929050565b80356003811061278f57600080fd5b80356001811061278f57600080fd5b60008060008060008060008060008060006101608c8e03121561280457600080fd5b8b359a5061281460208d01612784565b995061282260408d016127c4565b985061283060608d01612784565b975060808c01356001600160401b0381111561284b57600080fd5b6128578e828f016126ae565b97505061286660a08d016127d3565b955060c08c0135945060e08c01356001600160401b0381111561288857600080fd5b6128948e828f016126ae565b9450506101008c01356001600160401b038111156128b157600080fd5b6128bd8e828f016126ae565b9350506101208c01356001600160401b038111156128da57600080fd5b6128e68e828f016126ae565b92505060006101408d01359050809150509295989b509295989b9093969950565b60006020828403121561291957600080fd5b611bf0826127c4565b60006020828403121561293457600080fd5b5035919050565b6000806000806080858703121561295157600080fd5b61295a856127c4565b9350602085013561296a81612777565b925060408501356001600160401b0381111561298557600080fd5b612991878288016126ae565b9250506129a0606086016127d3565b905092959194509250565b80356001600160a01b038116811461278f57600080fd5b600080604083850312156129d557600080fd5b823591506129e5602084016129ab565b90509250929050565b634e487b7160e01b600052602160045260246000fd5b600481106120d8576120d86129ee565b612a1d81612a04565b9052565b60038110612a1d57612a1d6129ee565b60005b83811015612a4c578181015183820152602001612a34565b50506000910152565b60008151808452612a6d816020860160208601612a31565b601f01601f19169290920160200192915050565b60018110612a1d57612a1d6129ee565b60208152612aa3602082018351612a14565b60006020830151612ab76040840182612a21565b506040830151612aca6060840182612a14565b5060608301516101406080840152612ae6610160840182612a55565b9050608084015160a084015260a0840151612b0460c0850182612a81565b5060c084015160e084015260e0840151601f1984830301610100850152612b2b8282612a55565b915050610100840151601f1984830301610120850152612b4b8282612a55565b915050610120840151601f1984830301610140850152612b6b8282612a55565b95945050505050565b602081526000611bf06020830184612a55565b600060208284031215612b9957600080fd5b611bf0826129ab565b60008060008060808587031215612bb857600080fd5b612bc1856127c4565b9350612bcf602086016129ab565b925060408501356001600160401b03811115612bea57600080fd5b612bf6878288016126ae565b92505060608501356001600160401b03811115612c1257600080fd5b612c1e878288016126ae565b91505092959194509250565b60008251612c3c818460208701612a31565b9190910192915050565b600181811c90821680612c5a57607f821691505b602082108103612c7a57634e487b7160e01b600052602260045260246000fd5b50919050565b82815260408101612c9083612a04565b8260208301529392505050565b601f821115610a7e57806000526020600020601f840160051c81016020851015612cc45750805b601f840160051c820191505b8181101561205e5760008155600101612cd0565b81516001600160401b03811115612cfd57612cfd612698565b612d1181612d0b8454612c46565b84612c9d565b6020601f821160018114612d455760008315612d2d5750848201515b600019600385901b1c1916600184901b17845561205e565b600084815260208120601f198516915b82811015612d755787850151825560209485019460019092019101612d55565b5084821015612d935786840151600019600387901b60f8161c191681555b50505050600190811b01905550565b8b8152612dae8b612a04565b8a6020820152612dc1604082018b612a21565b612dca89612a04565b88606082015261016060808201526000612de861016083018a612a55565b8860a0840152612dfb60c0840189612a81565b8660e0840152828103610100840152612e148187612a55565b9050828103610120840152612e298186612a55565b9050828103610140840152612e3e8185612a55565b9e9d5050505050505050505050505050565b600060038610612e6257612e626129ee565b8560f81b8252612e7185612a04565b8460f81b60018301528351612e8d816002850160208801612a31565b820160018410612e9f57612e9f6129ee565b60f89390931b600284015250506003019392505050565b602081016104ab8284612a21565b6001600160a01b0391909116815260200190565b604081526000612eeb6040830185612a55565b8281036020840152612b6b8185612a55565b634e487b7160e01b600052601160045260246000fd5b80820281158282048414176104ab576104ab612efd565b808201808211156104ab576104ab612efd565b634e487b7160e01b600052603260045260246000fd5b818103818111156104ab576104ab612efd565b634e487b7160e01b600052603160045260246000fd5b76020b1b1b2b9b9a1b7b73a3937b61d1030b1b1b7bab73a1604d1b815260008351612fae816017850160208801612a31565b7001034b99036b4b9b9b4b733903937b6329607d1b6017918401918201528351612fdf816028840160208801612a31565b01602801949350505050565b600081612ffa57612ffa612efd565b50600019019056fe3c2519c4487d47714872f92cf90a50c25f5deaec2789dc2a497b1272df611db6ce1f15692823e8a9d77ca8c1b7a2cc145ffd008750ee9d3f8604f9c52eeea73cdf8b4c520ffe197c5343c6f5aec59570151ef9a492f2c624fd45ddde6135ec42a26469706673582212209f63068fdc11df993b5aed7794c216fb266e1e9f01be1b1b753211b35abd1a3764736f6c634300081c0033df8b4c520ffe197c5343c6f5aec59570151ef9a492f2c624fd45ddde6135ec42",
  "linkReferences": {},
  "deployedLinkReferences": {}
}