{
  "_format": "hh-sol-artifact-1",
  "contractName": "WLIT",
  "sourceName": "contracts/lit-node/WLIT.sol",
  "abi": [
    {
      "inputs": [
        {
          "internalType": "string",
          "name": "name_",
          "type": "string"
        },
        {
          "internalType": "string",
          "name": "symbol_",
          "type": "string"
        }
      ],
      "stateMutability": "nonpayable",
      "type": "constructor"
    },
    {
      "inputs": [],
      "name": "InsufficientAllowance",
      "type": "error"
    },
    {
      "inputs": [],
      "name": "InsufficientBalance",
      "type": "error"
    },
    {
      "anonymous": false,
      "inputs": [
        {
          "indexed": true,
          "internalType": "address",
          "name": "src",
          "type": "address"
        },
        {
          "indexed": true,
          "internalType": "address",
          "name": "guy",
          "type": "address"
        },
        {
          "indexed": false,
          "internalType": "uint256",
          "name": "wad",
          "type": "uint256"
        }
      ],
      "name": "Approval",
      "type": "event"
    },
    {
      "anonymous": false,
      "inputs": [
        {
          "indexed": true,
          "internalType": "address",
          "name": "dst",
          "type": "address"
        },
        {
          "indexed": false,
          "internalType": "uint256",
          "name": "wad",
          "type": "uint256"
        }
      ],
      "name": "Deposit",
      "type": "event"
    },
    {
      "anonymous": false,
      "inputs": [
        {
          "indexed": true,
          "internalType": "address",
          "name": "previousOwner",
          "type": "address"
        },
        {
          "indexed": true,
          "internalType": "address",
          "name": "newOwner",
          "type": "address"
        }
      ],
      "name": "OwnershipTransferred",
      "type": "event"
    },
    {
      "anonymous": false,
      "inputs": [
        {
          "indexed": true,
          "internalType": "address",
          "name": "src",
          "type": "address"
        },
        {
          "indexed": true,
          "internalType": "address",
          "name": "dst",
          "type": "address"
        },
        {
          "indexed": false,
          "internalType": "uint256",
          "name": "wad",
          "type": "uint256"
        }
      ],
      "name": "Transfer",
      "type": "event"
    },
    {
      "anonymous": false,
      "inputs": [
        {
          "indexed": true,
          "internalType": "address",
          "name": "src",
          "type": "address"
        },
        {
          "indexed": false,
          "internalType": "uint256",
          "name": "wad",
          "type": "uint256"
        }
      ],
      "name": "Withdrawal",
      "type": "event"
    },
    {
      "stateMutability": "payable",
      "type": "fallback"
    },
    {
      "inputs": [
        {
          "internalType": "address",
          "name": "",
          "type": "address"
        },
        {
          "internalType": "address",
          "name": "",
          "type": "address"
        }
      ],
      "name": "allowance",
      "outputs": [
        {
          "internalType": "uint256",
          "name": "",
          "type": "uint256"
        }
      ],
      "stateMutability": "view",
      "type": "function"
    },
    {
      "inputs": [
        {
          "internalType": "address",
          "name": "guy",
          "type": "address"
        },
        {
          "internalType": "uint256",
          "name": "wad",
          "type": "uint256"
        }
      ],
      "name": "approve",
      "outputs": [
        {
          "internalType": "bool",
          "name": "",
          "type": "bool"
        }
      ],
      "stateMutability": "nonpayable",
      "type": "function"
    },
    {
      "inputs": [
        {
          "internalType": "address",
          "name": "",
          "type": "address"
        }
      ],
      "name": "balanceOf",
      "outputs": [
        {
          "internalType": "uint256",
          "name": "",
          "type": "uint256"
        }
      ],
      "stateMutability": "view",
      "type": "function"
    },
    {
      "inputs": [
        {
          "internalType": "uint256",
          "name": "amount",
          "type": "uint256"
        }
      ],
      "name": "burn",
      "outputs": [],
      "stateMutability": "nonpayable",
      "type": "function"
    },
    {
      "inputs": [
        {
          "internalType": "address",
          "name": "account",
          "type": "address"
        },
        {
          "internalType": "uint256",
          "name": "amount",
          "type": "uint256"
        }
      ],
      "name": "burnFrom",
      "outputs": [],
      "stateMutability": "nonpayable",
      "type": "function"
    },
    {
      "inputs": [],
      "name": "decimals",
      "outputs": [
        {
          "internalType": "uint8",
          "name": "",
          "type": "uint8"
        }
      ],
      "stateMutability": "view",
      "type": "function"
    },
    {
      "inputs": [],
      "name": "deposit",
      "outputs": [],
      "stateMutability": "payable",
      "type": "function"
    },
    {
      "inputs": [
        {
          "internalType": "address",
          "name": "account",
          "type": "address"
        }
      ],
      "name": "getBalanceOf",
      "outputs": [
        {
          "internalType": "uint256",
          "name": "",
          "type": "uint256"
        }
      ],
      "stateMutability": "view",
      "type": "function"
    },
    {
      "inputs": [],
      "name": "getTrustedForwarder",
      "outputs": [
        {
          "internalType": "address",
          "name": "",
          "type": "address"
        }
      ],
      "stateMutability": "view",
      "type": "function"
    },
    {
      "inputs": [],
      "name": "name",
      "outputs": [
        {
          "internalType": "string",
          "name": "",
          "type": "string"
        }
      ],
      "stateMutability": "view",
      "type": "function"
    },
    {
      "inputs": [],
      "name": "owner",
      "outputs": [
        {
          "internalType": "address",
          "name": "",
          "type": "address"
        }
      ],
      "stateMutability": "view",
      "type": "function"
    },
    {
      "inputs": [],
      "name": "renounceOwnership",
      "outputs": [],
      "stateMutability": "nonpayable",
      "type": "function"
    },
    {
      "inputs": [
        {
          "internalType": "address",
          "name": "forwarder",
          "type": "address"
        }
      ],
      "name": "setTrustedForwarder",
      "outputs": [],
      "stateMutability": "nonpayable",
      "type": "function"
    },
    {
      "inputs": [],
      "name": "symbol",
      "outputs": [
        {
          "internalType": "string",
          "name": "",
          "type": "string"
        }
      ],
      "stateMutability": "view",
      "type": "function"
    },
    {
      "inputs": [],
      "name": "totalSupply",
      "outputs": [
        {
          "internalType": "uint256",
          "name": "",
          "type": "uint256"
        }
      ],
      "stateMutability": "view",
      "type": "function"
    },
    {
      "inputs": [
        {
          "internalType": "address",
          "name": "dst",
          "type": "address"
        },
        {
          "internalType": "uint256",
          "name": "wad",
          "type": "uint256"
        }
      ],
      "name": "transfer",
      "outputs": [
        {
          "internalType": "bool",
          "name": "",
          "type": "bool"
        }
      ],
      "stateMutability": "nonpayable",
      "type": "function"
    },
    {
      "inputs": [
        {
          "internalType": "address",
          "name": "src",
          "type": "address"
        },
        {
          "internalType": "address",
          "name": "dst",
          "type": "address"
        },
        {
          "internalType": "uint256",
          "name": "wad",
          "type": "uint256"
        }
      ],
      "name": "transferFrom",
      "outputs": [
        {
          "internalType": "bool",
          "name": "",
          "type": "bool"
        }
      ],
      "stateMutability": "nonpayable",
      "type": "function"
    },
    {
      "inputs": [
        {
          "internalType": "address",
          "name": "newOwner",
          "type": "address"
        }
      ],
      "name": "transferOwnership",
      "outputs": [],
      "stateMutability": "nonpayable",
      "type": "function"
    },
    {
      "inputs": [],
      "name": "trustedForwarder",
      "outputs": [
        {
          "internalType": "address",
          "name": "",
          "type": "address"
        }
      ],
      "stateMutability": "view",
      "type": "function"
    },
    {
      "inputs": [
        {
          "internalType": "uint256",
          "name": "wad",
          "type": "uint256"
        }
      ],
      "name": "withdraw",
      "outputs": [],
      "stateMutability": "nonpayable",
      "type": "function"
    },
    {
      "stateMutability": "payable",
      "type": "receive"
    }
  ],
  "bytecode": "0x60806040526003805460ff1916601217905534801561001d57600080fd5b50604051610fc6380380610fc683398101604081905261003c9161016f565b61004533610066565b60016100518382610261565b50600261005e8282610261565b50505061031f565b600080546001600160a01b038381166001600160a01b0319831681178455604051919092169283917f8be0079c531659141344cd1fd0a4f28419497f9722a3daafe3b4186f6b6457e09190a35050565b634e487b7160e01b600052604160045260246000fd5b600082601f8301126100dd57600080fd5b81516001600160401b038111156100f6576100f66100b6565b604051601f8201601f19908116603f011681016001600160401b0381118282101715610124576101246100b6565b60405281815283820160200185101561013c57600080fd5b60005b8281101561015b5760208186018101518383018201520161013f565b506000918101602001919091529392505050565b6000806040838503121561018257600080fd5b82516001600160401b0381111561019857600080fd5b6101a4858286016100cc565b602085015190935090506001600160401b038111156101c257600080fd5b6101ce858286016100cc565b9150509250929050565b600181811c908216806101ec57607f821691505b60208210810361020c57634e487b7160e01b600052602260045260246000fd5b50919050565b601f82111561025c57806000526020600020601f840160051c810160208510156102395750805b601f840160051c820191505b818110156102595760008155600101610245565b50505b505050565b81516001600160401b0381111561027a5761027a6100b6565b61028e8161028884546101d8565b84610212565b6020601f8211600181146102c257600083156102aa5750848201515b600019600385901b1c1916600184901b178455610259565b600084815260208120601f198516915b828110156102f257878501518255602094850194600190920191016102d2565b50848210156103105786840151600019600387901b60f8161c191681555b50505050600190811b01905550565b610c988061032e6000396000f3fe6080604052600436106100f35760003560e01c806306fdde031461010a578063095ea7b31461013557806318160ddd1461016557806323b872dd146101825780632e1a7d4d146101a2578063313ce567146101c257806342966c68146101ee57806370a082311461020e578063715018a61461023b57806379cc6790146102505780637da0a877146102705780638da5cb5b146102ad57806395d89b41146102c25780639b96eece146102d7578063a9059cbb1461030d578063ce1b815f1461032d578063d0e30db014610102578063da74222814610350578063dd62ed3e14610370578063f2fde38b146103a857610102565b36610102576101006103c8565b005b6101006103c8565b34801561011657600080fd5b5061011f610456565b60405161012c9190610ab4565b60405180910390f35b34801561014157600080fd5b50610155610150366004610b1e565b6104e4565b604051901515815260200161012c565b34801561017157600080fd5b50475b60405190815260200161012c565b34801561018e57600080fd5b5061015561019d366004610b48565b610577565b3480156101ae57600080fd5b506101006101bd366004610b85565b61078d565b3480156101ce57600080fd5b506003546101dc9060ff1681565b60405160ff909116815260200161012c565b3480156101fa57600080fd5b50610100610209366004610b85565b6108aa565b34801561021a57600080fd5b50610174610229366004610b9e565b60046020526000908152604090205481565b34801561024757600080fd5b506101006108c1565b34801561025c57600080fd5b5061010061026b366004610b1e565b6108d5565b34801561027c57600080fd5b506003546102959061010090046001600160a01b031681565b6040516001600160a01b03909116815260200161012c565b3480156102b957600080fd5b506102956108e6565b3480156102ce57600080fd5b5061011f6108f5565b3480156102e357600080fd5b506101746102f2366004610b9e565b6001600160a01b031660009081526004602052604090205490565b34801561031957600080fd5b50610155610328366004610b1e565b610902565b34801561033957600080fd5b5060035461010090046001600160a01b0316610295565b34801561035c57600080fd5b5061010061036b366004610b9e565b61091d565b34801561037c57600080fd5b5061017461038b366004610bb9565b600560209081526000928352604080842090915290825290205481565b3480156103b457600080fd5b506101006103c3366004610b9e565b61094d565b34600460006103d56109cb565b6001600160a01b03166001600160a01b0316815260200190815260200160002060008282546104049190610c02565b9091555061041290506109cb565b6001600160a01b03167fe1fffcc4923d04b559f4d29a8bfc6cda04eb5b0d3c460751c2402c5c5cc9109c3460405161044c91815260200190565b60405180910390a2565b6001805461046390610c15565b80601f016020809104026020016040519081016040528092919081815260200182805461048f90610c15565b80156104dc5780601f106104b1576101008083540402835291602001916104dc565b820191906000526020600020905b8154815290600101906020018083116104bf57829003601f168201915b505050505081565b600081600560006104f36109cb565b6001600160a01b039081168252602080830193909352604091820160009081209188168082529190935291209190915561052b6109cb565b6001600160a01b03167f8c5be1e5ebec7d5bd14f71427d1e84f3dd0314c0f7b2291e5b200ac8c7c3b9258460405161056591815260200190565b60405180910390a35060015b92915050565b6001600160a01b0383166000908152600460205260408120548211156105b057604051631e9acf1760e31b815260040160405180910390fd5b6105b86109cb565b6001600160a01b0316846001600160a01b03161415801561061c57506001600160a01b0384166000908152600560205260408120600019916105f86109cb565b6001600160a01b03166001600160a01b031681526020019081526020016000205414155b156106da576001600160a01b038416600090815260056020526040812083916106436109cb565b6001600160a01b03166001600160a01b03168152602001908152602001600020541015610683576040516313be252b60e01b815260040160405180910390fd5b6001600160a01b038416600090815260056020526040812083916106a56109cb565b6001600160a01b03166001600160a01b0316815260200190815260200160002060008282546106d49190610c4f565b90915550505b6001600160a01b03841660009081526004602052604081208054849290610702908490610c4f565b90915550506001600160a01b0383166000908152600460205260408120805484929061072f908490610c02565b92505081905550826001600160a01b0316846001600160a01b03167fddf252ad1be2c89b69c2b068fc378daa952ba7f163c4a11628f55a4df523b3ef8460405161077b91815260200190565b60405180910390a35060019392505050565b806004600061079a6109cb565b6001600160a01b03166001600160a01b031681526020019081526020016000205410156107da57604051631e9acf1760e31b815260040160405180910390fd5b80600460006107e76109cb565b6001600160a01b03166001600160a01b0316815260200190815260200160002060008282546108169190610c4f565b9091555061082490506109cb565b6001600160a01b03166108fc829081150290604051600060405180830381858888f1935050505015801561085c573d6000803e3d6000fd5b506108656109cb565b6001600160a01b03167f7fcf532c15f0a6db0bd6d0e038bea71d30d808c7d98cb3bf7268a95bf5081b658260405161089f91815260200190565b60405180910390a250565b6108bd6108b56109cb565b600083610577565b5050565b6108c9610a05565b6108d36000610a64565b565b6108e182600083610577565b505050565b6000546001600160a01b031690565b6002805461046390610c15565b600061091661090f6109cb565b8484610577565b9392505050565b610925610a05565b600380546001600160a01b0390921661010002610100600160a81b0319909216919091179055565b610955610a05565b6001600160a01b0381166109bf5760405162461bcd60e51b815260206004820152602660248201527f4f776e61626c653a206e6577206f776e657220697320746865207a65726f206160448201526564647265737360d01b60648201526084015b60405180910390fd5b6109c881610a64565b50565b60035460009061010090046001600160a01b0316331480156109ee575060143610155b15610a00575060131936013560601c90565b503390565b33610a0e6108e6565b6001600160a01b0316146108d35760405162461bcd60e51b815260206004820181905260248201527f4f776e61626c653a2063616c6c6572206973206e6f7420746865206f776e657260448201526064016109b6565b600080546001600160a01b038381166001600160a01b0319831681178455604051919092169283917f8be0079c531659141344cd1fd0a4f28419497f9722a3daafe3b4186f6b6457e09190a35050565b602081526000825180602084015260005b81811015610ae25760208186018101516040868401015201610ac5565b506000604082850101526040601f19601f83011684010191505092915050565b80356001600160a01b0381168114610b1957600080fd5b919050565b60008060408385031215610b3157600080fd5b610b3a83610b02565b946020939093013593505050565b600080600060608486031215610b5d57600080fd5b610b6684610b02565b9250610b7460208501610b02565b929592945050506040919091013590565b600060208284031215610b9757600080fd5b5035919050565b600060208284031215610bb057600080fd5b61091682610b02565b60008060408385031215610bcc57600080fd5b610bd583610b02565b9150610be360208401610b02565b90509250929050565b634e487b7160e01b600052601160045260246000fd5b8082018082111561057157610571610bec565b600181811c90821680610c2957607f821691505b602082108103610c4957634e487b7160e01b600052602260045260246000fd5b50919050565b8181038181111561057157610571610bec56fea26469706673582212202bfe15b3dbec164f1fbeac8bbb23d20e5267a2a626355e1cc3caacc44659c1d264736f6c634300081c0033",
  "linkReferences": {},
  "deployedLinkReferences": {}
}