{
  "_format": "hh-sol-artifact-1",
  "contractName": "Allowlist",
  "sourceName": "contracts/lit-node/Allowlist.sol",
  "abi": [
    {
      "inputs": [],
      "stateMutability": "nonpayable",
      "type": "constructor"
    },
    {
      "anonymous": false,
      "inputs": [
        {
          "indexed": true,
          "internalType": "address",
          "name": "newAdmin",
          "type": "address"
        }
      ],
      "name": "AdminAdded",
      "type": "event"
    },
    {
      "anonymous": false,
      "inputs": [
        {
          "indexed": true,
          "internalType": "address",
          "name": "newAdmin",
          "type": "address"
        }
      ],
      "name": "AdminRemoved",
      "type": "event"
    },
    {
      "anonymous": false,
      "inputs": [
        {
          "indexed": true,
          "internalType": "bytes32",
          "name": "key",
          "type": "bytes32"
        }
      ],
      "name": "ItemAllowed",
      "type": "event"
    },
    {
      "anonymous": false,
      "inputs": [
        {
          "indexed": true,
          "internalType": "bytes32",
          "name": "key",
          "type": "bytes32"
        }
      ],
      "name": "ItemNotAllowed",
      "type": "event"
    },
    {
      "anonymous": false,
      "inputs": [
        {
          "indexed": true,
          "internalType": "address",
          "name": "previousOwner",
          "type": "address"
        },
        {
          "indexed": true,
          "internalType": "address",
          "name": "newOwner",
          "type": "address"
        }
      ],
      "name": "OwnershipTransferred",
      "type": "event"
    },
    {
      "inputs": [
        {
          "internalType": "address",
          "name": "newAdmin",
          "type": "address"
        }
      ],
      "name": "addAdmin",
      "outputs": [],
      "stateMutability": "nonpayable",
      "type": "function"
    },
    {
      "inputs": [],
      "name": "allowAll",
      "outputs": [
        {
          "internalType": "bool",
          "name": "",
          "type": "bool"
        }
      ],
      "stateMutability": "view",
      "type": "function"
    },
    {
      "inputs": [
        {
          "internalType": "bytes32",
          "name": "",
          "type": "bytes32"
        }
      ],
      "name": "allowedItems",
      "outputs": [
        {
          "internalType": "bool",
          "name": "",
          "type": "bool"
        }
      ],
      "stateMutability": "view",
      "type": "function"
    },
    {
      "inputs": [
        {
          "internalType": "bytes32",
          "name": "key",
          "type": "bytes32"
        }
      ],
      "name": "isAllowed",
      "outputs": [
        {
          "internalType": "bool",
          "name": "",
          "type": "bool"
        }
      ],
      "stateMutability": "view",
      "type": "function"
    },
    {
      "inputs": [],
      "name": "owner",
      "outputs": [
        {
          "internalType": "address",
          "name": "",
          "type": "address"
        }
      ],
      "stateMutability": "view",
      "type": "function"
    },
    {
      "inputs": [
        {
          "internalType": "address",
          "name": "newAdmin",
          "type": "address"
        }
      ],
      "name": "removeAdmin",
      "outputs": [],
      "stateMutability": "nonpayable",
      "type": "function"
    },
    {
      "inputs": [],
      "name": "renounceOwnership",
      "outputs": [],
      "stateMutability": "nonpayable",
      "type": "function"
    },
    {
      "inputs": [
        {
          "internalType": "bool",
          "name": "_allowAll",
          "type": "bool"
        }
      ],
      "name": "setAllowAll",
      "outputs": [],
      "stateMutability": "nonpayable",
      "type": "function"
    },
    {
      "inputs": [
        {
          "internalType": "bytes32",
          "name": "key",
          "type": "bytes32"
        }
      ],
      "name": "setAllowed",
      "outputs": [],
      "stateMutability": "nonpayable",
      "type": "function"
    },
    {
      "inputs": [
        {
          "internalType": "bytes32",
          "name": "key",
          "type": "bytes32"
        }
      ],
      "name": "setNotAllowed",
      "outputs": [],
      "stateMutability": "nonpayable",
      "type": "function"
    },
    {
      "inputs": [
        {
          "internalType": "address",
          "name": "newOwner",
          "type": "address"
        }
      ],
      "name": "transferOwnership",
      "outputs": [],
      "stateMutability": "nonpayable",
      "type": "function"
    }
  ],
  "bytecode": "0x6080604052348015600f57600080fd5b506017336029565b6001805560246003336079565b5060e1565b600080546001600160a01b038381166001600160a01b0319831681178455604051919092169283917f8be0079c531659141344cd1fd0a4f28419497f9722a3daafe3b4186f6b6457e09190a35050565b6000608c836001600160a01b0384166095565b90505b92915050565b600081815260018301602052604081205460da57508154600181810184556000848152602080822090930184905584548482528286019093526040902091909155608f565b506000608f565b61073f806100f06000396000f3fe608060405234801561001057600080fd5b50600436106100995760003560e01c80631785f53c1461009e5780634d7d9c01146100b35780634ee643a5146100c657806352f97536146100e8578063704802751461010b578063715018a61461011e578063787552951461012657806386581597146101395780638767d9aa1461014c5780638da5cb5b1461015f578063f2fde38b1461017f575b600080fd5b6100b16100ac36600461062b565b610192565b005b6100b16100c136600461065b565b6101dd565b6005546100d39060ff1681565b60405190151581526020015b60405180910390f35b6100d36100f636600461067d565b60026020526000908152604090205460ff1681565b6100b161011936600461062b565b6101f8565b6100b1610243565b6100d361013436600461067d565b610257565b6100b161014736600461067d565b610283565b6100b161015a36600461067d565b6102f6565b61016761035d565b6040516001600160a01b0390911681526020016100df565b6100b161018d36600461062b565b61036c565b61019a6103e5565b6101a5600382610444565b506040516001600160a01b038216907fa3b62bc36326052d97ea62d63c3d60308ed4c3ea8ac079dd8499f1e9c4f80c0f90600090a250565b6101e56103e5565b6005805460ff1916911515919091179055565b6102006103e5565b61020b600382610462565b506040516001600160a01b038216907f44d6d25963f097ad14f29f06854a01f575648a1ef82f30e562ccd3889717e33990600090a250565b61024b6103e5565b6102556000610477565b565b60055460009060ff161561026d57506001919050565b5060009081526002602052604090205460ff1690565b61028e6003336104c7565b6102b35760405162461bcd60e51b81526004016102aa90610696565b60405180910390fd5b600081815260026020526040808220805460ff191660011790555182917fe4be98886a3c8cd9027fdb44065f6b81514c5cf5a1dab85eb7733beb531580ef91a250565b6103016003336104c7565b61031d5760405162461bcd60e51b81526004016102aa90610696565b600081815260026020526040808220805460ff191690555182917fa676ee7eed1b9e9e90c0ce1964919b8a084b891bafa6b778b64571f338c0cd9591a250565b6000546001600160a01b031690565b6103746103e5565b6001600160a01b0381166103d95760405162461bcd60e51b815260206004820152602660248201527f4f776e61626c653a206e6577206f776e657220697320746865207a65726f206160448201526564647265737360d01b60648201526084016102aa565b6103e281610477565b50565b336103ee61035d565b6001600160a01b0316146102555760405162461bcd60e51b815260206004820181905260248201527f4f776e61626c653a2063616c6c6572206973206e6f7420746865206f776e657260448201526064016102aa565b6000610459836001600160a01b0384166104e9565b90505b92915050565b6000610459836001600160a01b0384166105dc565b600080546001600160a01b038381166001600160a01b0319831681178455604051919092169283917f8be0079c531659141344cd1fd0a4f28419497f9722a3daafe3b4186f6b6457e09190a35050565b6001600160a01b03811660009081526001830160205260408120541515610459565b600081815260018301602052604081205480156105d257600061050d6001836106bc565b8554909150600090610521906001906106bc565b9050818114610586576000866000018281548110610541576105416106dd565b9060005260206000200154905080876000018481548110610564576105646106dd565b6000918252602080832090910192909255918252600188019052604090208390555b8554869080610597576105976106f3565b60019003818190600052602060002001600090559055856001016000868152602001908152602001600020600090556001935050505061045c565b600091505061045c565b60008181526001830160205260408120546106235750815460018181018455600084815260208082209093018490558454848252828601909352604090209190915561045c565b50600061045c565b60006020828403121561063d57600080fd5b81356001600160a01b038116811461065457600080fd5b9392505050565b60006020828403121561066d57600080fd5b8135801515811461065457600080fd5b60006020828403121561068f57600080fd5b5035919050565b6020808252600c908201526b2737ba1030b71030b236b4b760a11b604082015260600190565b8181038181111561045c57634e487b7160e01b600052601160045260246000fd5b634e487b7160e01b600052603260045260246000fd5b634e487b7160e01b600052603160045260246000fdfea2646970667358221220e135b63f6124c700dd9e64691f086fe0d2ef529ca678ab7b810caa4df192c95064736f6c634300081c0033",
  "linkReferences": {},
  "deployedLinkReferences": {}
}