{
  "_format": "hh-sol-artifact-1",
  "contractName": "ArbitrumKeyDeriver",
  "sourceName": "contracts/lit-node/HDKeyDeriver.sol",
  "abi": [
    {
      "inputs": [
        {
          "internalType": "address",
          "name": "_resolver",
          "type": "address"
        },
        {
          "internalType": "enum ContractResolver.Env",
          "name": "_env",
          "type": "uint8"
        }
      ],
      "stateMutability": "nonpayable",
      "type": "constructor"
    },
    {
      "anonymous": false,
      "inputs": [
        {
          "indexed": true,
          "internalType": "bytes32",
          "name": "role",
          "type": "bytes32"
        },
        {
          "indexed": true,
          "internalType": "bytes32",
          "name": "previousAdminRole",
          "type": "bytes32"
        },
        {
          "indexed": true,
          "internalType": "bytes32",
          "name": "newAdminRole",
          "type": "bytes32"
        }
      ],
      "name": "RoleAdminChanged",
      "type": "event"
    },
    {
      "anonymous": false,
      "inputs": [
        {
          "indexed": true,
          "internalType": "bytes32",
          "name": "role",
          "type": "bytes32"
        },
        {
          "indexed": true,
          "internalType": "address",
          "name": "account",
          "type": "address"
        },
        {
          "indexed": true,
          "internalType": "address",
          "name": "sender",
          "type": "address"
        }
      ],
      "name": "RoleGranted",
      "type": "event"
    },
    {
      "anonymous": false,
      "inputs": [
        {
          "indexed": true,
          "internalType": "bytes32",
          "name": "role",
          "type": "bytes32"
        },
        {
          "indexed": true,
          "internalType": "address",
          "name": "account",
          "type": "address"
        },
        {
          "indexed": true,
          "internalType": "address",
          "name": "sender",
          "type": "address"
        }
      ],
      "name": "RoleRevoked",
      "type": "event"
    },
    {
      "inputs": [],
      "name": "ADMIN_ROLE",
      "outputs": [
        {
          "internalType": "bytes32",
          "name": "",
          "type": "bytes32"
        }
      ],
      "stateMutability": "view",
      "type": "function"
    },
    {
      "inputs": [],
      "name": "DEFAULT_ADMIN_ROLE",
      "outputs": [
        {
          "internalType": "bytes32",
          "name": "",
          "type": "bytes32"
        }
      ],
      "stateMutability": "view",
      "type": "function"
    },
    {
      "inputs": [],
      "name": "HD_KDF_K256",
      "outputs": [
        {
          "internalType": "bytes32",
          "name": "",
          "type": "bytes32"
        }
      ],
      "stateMutability": "view",
      "type": "function"
    },
    {
      "inputs": [],
      "name": "HD_KDF_P256",
      "outputs": [
        {
          "internalType": "bytes32",
          "name": "",
          "type": "bytes32"
        }
      ],
      "stateMutability": "view",
      "type": "function"
    },
    {
      "inputs": [
        {
          "internalType": "bytes32",
          "name": "derivedKeyId",
          "type": "bytes32"
        },
        {
          "components": [
            {
              "internalType": "bytes",
              "name": "pubkey",
              "type": "bytes"
            },
            {
              "internalType": "uint256",
              "name": "keyType",
              "type": "uint256"
            }
          ],
          "internalType": "struct IPubkeyRouter.RootKey[]",
          "name": "rootHDKeys",
          "type": "tuple[]"
        },
        {
          "internalType": "uint256",
          "name": "keyType",
          "type": "uint256"
        }
      ],
      "name": "computeHDPubKey",
      "outputs": [
        {
          "internalType": "bool",
          "name": "",
          "type": "bool"
        },
        {
          "internalType": "bytes",
          "name": "",
          "type": "bytes"
        }
      ],
      "stateMutability": "view",
      "type": "function"
    },
    {
      "inputs": [],
      "name": "contractResolver",
      "outputs": [
        {
          "internalType": "contract ContractResolver",
          "name": "",
          "type": "address"
        }
      ],
      "stateMutability": "view",
      "type": "function"
    },
    {
      "inputs": [],
      "name": "env",
      "outputs": [
        {
          "internalType": "enum ContractResolver.Env",
          "name": "",
          "type": "uint8"
        }
      ],
      "stateMutability": "view",
      "type": "function"
    },
    {
      "inputs": [
        {
          "internalType": "bytes32",
          "name": "role",
          "type": "bytes32"
        }
      ],
      "name": "getRoleAdmin",
      "outputs": [
        {
          "internalType": "bytes32",
          "name": "",
          "type": "bytes32"
        }
      ],
      "stateMutability": "view",
      "type": "function"
    },
    {
      "inputs": [
        {
          "internalType": "bytes32",
          "name": "role",
          "type": "bytes32"
        },
        {
          "internalType": "address",
          "name": "account",
          "type": "address"
        }
      ],
      "name": "grantRole",
      "outputs": [],
      "stateMutability": "nonpayable",
      "type": "function"
    },
    {
      "inputs": [
        {
          "internalType": "bytes32",
          "name": "role",
          "type": "bytes32"
        },
        {
          "internalType": "address",
          "name": "account",
          "type": "address"
        }
      ],
      "name": "hasRole",
      "outputs": [
        {
          "internalType": "bool",
          "name": "",
          "type": "bool"
        }
      ],
      "stateMutability": "view",
      "type": "function"
    },
    {
      "inputs": [
        {
          "internalType": "bytes32",
          "name": "role",
          "type": "bytes32"
        },
        {
          "internalType": "address",
          "name": "account",
          "type": "address"
        }
      ],
      "name": "renounceRole",
      "outputs": [],
      "stateMutability": "nonpayable",
      "type": "function"
    },
    {
      "inputs": [
        {
          "internalType": "bytes32",
          "name": "role",
          "type": "bytes32"
        },
        {
          "internalType": "address",
          "name": "account",
          "type": "address"
        }
      ],
      "name": "revokeRole",
      "outputs": [],
      "stateMutability": "nonpayable",
      "type": "function"
    },
    {
      "inputs": [
        {
          "internalType": "address",
          "name": "contractResolverAddress",
          "type": "address"
        }
      ],
      "name": "setContractResolver",
      "outputs": [],
      "stateMutability": "nonpayable",
      "type": "function"
    },
    {
      "inputs": [
        {
          "internalType": "bytes4",
          "name": "interfaceId",
          "type": "bytes4"
        }
      ],
      "name": "supportsInterface",
      "outputs": [
        {
          "internalType": "bool",
          "name": "",
          "type": "bool"
        }
      ],
      "stateMutability": "view",
      "type": "function"
    }
  ],
  "bytecode": "0x608060405234801561001057600080fd5b506040516111ca3803806111ca83398101604081905261002f916101a4565b6100476000805160206111aa833981519152336100ad565b61005f6000805160206111aa833981519152806100bb565b600180546001600160a01b0384166001600160a01b03198216811783558392916001600160a81b03191617600160a01b8360028111156100a1576100a16101ee565b02179055505050610204565b6100b78282610106565b5050565b600082815260208190526040808220600101805490849055905190918391839186917fbd79b86ffe0ab8e8776151514217cd7cacd52c909f66475c3af44e129f0b00ff9190a4505050565b6000828152602081815260408083206001600160a01b038516845290915290205460ff166100b7576000828152602081815260408083206001600160a01b03851684529091529020805460ff191660011790556101603390565b6001600160a01b0316816001600160a01b0316837f2f8788117e7eff1d82e926ec794901d17c78024a50270940304540a733656f0d60405160405180910390a45050565b600080604083850312156101b757600080fd5b82516001600160a01b03811681146101ce57600080fd5b6020840151909250600381106101e357600080fd5b809150509250929050565b634e487b7160e01b600052602160045260246000fd5b610f97806102136000396000f3fe608060405234801561001057600080fd5b50600436106100ba5760003560e01c806301ffc9a7146100bf578063248a9ca3146100e75780632f2ff15d1461010857806336568abe1461011d57806350d17b5e1461013057806375b238fc1461015b57806391d14854146101825780639dca003214610195578063a217fddf146101b6578063a32c2b99146101be578063b24ed308146101df578063d547741f14610206578063f95d71b114610219578063fe89c9701461022c575b600080fd5b6100d26100cd36600461098d565b610252565b60405190151581526020015b60405180910390f35b6100fa6100f53660046109b7565b610289565b6040519081526020016100de565b61011b6101163660046109e5565b61029e565b005b61011b61012b3660046109e5565b6102bf565b600154610143906001600160a01b031681565b6040516001600160a01b0390911681526020016100de565b6100fa7fdf8b4c520ffe197c5343c6f5aec59570151ef9a492f2c624fd45ddde6135ec4281565b6100d26101903660046109e5565b610342565b6001546101a990600160a01b900460ff1681565b6040516100de9190610a37565b6100fa600081565b6101d16101cc366004610ada565b61036b565b6040516100de929190610c92565b6100fa7f9a91862ef15434e2658e682752e743fa4975a117807df7f0eacab66e37e804d981565b61011b6102143660046109e5565b6104f6565b61011b610227366004610cb5565b610512565b6100fa7ec348ef80e66d22f4440a90bf9643a03c82260d0dcca4286cf114cc97db0c6481565b60006001600160e01b03198216637965db0b60e01b148061028357506301ffc9a760e01b6001600160e01b03198316145b92915050565b60009081526020819052604090206001015490565b6102a782610289565b6102b08161055f565b6102ba838361056c565b505050565b6001600160a01b03811633146103345760405162461bcd60e51b815260206004820152602f60248201527f416363657373436f6e74726f6c3a2063616e206f6e6c792072656e6f756e636560448201526e103937b632b9903337b91039b2b63360891b60648201526084015b60405180910390fd5b61033e82826105f0565b5050565b6000918252602082815260408084206001600160a01b0393909316845291905290205460ff1690565b60006060600061037c868686610655565b905060008160008151811061039357610393610cd2565b01602001516001600160f81b0319166000036103d057507f9a91862ef15434e2658e682752e743fa4975a117807df7f0eacab66e37e804d96103f2565b507ec348ef80e66d22f4440a90bf9643a03c82260d0dcca4286cf114cc97db0c645b600154604051634746fe8b60e11b81526000916001600160a01b03811691638e8dfd169161042f918691600160a01b900460ff1690600401610ce8565b602060405180830381865afa15801561044c573d6000803e3d6000fd5b505050506040513d601f19601f820116820180604052508101906104709190610cfc565b90506000816001600160a01b031663ec723367856040518263ffffffff1660e01b81526004016104a09190610d19565b600060405180830381865afa1580156104bd573d6000803e3d6000fd5b505050506040513d6000823e601f3d908101601f191682016040526104e59190810190610d2c565b60019a909950975050505050505050565b6104ff82610289565b6105088161055f565b6102ba83836105f0565b7fdf8b4c520ffe197c5343c6f5aec59570151ef9a492f2c624fd45ddde6135ec4261053c8161055f565b50600180546001600160a01b0319166001600160a01b0392909216919091179055565b6105698133610787565b50565b6105768282610342565b61033e576000828152602081815260408083206001600160a01b03851684529091529020805460ff191660011790556105ac3390565b6001600160a01b0316816001600160a01b0316837f2f8788117e7eff1d82e926ec794901d17c78024a50270940304540a733656f0d60405160405180910390a45050565b6105fa8282610342565b1561033e576000828152602081815260408083206001600160a01b0385168085529252808320805460ff1916905551339285917ff6391f5c32d9c69d2a47ea670b442974b53935d1edc7fd64eb21e047a839171b9190a45050565b60408051600080825260208201909252606091805b85518110156106ef578486828151811061068657610686610cd2565b602002602001015160200151036106e757828682815181106106aa576106aa610cd2565b6020026020010151600001516040516020016106c7929190610da2565b604051602081830303815290604052925081806106e390610de7565b9250505b60010161066a565b5083600203610701576001935061070e565b8360030361070e57600093505b60006040518060600160405280602b8152602001610f37602b9139805160405191925060f887901b91600160e51b9160e090811b919086901b9060009061076590869086908f9087908b9088908f90602001610e0c565b60408051601f19818403018152919052985050505050505050505b9392505050565b6107918282610342565b61033e5761079e816107e0565b6107a98360206107f2565b6040516020016107ba929190610e86565b60408051601f198184030181529082905262461bcd60e51b825261032b91600401610d19565b60606102836001600160a01b03831660145b60606000610801836002610ef5565b61080c906002610f0c565b6001600160401b0381111561082357610823610a45565b6040519080825280601f01601f19166020018201604052801561084d576020820181803683370190505b509050600360fc1b8160008151811061086857610868610cd2565b60200101906001600160f81b031916908160001a905350600f60fb1b8160018151811061089757610897610cd2565b60200101906001600160f81b031916908160001a90535060006108bb846002610ef5565b6108c6906001610f0c565b90505b600181111561093e576f181899199a1a9b1b9c1cb0b131b232b360811b85600f16601081106108fa576108fa610cd2565b1a60f81b82828151811061091057610910610cd2565b60200101906001600160f81b031916908160001a90535060049490941c9361093781610f1f565b90506108c9565b5083156107805760405162461bcd60e51b815260206004820181905260248201527f537472696e67733a20686578206c656e67746820696e73756666696369656e74604482015260640161032b565b60006020828403121561099f57600080fd5b81356001600160e01b03198116811461078057600080fd5b6000602082840312156109c957600080fd5b5035919050565b6001600160a01b038116811461056957600080fd5b600080604083850312156109f857600080fd5b823591506020830135610a0a816109d0565b809150509250929050565b60038110610a3357634e487b7160e01b600052602160045260246000fd5b9052565b602081016102838284610a15565b634e487b7160e01b600052604160045260246000fd5b604080519081016001600160401b0381118282101715610a7d57610a7d610a45565b60405290565b604051601f8201601f191681016001600160401b0381118282101715610aab57610aab610a45565b604052919050565b60006001600160401b03821115610acc57610acc610a45565b50601f01601f191660200190565b600080600060608486031215610aef57600080fd5b8335925060208401356001600160401b03811115610b0c57600080fd5b8401601f81018613610b1d57600080fd5b80356001600160401b03811115610b3657610b36610a45565b8060051b610b4660208201610a83565b91825260208184018101929081019089841115610b6257600080fd5b6020850192505b83831015610c2d5782356001600160401b03811115610b8757600080fd5b85016040818c03601f19011215610b9d57600080fd5b610ba5610a5b565b60208201356001600160401b03811115610bbe57600080fd5b82016020810190603f018d13610bd357600080fd5b8035610be6610be182610ab3565b610a83565b8181528e6020838501011115610bfb57600080fd5b816020840160208301376000602092820183015283526040939093013582840152508352928301929190910190610b69565b96999698505050506040949094013593505050565b60005b83811015610c5d578181015183820152602001610c45565b50506000910152565b60008151808452610c7e816020860160208601610c42565b601f01601f19169290920160200192915050565b8215158152604060208201526000610cad6040830184610c66565b949350505050565b600060208284031215610cc757600080fd5b8135610780816109d0565b634e487b7160e01b600052603260045260246000fd5b828152604081016107806020830184610a15565b600060208284031215610d0e57600080fd5b8151610780816109d0565b6020815260006107806020830184610c66565b600060208284031215610d3e57600080fd5b81516001600160401b03811115610d5457600080fd5b8201601f81018413610d6557600080fd5b8051610d73610be182610ab3565b818152856020838501011115610d8857600080fd5b610d99826020830160208601610c42565b95945050505050565b60008351610db4818460208801610c42565b835190830190610dc8818360208801610c42565b01949350505050565b634e487b7160e01b600052601160045260246000fd5b600063ffffffff821663ffffffff8103610e0357610e03610dd1565b60010192915050565b6001600160f81b0319881681526001600160e01b0319878116600183015260058201879052851660258201528351600090610e4e816029850160208901610c42565b6001600160e01b031985166029918401918201528351610e7581602d840160208801610c42565b01602d019998505050505050505050565b76020b1b1b2b9b9a1b7b73a3937b61d1030b1b1b7bab73a1604d1b815260008351610eb8816017850160208801610c42565b7001034b99036b4b9b9b4b733903937b6329607d1b6017918401918201528351610ee9816028840160208801610c42565b01602801949350505050565b808202811582820484141761028357610283610dd1565b8082018082111561028357610283610dd1565b600081610f2e57610f2e610dd1565b50600019019056fe4c49545f48445f4b45595f49445f4b3235365f584d443a5348412d3235365f535357555f524f5f4e554c5fa2646970667358221220bdc8612bb25d7d879718d919f8d48a539a8f5aea688047d221856122dc78617064736f6c634300081c0033df8b4c520ffe197c5343c6f5aec59570151ef9a492f2c624fd45ddde6135ec42",
  "linkReferences": {},
  "deployedLinkReferences": {}
}