{
  "_format": "hh-sol-artifact-1",
  "contractName": "ContractResolver",
  "sourceName": "contracts/lit-core/ContractResolver.sol",
  "abi": [
    {
      "inputs": [
        {
          "internalType": "enum ContractResolver.Env",
          "name": "env",
          "type": "uint8"
        }
      ],
      "stateMutability": "nonpayable",
      "type": "constructor"
    },
    {
      "inputs": [],
      "name": "AdminRoleRequired",
      "type": "error"
    },
    {
      "anonymous": false,
      "inputs": [
        {
          "indexed": false,
          "internalType": "enum ContractResolver.Env",
          "name": "env",
          "type": "uint8"
        }
      ],
      "name": "AllowedEnvAdded",
      "type": "event"
    },
    {
      "anonymous": false,
      "inputs": [
        {
          "indexed": false,
          "internalType": "enum ContractResolver.Env",
          "name": "env",
          "type": "uint8"
        }
      ],
      "name": "AllowedEnvRemoved",
      "type": "event"
    },
    {
      "anonymous": false,
      "inputs": [
        {
          "indexed": true,
          "internalType": "bytes32",
          "name": "role",
          "type": "bytes32"
        },
        {
          "indexed": true,
          "internalType": "bytes32",
          "name": "previousAdminRole",
          "type": "bytes32"
        },
        {
          "indexed": true,
          "internalType": "bytes32",
          "name": "newAdminRole",
          "type": "bytes32"
        }
      ],
      "name": "RoleAdminChanged",
      "type": "event"
    },
    {
      "anonymous": false,
      "inputs": [
        {
          "indexed": true,
          "internalType": "bytes32",
          "name": "role",
          "type": "bytes32"
        },
        {
          "indexed": true,
          "internalType": "address",
          "name": "account",
          "type": "address"
        },
        {
          "indexed": true,
          "internalType": "address",
          "name": "sender",
          "type": "address"
        }
      ],
      "name": "RoleGranted",
      "type": "event"
    },
    {
      "anonymous": false,
      "inputs": [
        {
          "indexed": true,
          "internalType": "bytes32",
          "name": "role",
          "type": "bytes32"
        },
        {
          "indexed": true,
          "internalType": "address",
          "name": "account",
          "type": "address"
        },
        {
          "indexed": true,
          "internalType": "address",
          "name": "sender",
          "type": "address"
        }
      ],
      "name": "RoleRevoked",
      "type": "event"
    },
    {
      "anonymous": false,
      "inputs": [
        {
          "indexed": false,
          "internalType": "bytes32",
          "name": "typ",
          "type": "bytes32"
        },
        {
          "indexed": false,
          "internalType": "enum ContractResolver.Env",
          "name": "env",
          "type": "uint8"
        },
        {
          "indexed": false,
          "internalType": "address",
          "name": "addr",
          "type": "address"
        }
      ],
      "name": "SetContract",
      "type": "event"
    },
    {
      "inputs": [],
      "name": "ADMIN_ROLE",
      "outputs": [
        {
          "internalType": "bytes32",
          "name": "",
          "type": "bytes32"
        }
      ],
      "stateMutability": "view",
      "type": "function"
    },
    {
      "inputs": [],
      "name": "ALLOWLIST_CONTRACT",
      "outputs": [
        {
          "internalType": "bytes32",
          "name": "",
          "type": "bytes32"
        }
      ],
      "stateMutability": "view",
      "type": "function"
    },
    {
      "inputs": [],
      "name": "BACKUP_RECOVERY_CONTRACT",
      "outputs": [
        {
          "internalType": "bytes32",
          "name": "",
          "type": "bytes32"
        }
      ],
      "stateMutability": "view",
      "type": "function"
    },
    {
      "inputs": [],
      "name": "DEFAULT_ADMIN_ROLE",
      "outputs": [
        {
          "internalType": "bytes32",
          "name": "",
          "type": "bytes32"
        }
      ],
      "stateMutability": "view",
      "type": "function"
    },
    {
      "inputs": [],
      "name": "DOMAIN_WALLET_REGISTRY",
      "outputs": [
        {
          "internalType": "bytes32",
          "name": "",
          "type": "bytes32"
        }
      ],
      "stateMutability": "view",
      "type": "function"
    },
    {
      "inputs": [],
      "name": "FORWARDER_CONTRACT",
      "outputs": [
        {
          "internalType": "bytes32",
          "name": "",
          "type": "bytes32"
        }
      ],
      "stateMutability": "view",
      "type": "function"
    },
    {
      "inputs": [],
      "name": "HD_KEY_DERIVER_CONTRACT",
      "outputs": [
        {
          "internalType": "bytes32",
          "name": "",
          "type": "bytes32"
        }
      ],
      "stateMutability": "view",
      "type": "function"
    },
    {
      "inputs": [],
      "name": "HOST_COMMANDS_CONTRACT",
      "outputs": [
        {
          "internalType": "bytes32",
          "name": "",
          "type": "bytes32"
        }
      ],
      "stateMutability": "view",
      "type": "function"
    },
    {
      "inputs": [],
      "name": "LEDGER_CONTRACT",
      "outputs": [
        {
          "internalType": "bytes32",
          "name": "",
          "type": "bytes32"
        }
      ],
      "stateMutability": "view",
      "type": "function"
    },
    {
      "inputs": [],
      "name": "LIT_TOKEN_CONTRACT",
      "outputs": [
        {
          "internalType": "bytes32",
          "name": "",
          "type": "bytes32"
        }
      ],
      "stateMutability": "view",
      "type": "function"
    },
    {
      "inputs": [],
      "name": "MULTI_SENDER_CONTRACT",
      "outputs": [
        {
          "internalType": "bytes32",
          "name": "",
          "type": "bytes32"
        }
      ],
      "stateMutability": "view",
      "type": "function"
    },
    {
      "inputs": [],
      "name": "PAYMENT_DELEGATION_CONTRACT",
      "outputs": [
        {
          "internalType": "bytes32",
          "name": "",
          "type": "bytes32"
        }
      ],
      "stateMutability": "view",
      "type": "function"
    },
    {
      "inputs": [],
      "name": "PKP_HELPER_CONTRACT",
      "outputs": [
        {
          "internalType": "bytes32",
          "name": "",
          "type": "bytes32"
        }
      ],
      "stateMutability": "view",
      "type": "function"
    },
    {
      "inputs": [],
      "name": "PKP_HELPER_V2_CONTRACT",
      "outputs": [
        {
          "internalType": "bytes32",
          "name": "",
          "type": "bytes32"
        }
      ],
      "stateMutability": "view",
      "type": "function"
    },
    {
      "inputs": [],
      "name": "PKP_NFT_CONTRACT",
      "outputs": [
        {
          "internalType": "bytes32",
          "name": "",
          "type": "bytes32"
        }
      ],
      "stateMutability": "view",
      "type": "function"
    },
    {
      "inputs": [],
      "name": "PKP_NFT_METADATA_CONTRACT",
      "outputs": [
        {
          "internalType": "bytes32",
          "name": "",
          "type": "bytes32"
        }
      ],
      "stateMutability": "view",
      "type": "function"
    },
    {
      "inputs": [],
      "name": "PKP_PERMISSIONS_CONTRACT",
      "outputs": [
        {
          "internalType": "bytes32",
          "name": "",
          "type": "bytes32"
        }
      ],
      "stateMutability": "view",
      "type": "function"
    },
    {
      "inputs": [],
      "name": "PRICE_FEED_CONTRACT",
      "outputs": [
        {
          "internalType": "bytes32",
          "name": "",
          "type": "bytes32"
        }
      ],
      "stateMutability": "view",
      "type": "function"
    },
    {
      "inputs": [],
      "name": "PUB_KEY_ROUTER_CONTRACT",
      "outputs": [
        {
          "internalType": "bytes32",
          "name": "",
          "type": "bytes32"
        }
      ],
      "stateMutability": "view",
      "type": "function"
    },
    {
      "inputs": [],
      "name": "RATE_LIMIT_NFT_CONTRACT",
      "outputs": [
        {
          "internalType": "bytes32",
          "name": "",
          "type": "bytes32"
        }
      ],
      "stateMutability": "view",
      "type": "function"
    },
    {
      "inputs": [],
      "name": "RELEASE_REGISTER_CONTRACT",
      "outputs": [
        {
          "internalType": "bytes32",
          "name": "",
          "type": "bytes32"
        }
      ],
      "stateMutability": "view",
      "type": "function"
    },
    {
      "inputs": [],
      "name": "STAKING_BALANCES_CONTRACT",
      "outputs": [
        {
          "internalType": "bytes32",
          "name": "",
          "type": "bytes32"
        }
      ],
      "stateMutability": "view",
      "type": "function"
    },
    {
      "inputs": [],
      "name": "STAKING_CONTRACT",
      "outputs": [
        {
          "internalType": "bytes32",
          "name": "",
          "type": "bytes32"
        }
      ],
      "stateMutability": "view",
      "type": "function"
    },
    {
      "inputs": [
        {
          "internalType": "address",
          "name": "newAdmin",
          "type": "address"
        }
      ],
      "name": "addAdmin",
      "outputs": [],
      "stateMutability": "nonpayable",
      "type": "function"
    },
    {
      "inputs": [
        {
          "internalType": "enum ContractResolver.Env",
          "name": "env",
          "type": "uint8"
        }
      ],
      "name": "addAllowedEnv",
      "outputs": [],
      "stateMutability": "nonpayable",
      "type": "function"
    },
    {
      "inputs": [
        {
          "internalType": "bytes32",
          "name": "typ",
          "type": "bytes32"
        },
        {
          "internalType": "enum ContractResolver.Env",
          "name": "env",
          "type": "uint8"
        }
      ],
      "name": "getContract",
      "outputs": [
        {
          "internalType": "address",
          "name": "",
          "type": "address"
        }
      ],
      "stateMutability": "view",
      "type": "function"
    },
    {
      "inputs": [
        {
          "internalType": "bytes32",
          "name": "role",
          "type": "bytes32"
        }
      ],
      "name": "getRoleAdmin",
      "outputs": [
        {
          "internalType": "bytes32",
          "name": "",
          "type": "bytes32"
        }
      ],
      "stateMutability": "view",
      "type": "function"
    },
    {
      "inputs": [
        {
          "internalType": "bytes32",
          "name": "role",
          "type": "bytes32"
        },
        {
          "internalType": "address",
          "name": "account",
          "type": "address"
        }
      ],
      "name": "grantRole",
      "outputs": [],
      "stateMutability": "nonpayable",
      "type": "function"
    },
    {
      "inputs": [
        {
          "internalType": "bytes32",
          "name": "role",
          "type": "bytes32"
        },
        {
          "internalType": "address",
          "name": "account",
          "type": "address"
        }
      ],
      "name": "hasRole",
      "outputs": [
        {
          "internalType": "bool",
          "name": "",
          "type": "bool"
        }
      ],
      "stateMutability": "view",
      "type": "function"
    },
    {
      "inputs": [
        {
          "internalType": "address",
          "name": "adminBeingRemoved",
          "type": "address"
        }
      ],
      "name": "removeAdmin",
      "outputs": [],
      "stateMutability": "nonpayable",
      "type": "function"
    },
    {
      "inputs": [
        {
          "internalType": "enum ContractResolver.Env",
          "name": "env",
          "type": "uint8"
        }
      ],
      "name": "removeAllowedEnv",
      "outputs": [],
      "stateMutability": "nonpayable",
      "type": "function"
    },
    {
      "inputs": [
        {
          "internalType": "bytes32",
          "name": "role",
          "type": "bytes32"
        },
        {
          "internalType": "address",
          "name": "account",
          "type": "address"
        }
      ],
      "name": "renounceRole",
      "outputs": [],
      "stateMutability": "nonpayable",
      "type": "function"
    },
    {
      "inputs": [
        {
          "internalType": "bytes32",
          "name": "role",
          "type": "bytes32"
        },
        {
          "internalType": "address",
          "name": "account",
          "type": "address"
        }
      ],
      "name": "revokeRole",
      "outputs": [],
      "stateMutability": "nonpayable",
      "type": "function"
    },
    {
      "inputs": [
        {
          "internalType": "bytes32",
          "name": "typ",
          "type": "bytes32"
        },
        {
          "internalType": "enum ContractResolver.Env",
          "name": "env",
          "type": "uint8"
        },
        {
          "internalType": "address",
          "name": "addr",
          "type": "address"
        }
      ],
      "name": "setContract",
      "outputs": [],
      "stateMutability": "nonpayable",
      "type": "function"
    },
    {
      "inputs": [
        {
          "internalType": "bytes4",
          "name": "interfaceId",
          "type": "bytes4"
        }
      ],
      "name": "supportsInterface",
      "outputs": [
        {
          "internalType": "bool",
          "name": "",
          "type": "bool"
        }
      ],
      "stateMutability": "view",
      "type": "function"
    },
    {
      "inputs": [
        {
          "internalType": "bytes32",
          "name": "",
          "type": "bytes32"
        },
        {
          "internalType": "enum ContractResolver.Env",
          "name": "",
          "type": "uint8"
        }
      ],
      "name": "typeAddresses",
      "outputs": [
        {
          "internalType": "address",
          "name": "",
          "type": "address"
        }
      ],
      "stateMutability": "view",
      "type": "function"
    }
  ],
  "bytecode": "0x608060405234801561001057600080fd5b5060405161146738038061146783398101604081905261002f916101e0565b610047600080516020611447833981519152336100e9565b61005f600080516020611447833981519152806100f7565b600180600083600281111561007657610076610208565b600281111561008757610087610208565b815260200190815260200160002060006101000a81548160ff0219169083151502179055507f839ad2743d4062df579edf3818f642b71ee0688a35d6bc4438ef5314cece8015816040516100db919061021e565b60405180910390a150610246565b6100f38282610142565b5050565b600082815260208190526040808220600101805490849055905190918391839186917fbd79b86ffe0ab8e8776151514217cd7cacd52c909f66475c3af44e129f0b00ff9190a4505050565b6000828152602081815260408083206001600160a01b038516845290915290205460ff166100f3576000828152602081815260408083206001600160a01b03851684529091529020805460ff1916600117905561019c3390565b6001600160a01b0316816001600160a01b0316837f2f8788117e7eff1d82e926ec794901d17c78024a50270940304540a733656f0d60405160405180910390a45050565b6000602082840312156101f257600080fd5b81516003811061020157600080fd5b9392505050565b634e487b7160e01b600052602160045260246000fd5b602081016003831061024057634e487b7160e01b600052602160045260246000fd5b91905290565b6111f2806102556000396000f3fe608060405234801561001057600080fd5b50600436106101bc5760003560e01c80637cadf69f116100f55780637cadf69f146104175780637d4a03bd1461043e5780637d9d2880146104655780637f90209f1461048c57806385cb1191146104b35780638c1536df146104da5780638deb3893146105015780638e8dfd16146105145780639072f8381461052757806391d148541461054e578063977a807014610561578063a217fddf14610588578063ad1c8a8614610590578063cddcace5146105b7578063d547741f146105de578063da19ddfb146105f1578063df38069314610618578063f8ae93b41461063f57600080fd5b806301ffc9a7146101c157806311ee8ff7146101e957806316f76bbf1461021e5780631785f53c14610245578063219c266a1461025a578063248a9ca3146102815780632668f305146102945780632c0b8bf7146102bb5780632e4885e8146102e25780632f2ff15d1461030957806336568abe1461031c5780633ebf79851461032f5780634216e73a1461037b57806351ad0a80146103a25780635af27f79146103b557806370480275146103dc57806374bc8139146103ef57806375b238fc14610402575b600080fd5b6101d46101cf366004610eb1565b610666565b60405190151581526020015b60405180910390f35b6102107f58a0044e0ecd81025e398bf1815075d1234cbac3749614b0b33a404c2ee2babf81565b6040519081526020016101e0565b6102107ff14f431dadc82e7dbc5e379f71234e5735c9187e4327a7c6ac014d55d1b7727a81565b610258610253366004610ef7565b61069d565b005b6102107f4fd3e0487a0382fb027c77b1ae4c563672c9fb30a74879855f0c86c376cf96ea81565b61021061028f366004610f12565b61074e565b6102107fb1f79813bc7630a52ae948bc99781397e409d0dd3521953bf7d8d7a2db6147f781565b6102107fb7b4fde9944d3c13e9a78835431c33a5084d90a7f0c73def76d7886315fe87b081565b6102107fb931b2719aeb2a65a5035fa0a190bfdc4c8622ce8cbff7a3d1ab42531fb1a91881565b610258610317366004610f2b565b610763565b61025861032a366004610f2b565b610784565b61036361033d366004610f66565b60026020908152600092835260408084209091529082529020546001600160a01b031681565b6040516001600160a01b0390911681526020016101e0565b6102107f4c41ae454beb6bbbe9be50accc957a3b1536e48b835a86919af981b5244db75581565b6102586103b0366004610f89565b6107fe565b6102107fa2c73732de657ad0f36e0ddbb2710f4b13e8dde46421386bb92d1e179dae4d4d81565b6102586103ea366004610ef7565b610982565b6102586103fd366004610fc5565b6109b2565b61021060008051602061119d83398151915281565b6102107f74845de37cfabd357633214b47fa91ccd19b05b7c5a08ac22c187f811fb62bca81565b6102107f9f35ef3e0c2652a8bb8747d92f407fcd39a7768dacc7f16581c7a71f103e556281565b6102107fc26faedaeeda2fb94a66d786aa89c4a18bb790fa009d9da94a541d92185ca91681565b6102107fc6674f98ba35c01c130e08195dd26c70466037473a068c5aaa470a783d99c16c81565b6102107fae79a935737012d066e7183032692e521ffe1ade2beda267e23e02b1d6e9118781565b6102107faa06d108dbd7bf976b16b7bf5adb29d2d0ef2c385ca8b9d833cc802f33942d7281565b61025861050f366004610fc5565b610a6e565b610363610522366004610f66565b610b12565b6102107f54953c23068b8fc4c0736301b50f10027d6b469327de1fd42841a5072b1bcebe81565b6101d461055c366004610f2b565b610b68565b6102107f27d764ea2a4a3865434bbf4a391110149644be31448f3479fd15b4438875576581565b610210600081565b6102107f3a68dbfd8bbb64015c42bc131c388dea7965e28c1004d09b39f59500c3a763ec81565b6102107f0f27b9e46b89c5c742e28094dcefe5e946c3b98f0fbed87d9fcf5b10ba9684ec81565b6102586105ec366004610f2b565b610b91565b6102107f080909c18c958ce5a2d36481697824e477319323d03154ceba3b78f28a61887b81565b6102107fb4bf999b68d8085dbbf7a0ec2f5a2d660873935bdf1ed08eb421ac6dcbc0036281565b6102107fdd5b9b8a5e8e01f2962ed7e983d58fe32e1f66aa88dd7ab30770fa9b77da724381565b60006001600160e01b03198216637965db0b60e01b148061069757506301ffc9a760e01b6001600160e01b03198316145b92915050565b60008051602061119d8339815191526106b581610bad565b336001600160a01b038316036107325760405162461bcd60e51b815260206004820152603760248201527f43616e6e6f742072656d6f76652073656c662061732061646d696e2e202048616044820152763b32903a3432903732bb9030b236b4b71032379034ba1760491b60648201526084015b60405180910390fd5b61074a60008051602061119d83398151915283610bba565b5050565b60009081526020819052604090206001015490565b61076c8261074e565b61077581610bad565b61077f8383610c1f565b505050565b6001600160a01b03811633146107f45760405162461bcd60e51b815260206004820152602f60248201527f416363657373436f6e74726f6c3a2063616e206f6e6c792072656e6f756e636560448201526e103937b632b9903337b91039b2b63360891b6064820152608401610729565b61074a8282610bba565b61081660008051602061119d83398151915233610b68565b610833576040516364487c2560e11b815260040160405180910390fd5b6001600083600281111561084957610849610fe0565b600281111561085a5761085a610fe0565b815260208101919091526040016000205460ff1615156001146108d75760405162461bcd60e51b815260206004820152602f60248201527f5468652070726f766964656420456e76206973206e6f742076616c696420666f60448201526e1c881d1a1a5cc818dbdb9d1c9858dd608a1b6064820152608401610729565b806002600085815260200190815260200160002060008460028111156108ff576108ff610fe0565b600281111561091057610910610fe0565b815260200190815260200160002060006101000a8154816001600160a01b0302191690836001600160a01b031602179055507f33f014890f109229bbcf8dd47204c153a2c0ff1c572a61de220d10336530f53d83838360405161097593929190611018565b60405180910390a1505050565b60008051602061119d83398151915261099a81610bad565b61074a60008051602061119d83398151915283610c1f565b6109ca60008051602061119d83398151915233610b68565b6109e7576040516364487c2560e11b815260040160405180910390fd5b60018060008360028111156109fe576109fe610fe0565b6002811115610a0f57610a0f610fe0565b815260200190815260200160002060006101000a81548160ff0219169083151502179055507f839ad2743d4062df579edf3818f642b71ee0688a35d6bc4438ef5314cece801581604051610a639190611045565b60405180910390a150565b610a8660008051602061119d83398151915233610b68565b610aa3576040516364487c2560e11b815260040160405180910390fd5b60016000826002811115610ab957610ab9610fe0565b6002811115610aca57610aca610fe0565b815260208101919091526040908101600020805460ff19169055517f3f178f17dae6caf8ca09c4857502baf7744e8597de42d6596476fe9e06b8ad4790610a63908390611045565b600082815260026020819052604082209082908490811115610b3657610b36610fe0565b6002811115610b4757610b47610fe0565b81526020810191909152604001600020546001600160a01b03169392505050565b6000918252602082815260408084206001600160a01b0393909316845291905290205460ff1690565b610b9a8261074e565b610ba381610bad565b61077f8383610bba565b610bb78133610ca3565b50565b610bc48282610b68565b1561074a576000828152602081815260408083206001600160a01b0385168085529252808320805460ff1916905551339285917ff6391f5c32d9c69d2a47ea670b442974b53935d1edc7fd64eb21e047a839171b9190a45050565b610c298282610b68565b61074a576000828152602081815260408083206001600160a01b03851684529091529020805460ff19166001179055610c5f3390565b6001600160a01b0316816001600160a01b0316837f2f8788117e7eff1d82e926ec794901d17c78024a50270940304540a733656f0d60405160405180910390a45050565b610cad8282610b68565b61074a57610cba81610cfc565b610cc5836020610d0e565b604051602001610cd6929190611077565b60408051601f198184030181529082905262461bcd60e51b8252610729916004016110e6565b60606106976001600160a01b03831660145b60606000610d1d83600261112f565b610d28906002611146565b67ffffffffffffffff811115610d4057610d40611159565b6040519080825280601f01601f191660200182016040528015610d6a576020820181803683370190505b509050600360fc1b81600081518110610d8557610d8561116f565b60200101906001600160f81b031916908160001a905350600f60fb1b81600181518110610db457610db461116f565b60200101906001600160f81b031916908160001a9053506000610dd884600261112f565b610de3906001611146565b90505b6001811115610e5b576f181899199a1a9b1b9c1cb0b131b232b360811b85600f1660108110610e1757610e1761116f565b1a60f81b828281518110610e2d57610e2d61116f565b60200101906001600160f81b031916908160001a90535060049490941c93610e5481611185565b9050610de6565b508315610eaa5760405162461bcd60e51b815260206004820181905260248201527f537472696e67733a20686578206c656e67746820696e73756666696369656e746044820152606401610729565b9392505050565b600060208284031215610ec357600080fd5b81356001600160e01b031981168114610eaa57600080fd5b80356001600160a01b0381168114610ef257600080fd5b919050565b600060208284031215610f0957600080fd5b610eaa82610edb565b600060208284031215610f2457600080fd5b5035919050565b60008060408385031215610f3e57600080fd5b82359150610f4e60208401610edb565b90509250929050565b803560038110610ef257600080fd5b60008060408385031215610f7957600080fd5b82359150610f4e60208401610f57565b600080600060608486031215610f9e57600080fd5b83359250610fae60208501610f57565b9150610fbc60408501610edb565b90509250925092565b600060208284031215610fd757600080fd5b610eaa82610f57565b634e487b7160e01b600052602160045260246000fd5b6003811061101457634e487b7160e01b600052602160045260246000fd5b9052565b8381526060810161102c6020830185610ff6565b6001600160a01b03929092166040919091015292915050565b602081016106978284610ff6565b60005b8381101561106e578181015183820152602001611056565b50506000910152565b76020b1b1b2b9b9a1b7b73a3937b61d1030b1b1b7bab73a1604d1b8152600083516110a9816017850160208801611053565b7001034b99036b4b9b9b4b733903937b6329607d1b60179184019182015283516110da816028840160208801611053565b01602801949350505050565b6020815260008251806020840152611105816040850160208701611053565b601f01601f19169190910160400192915050565b634e487b7160e01b600052601160045260246000fd5b808202811582820484141761069757610697611119565b8082018082111561069757610697611119565b634e487b7160e01b600052604160045260246000fd5b634e487b7160e01b600052603260045260246000fd5b60008161119457611194611119565b50600019019056fedf8b4c520ffe197c5343c6f5aec59570151ef9a492f2c624fd45ddde6135ec42a2646970667358221220bcfb5aa3251ddf33a8736c9689bd99cea1df5baa0fac387c556913725825c97264736f6c634300081c0033df8b4c520ffe197c5343c6f5aec59570151ef9a492f2c624fd45ddde6135ec42",
  "linkReferences": {},
  "deployedLinkReferences": {}
}