{
  "_format": "hh-sol-artifact-1",
  "contractName": "KeyDeriver",
  "sourceName": "contracts/lit-node/HDKeyDeriver.sol",
  "abi": [
    {
      "inputs": [],
      "stateMutability": "nonpayable",
      "type": "constructor"
    },
    {
      "inputs": [],
      "name": "HD_KDF",
      "outputs": [
        {
          "internalType": "address",
          "name": "",
          "type": "address"
        }
      ],
      "stateMutability": "view",
      "type": "function"
    },
    {
      "inputs": [
        {
          "internalType": "bytes32",
          "name": "derivedKeyId",
          "type": "bytes32"
        },
        {
          "components": [
            {
              "internalType": "bytes",
              "name": "pubkey",
              "type": "bytes"
            },
            {
              "internalType": "uint256",
              "name": "keyType",
              "type": "uint256"
            }
          ],
          "internalType": "struct IPubkeyRouter.RootKey[]",
          "name": "rootHDKeys",
          "type": "tuple[]"
        },
        {
          "internalType": "uint256",
          "name": "keyType",
          "type": "uint256"
        }
      ],
      "name": "computeHDPubKey",
      "outputs": [
        {
          "internalType": "bool",
          "name": "",
          "type": "bool"
        },
        {
          "internalType": "bytes",
          "name": "",
          "type": "bytes"
        }
      ],
      "stateMutability": "view",
      "type": "function"
    }
  ],
  "bytecode": "0x6080604052348015600f57600080fd5b506105ee8061001f6000396000f3fe608060405234801561001057600080fd5b50600436106100365760003560e01c806362e4c4641461003b578063a32c2b9914610060575b600080fd5b61004360f581565b6040516001600160a01b0390911681526020015b60405180910390f35b61007361006e36600461029e565b610081565b604051610057929190610443565b600060606000610092868686610100565b905060008060f56001600160a01b0316836040516100b0919061047f565b600060405180830381855afa9150503d80600081146100eb576040519150601f19603f3d011682016040523d82523d6000602084013e6100f0565b606091505b5090999098509650505050505050565b60408051600080825260208201909252606091805b855181101561019a57848682815181106101315761013161049b565b6020026020010151602001510361019257828682815181106101555761015561049b565b6020026020010151600001516040516020016101729291906104b1565b6040516020818303038152906040529250818061018e906104e0565b9250505b600101610115565b50836002036101ac57600193506101b9565b836003036101b957600093505b60006040518060600160405280602b815260200161058e602b9139805160405191925060f887901b91600160e51b9160e090811b919086901b9060009061021090869086908f9087908b9088908f90602001610513565b60408051808303601f190181529190529c9b505050505050505050505050565b634e487b7160e01b600052604160045260246000fd5b604080519081016001600160401b038111828210171561026857610268610230565b60405290565b604051601f8201601f191681016001600160401b038111828210171561029657610296610230565b604052919050565b6000806000606084860312156102b357600080fd5b8335925060208401356001600160401b038111156102d057600080fd5b8401601f810186136102e157600080fd5b80356001600160401b038111156102fa576102fa610230565b8060051b61030a6020820161026e565b9182526020818401810192908101908984111561032657600080fd5b6020850192505b8383101561040a5782356001600160401b0381111561034b57600080fd5b85016040818c03601f1901121561036157600080fd5b610369610246565b60208201356001600160401b0381111561038257600080fd5b82016020810190603f018d1361039757600080fd5b80356001600160401b038111156103b0576103b0610230565b6103c3601f8201601f191660200161026e565b8181528e60208385010111156103d857600080fd5b81602084016020830137600060209282018301528352604093909301358284015250835292830192919091019061032d565b96999698505050506040949094013593505050565b60005b8381101561043a578181015183820152602001610422565b50506000910152565b8215158152604060208201526000825180604084015261046a81606085016020870161041f565b601f01601f1916919091016060019392505050565b6000825161049181846020870161041f565b9190910192915050565b634e487b7160e01b600052603260045260246000fd5b600083516104c381846020880161041f565b8351908301906104d781836020880161041f565b01949350505050565b600063ffffffff821663ffffffff810361050a57634e487b7160e01b600052601160045260246000fd5b60010192915050565b6001600160f81b0319881681526001600160e01b031987811660018301526005820187905285166025820152835160009061055581602985016020890161041f565b6001600160e01b03198516602991840191820152835161057c81602d84016020880161041f565b01602d01999850505050505050505056fe4c49545f48445f4b45595f49445f4b3235365f584d443a5348412d3235365f535357555f524f5f4e554c5fa2646970667358221220b3f5d6acd5a7371344cacab05e607079ebf476b46d8b170419612f80e7a8ac9564736f6c634300081c0033",
  "linkReferences": {},
  "deployedLinkReferences": {}
}