{
  "_format": "hh-sol-artifact-1",
  "contractName": "LITToken",
  "sourceName": "contracts/lit-node/LITToken.sol",
  "abi": [
    {
      "inputs": [
        {
          "internalType": "uint256",
          "name": "cap",
          "type": "uint256"
        }
      ],
      "stateMutability": "nonpayable",
      "type": "constructor"
    },
    {
      "inputs": [],
      "name": "InvalidShortString",
      "type": "error"
    },
    {
      "inputs": [
        {
          "internalType": "string",
          "name": "str",
          "type": "string"
        }
      ],
      "name": "StringTooLong",
      "type": "error"
    },
    {
      "anonymous": false,
      "inputs": [
        {
          "indexed": true,
          "internalType": "address",
          "name": "owner",
          "type": "address"
        },
        {
          "indexed": true,
          "internalType": "address",
          "name": "spender",
          "type": "address"
        },
        {
          "indexed": false,
          "internalType": "uint256",
          "name": "value",
          "type": "uint256"
        }
      ],
      "name": "Approval",
      "type": "event"
    },
    {
      "anonymous": false,
      "inputs": [
        {
          "indexed": true,
          "internalType": "address",
          "name": "delegator",
          "type": "address"
        },
        {
          "indexed": true,
          "internalType": "address",
          "name": "fromDelegate",
          "type": "address"
        },
        {
          "indexed": true,
          "internalType": "address",
          "name": "toDelegate",
          "type": "address"
        }
      ],
      "name": "DelegateChanged",
      "type": "event"
    },
    {
      "anonymous": false,
      "inputs": [
        {
          "indexed": true,
          "internalType": "address",
          "name": "delegate",
          "type": "address"
        },
        {
          "indexed": false,
          "internalType": "uint256",
          "name": "previousBalance",
          "type": "uint256"
        },
        {
          "indexed": false,
          "internalType": "uint256",
          "name": "newBalance",
          "type": "uint256"
        }
      ],
      "name": "DelegateVotesChanged",
      "type": "event"
    },
    {
      "anonymous": false,
      "inputs": [],
      "name": "EIP712DomainChanged",
      "type": "event"
    },
    {
      "anonymous": false,
      "inputs": [
        {
          "indexed": false,
          "internalType": "address",
          "name": "account",
          "type": "address"
        }
      ],
      "name": "Paused",
      "type": "event"
    },
    {
      "anonymous": false,
      "inputs": [
        {
          "indexed": true,
          "internalType": "bytes32",
          "name": "role",
          "type": "bytes32"
        },
        {
          "indexed": true,
          "internalType": "bytes32",
          "name": "previousAdminRole",
          "type": "bytes32"
        },
        {
          "indexed": true,
          "internalType": "bytes32",
          "name": "newAdminRole",
          "type": "bytes32"
        }
      ],
      "name": "RoleAdminChanged",
      "type": "event"
    },
    {
      "anonymous": false,
      "inputs": [
        {
          "indexed": true,
          "internalType": "bytes32",
          "name": "role",
          "type": "bytes32"
        },
        {
          "indexed": true,
          "internalType": "address",
          "name": "account",
          "type": "address"
        },
        {
          "indexed": true,
          "internalType": "address",
          "name": "sender",
          "type": "address"
        }
      ],
      "name": "RoleGranted",
      "type": "event"
    },
    {
      "anonymous": false,
      "inputs": [
        {
          "indexed": true,
          "internalType": "bytes32",
          "name": "role",
          "type": "bytes32"
        },
        {
          "indexed": true,
          "internalType": "address",
          "name": "account",
          "type": "address"
        },
        {
          "indexed": true,
          "internalType": "address",
          "name": "sender",
          "type": "address"
        }
      ],
      "name": "RoleRevoked",
      "type": "event"
    },
    {
      "anonymous": false,
      "inputs": [
        {
          "indexed": true,
          "internalType": "address",
          "name": "from",
          "type": "address"
        },
        {
          "indexed": true,
          "internalType": "address",
          "name": "to",
          "type": "address"
        },
        {
          "indexed": false,
          "internalType": "uint256",
          "name": "value",
          "type": "uint256"
        }
      ],
      "name": "Transfer",
      "type": "event"
    },
    {
      "anonymous": false,
      "inputs": [
        {
          "indexed": false,
          "internalType": "address",
          "name": "account",
          "type": "address"
        }
      ],
      "name": "Unpaused",
      "type": "event"
    },
    {
      "inputs": [],
      "name": "ADMIN_ROLE",
      "outputs": [
        {
          "internalType": "bytes32",
          "name": "",
          "type": "bytes32"
        }
      ],
      "stateMutability": "view",
      "type": "function"
    },
    {
      "inputs": [],
      "name": "CLOCK_MODE",
      "outputs": [
        {
          "internalType": "string",
          "name": "",
          "type": "string"
        }
      ],
      "stateMutability": "view",
      "type": "function"
    },
    {
      "inputs": [],
      "name": "DEFAULT_ADMIN_ROLE",
      "outputs": [
        {
          "internalType": "bytes32",
          "name": "",
          "type": "bytes32"
        }
      ],
      "stateMutability": "view",
      "type": "function"
    },
    {
      "inputs": [],
      "name": "DOMAIN_SEPARATOR",
      "outputs": [
        {
          "internalType": "bytes32",
          "name": "",
          "type": "bytes32"
        }
      ],
      "stateMutability": "view",
      "type": "function"
    },
    {
      "inputs": [],
      "name": "MINTER_ROLE",
      "outputs": [
        {
          "internalType": "bytes32",
          "name": "",
          "type": "bytes32"
        }
      ],
      "stateMutability": "view",
      "type": "function"
    },
    {
      "inputs": [],
      "name": "PAUSER_ROLE",
      "outputs": [
        {
          "internalType": "bytes32",
          "name": "",
          "type": "bytes32"
        }
      ],
      "stateMutability": "view",
      "type": "function"
    },
    {
      "inputs": [
        {
          "internalType": "address",
          "name": "owner",
          "type": "address"
        },
        {
          "internalType": "address",
          "name": "spender",
          "type": "address"
        }
      ],
      "name": "allowance",
      "outputs": [
        {
          "internalType": "uint256",
          "name": "",
          "type": "uint256"
        }
      ],
      "stateMutability": "view",
      "type": "function"
    },
    {
      "inputs": [
        {
          "internalType": "address",
          "name": "spender",
          "type": "address"
        },
        {
          "internalType": "uint256",
          "name": "amount",
          "type": "uint256"
        }
      ],
      "name": "approve",
      "outputs": [
        {
          "internalType": "bool",
          "name": "",
          "type": "bool"
        }
      ],
      "stateMutability": "nonpayable",
      "type": "function"
    },
    {
      "inputs": [
        {
          "internalType": "address",
          "name": "account",
          "type": "address"
        }
      ],
      "name": "balanceOf",
      "outputs": [
        {
          "internalType": "uint256",
          "name": "",
          "type": "uint256"
        }
      ],
      "stateMutability": "view",
      "type": "function"
    },
    {
      "inputs": [
        {
          "internalType": "uint256",
          "name": "amount",
          "type": "uint256"
        }
      ],
      "name": "burn",
      "outputs": [],
      "stateMutability": "nonpayable",
      "type": "function"
    },
    {
      "inputs": [
        {
          "internalType": "address",
          "name": "account",
          "type": "address"
        },
        {
          "internalType": "uint256",
          "name": "amount",
          "type": "uint256"
        }
      ],
      "name": "burnFrom",
      "outputs": [],
      "stateMutability": "nonpayable",
      "type": "function"
    },
    {
      "inputs": [],
      "name": "cap",
      "outputs": [
        {
          "internalType": "uint256",
          "name": "",
          "type": "uint256"
        }
      ],
      "stateMutability": "view",
      "type": "function"
    },
    {
      "inputs": [
        {
          "internalType": "address",
          "name": "account",
          "type": "address"
        },
        {
          "internalType": "uint32",
          "name": "pos",
          "type": "uint32"
        }
      ],
      "name": "checkpoints",
      "outputs": [
        {
          "components": [
            {
              "internalType": "uint32",
              "name": "fromBlock",
              "type": "uint32"
            },
            {
              "internalType": "uint224",
              "name": "votes",
              "type": "uint224"
            }
          ],
          "internalType": "struct ERC20Votes.Checkpoint",
          "name": "",
          "type": "tuple"
        }
      ],
      "stateMutability": "view",
      "type": "function"
    },
    {
      "inputs": [],
      "name": "clock",
      "outputs": [
        {
          "internalType": "uint48",
          "name": "",
          "type": "uint48"
        }
      ],
      "stateMutability": "view",
      "type": "function"
    },
    {
      "inputs": [],
      "name": "decimals",
      "outputs": [
        {
          "internalType": "uint8",
          "name": "",
          "type": "uint8"
        }
      ],
      "stateMutability": "view",
      "type": "function"
    },
    {
      "inputs": [
        {
          "internalType": "address",
          "name": "spender",
          "type": "address"
        },
        {
          "internalType": "uint256",
          "name": "subtractedValue",
          "type": "uint256"
        }
      ],
      "name": "decreaseAllowance",
      "outputs": [
        {
          "internalType": "bool",
          "name": "",
          "type": "bool"
        }
      ],
      "stateMutability": "nonpayable",
      "type": "function"
    },
    {
      "inputs": [
        {
          "internalType": "address",
          "name": "delegatee",
          "type": "address"
        }
      ],
      "name": "delegate",
      "outputs": [],
      "stateMutability": "nonpayable",
      "type": "function"
    },
    {
      "inputs": [
        {
          "internalType": "address",
          "name": "delegatee",
          "type": "address"
        },
        {
          "internalType": "uint256",
          "name": "nonce",
          "type": "uint256"
        },
        {
          "internalType": "uint256",
          "name": "expiry",
          "type": "uint256"
        },
        {
          "internalType": "uint8",
          "name": "v",
          "type": "uint8"
        },
        {
          "internalType": "bytes32",
          "name": "r",
          "type": "bytes32"
        },
        {
          "internalType": "bytes32",
          "name": "s",
          "type": "bytes32"
        }
      ],
      "name": "delegateBySig",
      "outputs": [],
      "stateMutability": "nonpayable",
      "type": "function"
    },
    {
      "inputs": [
        {
          "internalType": "address",
          "name": "account",
          "type": "address"
        }
      ],
      "name": "delegates",
      "outputs": [
        {
          "internalType": "address",
          "name": "",
          "type": "address"
        }
      ],
      "stateMutability": "view",
      "type": "function"
    },
    {
      "inputs": [],
      "name": "eip712Domain",
      "outputs": [
        {
          "internalType": "bytes1",
          "name": "fields",
          "type": "bytes1"
        },
        {
          "internalType": "string",
          "name": "name",
          "type": "string"
        },
        {
          "internalType": "string",
          "name": "version",
          "type": "string"
        },
        {
          "internalType": "uint256",
          "name": "chainId",
          "type": "uint256"
        },
        {
          "internalType": "address",
          "name": "verifyingContract",
          "type": "address"
        },
        {
          "internalType": "bytes32",
          "name": "salt",
          "type": "bytes32"
        },
        {
          "internalType": "uint256[]",
          "name": "extensions",
          "type": "uint256[]"
        }
      ],
      "stateMutability": "view",
      "type": "function"
    },
    {
      "inputs": [
        {
          "internalType": "uint256",
          "name": "timepoint",
          "type": "uint256"
        }
      ],
      "name": "getPastTotalSupply",
      "outputs": [
        {
          "internalType": "uint256",
          "name": "",
          "type": "uint256"
        }
      ],
      "stateMutability": "view",
      "type": "function"
    },
    {
      "inputs": [
        {
          "internalType": "address",
          "name": "account",
          "type": "address"
        },
        {
          "internalType": "uint256",
          "name": "timepoint",
          "type": "uint256"
        }
      ],
      "name": "getPastVotes",
      "outputs": [
        {
          "internalType": "uint256",
          "name": "",
          "type": "uint256"
        }
      ],
      "stateMutability": "view",
      "type": "function"
    },
    {
      "inputs": [
        {
          "internalType": "bytes32",
          "name": "role",
          "type": "bytes32"
        }
      ],
      "name": "getRoleAdmin",
      "outputs": [
        {
          "internalType": "bytes32",
          "name": "",
          "type": "bytes32"
        }
      ],
      "stateMutability": "view",
      "type": "function"
    },
    {
      "inputs": [
        {
          "internalType": "address",
          "name": "account",
          "type": "address"
        }
      ],
      "name": "getVotes",
      "outputs": [
        {
          "internalType": "uint256",
          "name": "",
          "type": "uint256"
        }
      ],
      "stateMutability": "view",
      "type": "function"
    },
    {
      "inputs": [
        {
          "internalType": "bytes32",
          "name": "role",
          "type": "bytes32"
        },
        {
          "internalType": "address",
          "name": "account",
          "type": "address"
        }
      ],
      "name": "grantRole",
      "outputs": [],
      "stateMutability": "nonpayable",
      "type": "function"
    },
    {
      "inputs": [
        {
          "internalType": "bytes32",
          "name": "role",
          "type": "bytes32"
        },
        {
          "internalType": "address",
          "name": "account",
          "type": "address"
        }
      ],
      "name": "hasRole",
      "outputs": [
        {
          "internalType": "bool",
          "name": "",
          "type": "bool"
        }
      ],
      "stateMutability": "view",
      "type": "function"
    },
    {
      "inputs": [
        {
          "internalType": "address",
          "name": "spender",
          "type": "address"
        },
        {
          "internalType": "uint256",
          "name": "addedValue",
          "type": "uint256"
        }
      ],
      "name": "increaseAllowance",
      "outputs": [
        {
          "internalType": "bool",
          "name": "",
          "type": "bool"
        }
      ],
      "stateMutability": "nonpayable",
      "type": "function"
    },
    {
      "inputs": [
        {
          "internalType": "address",
          "name": "_recipient",
          "type": "address"
        },
        {
          "internalType": "uint256",
          "name": "_amount",
          "type": "uint256"
        }
      ],
      "name": "mint",
      "outputs": [],
      "stateMutability": "nonpayable",
      "type": "function"
    },
    {
      "inputs": [],
      "name": "name",
      "outputs": [
        {
          "internalType": "string",
          "name": "",
          "type": "string"
        }
      ],
      "stateMutability": "view",
      "type": "function"
    },
    {
      "inputs": [
        {
          "internalType": "address",
          "name": "owner",
          "type": "address"
        }
      ],
      "name": "nonces",
      "outputs": [
        {
          "internalType": "uint256",
          "name": "",
          "type": "uint256"
        }
      ],
      "stateMutability": "view",
      "type": "function"
    },
    {
      "inputs": [
        {
          "internalType": "address",
          "name": "account",
          "type": "address"
        }
      ],
      "name": "numCheckpoints",
      "outputs": [
        {
          "internalType": "uint32",
          "name": "",
          "type": "uint32"
        }
      ],
      "stateMutability": "view",
      "type": "function"
    },
    {
      "inputs": [],
      "name": "pause",
      "outputs": [],
      "stateMutability": "nonpayable",
      "type": "function"
    },
    {
      "inputs": [],
      "name": "paused",
      "outputs": [
        {
          "internalType": "bool",
          "name": "",
          "type": "bool"
        }
      ],
      "stateMutability": "view",
      "type": "function"
    },
    {
      "inputs": [
        {
          "internalType": "address",
          "name": "owner",
          "type": "address"
        },
        {
          "internalType": "address",
          "name": "spender",
          "type": "address"
        },
        {
          "internalType": "uint256",
          "name": "value",
          "type": "uint256"
        },
        {
          "internalType": "uint256",
          "name": "deadline",
          "type": "uint256"
        },
        {
          "internalType": "uint8",
          "name": "v",
          "type": "uint8"
        },
        {
          "internalType": "bytes32",
          "name": "r",
          "type": "bytes32"
        },
        {
          "internalType": "bytes32",
          "name": "s",
          "type": "bytes32"
        }
      ],
      "name": "permit",
      "outputs": [],
      "stateMutability": "nonpayable",
      "type": "function"
    },
    {
      "inputs": [
        {
          "internalType": "bytes32",
          "name": "role",
          "type": "bytes32"
        },
        {
          "internalType": "address",
          "name": "account",
          "type": "address"
        }
      ],
      "name": "renounceRole",
      "outputs": [],
      "stateMutability": "nonpayable",
      "type": "function"
    },
    {
      "inputs": [
        {
          "internalType": "bytes32",
          "name": "role",
          "type": "bytes32"
        },
        {
          "internalType": "address",
          "name": "account",
          "type": "address"
        }
      ],
      "name": "revokeRole",
      "outputs": [],
      "stateMutability": "nonpayable",
      "type": "function"
    },
    {
      "inputs": [
        {
          "internalType": "bytes4",
          "name": "interfaceId",
          "type": "bytes4"
        }
      ],
      "name": "supportsInterface",
      "outputs": [
        {
          "internalType": "bool",
          "name": "",
          "type": "bool"
        }
      ],
      "stateMutability": "view",
      "type": "function"
    },
    {
      "inputs": [],
      "name": "symbol",
      "outputs": [
        {
          "internalType": "string",
          "name": "",
          "type": "string"
        }
      ],
      "stateMutability": "view",
      "type": "function"
    },
    {
      "inputs": [],
      "name": "totalSupply",
      "outputs": [
        {
          "internalType": "uint256",
          "name": "",
          "type": "uint256"
        }
      ],
      "stateMutability": "view",
      "type": "function"
    },
    {
      "inputs": [
        {
          "internalType": "address",
          "name": "to",
          "type": "address"
        },
        {
          "internalType": "uint256",
          "name": "amount",
          "type": "uint256"
        }
      ],
      "name": "transfer",
      "outputs": [
        {
          "internalType": "bool",
          "name": "",
          "type": "bool"
        }
      ],
      "stateMutability": "nonpayable",
      "type": "function"
    },
    {
      "inputs": [
        {
          "internalType": "address",
          "name": "from",
          "type": "address"
        },
        {
          "internalType": "address",
          "name": "to",
          "type": "address"
        },
        {
          "internalType": "uint256",
          "name": "amount",
          "type": "uint256"
        }
      ],
      "name": "transferFrom",
      "outputs": [
        {
          "internalType": "bool",
          "name": "",
          "type": "bool"
        }
      ],
      "stateMutability": "nonpayable",
      "type": "function"
    },
    {
      "inputs": [],
      "name": "unpause",
      "outputs": [],
      "stateMutability": "nonpayable",
      "type": "function"
    }
  ],
  "bytecode": "0x61018060405234801561001157600080fd5b5060405161333238038061333283398101604081905261003091610406565b6040518060400160405280600c81526020016b131a5d08141c9bdd1bd8dbdb60a21b81525080604051806040016040528060018152602001603160f81b815250836040518060400160405280600e81526020016d2634ba102a32b9ba102a37b5b2b760911b815250604051806040016040528060078152602001661d195cdd13125560ca1b81525081600490816100c791906104be565b5060056100d482826104be565b5050506000811161012c5760405162461bcd60e51b815260206004820152601560248201527f45524332304361707065643a206361702069732030000000000000000000000060448201526064015b60405180910390fd5b6080526006805460ff1916905561014482600761029e565b6101405261015381600861029e565b61016052815160208084019190912061010052815190820120610120524660c0526101e26101005161012051604080517f8b73c3c69bb8fe3d512ecc4cf759cc79239f7b179b0ffacaa9a75d522b39400f60208201529081019290925260608201524660808201523060a082015260009060c00160405160208183030381529060405280519060200120905090565b60a05250503060e05250610204600080516020613312833981519152336102d1565b61021c6000805160206132d2833981519152336102d1565b6102346000805160206132f2833981519152336102d1565b61025a6000805160206132d28339815191526000805160206133128339815191526102df565b610272600080516020613312833981519152806102df565b6102986000805160206132f28339815191526000805160206133128339815191526102df565b506105ee565b60006020835110156102ba576102b38361032a565b90506102cb565b816102c584826104be565b5060ff90505b92915050565b6102db8282610368565b5050565b600082815260208190526040808220600101805490849055905190918391839186917fbd79b86ffe0ab8e8776151514217cd7cacd52c909f66475c3af44e129f0b00ff9190a4505050565b600080829050601f81511115610355578260405163305a27a960e01b8152600401610123919061057c565b8051610360826105ca565b179392505050565b6000828152602081815260408083206001600160a01b038516845290915290205460ff166102db576000828152602081815260408083206001600160a01b03851684529091529020805460ff191660011790556103c23390565b6001600160a01b0316816001600160a01b0316837f2f8788117e7eff1d82e926ec794901d17c78024a50270940304540a733656f0d60405160405180910390a45050565b60006020828403121561041857600080fd5b5051919050565b634e487b7160e01b600052604160045260246000fd5b600181811c9082168061044957607f821691505b60208210810361046957634e487b7160e01b600052602260045260246000fd5b50919050565b601f8211156104b957806000526020600020601f840160051c810160208510156104965750805b601f840160051c820191505b818110156104b657600081556001016104a2565b50505b505050565b81516001600160401b038111156104d7576104d761041f565b6104eb816104e58454610435565b8461046f565b6020601f82116001811461051f57600083156105075750848201515b600019600385901b1c1916600184901b1784556104b6565b600084815260208120601f198516915b8281101561054f578785015182556020948501946001909201910161052f565b508482101561056d5786840151600019600387901b60f8161c191681555b50505050600190811b01905550565b602081526000825180602084015260005b818110156105aa576020818601810151604086840101520161058d565b506000604082850101526040601f19601f83011684010191505092915050565b805160208083015191908110156104695760001960209190910360031b1b16919050565b60805160a05160c05160e05161010051610120516101405161016051612c7f6106536000396000610ae001526000610ab5015260006114c8015260006114a0015260006113fb015260006114250152600061144f015260006106a70152612c7f6000f3fe608060405234801561001057600080fd5b50600436106101fe5760003560e01c806370a082311161011657806370a082311461039457806375b238fc146103a757806379cc6790146103ce5780637ecebe00146103e15780638456cb59146103f457806384b0196e146103fc5780638e539e8c1461041757806391d148541461042a57806391ddadf41461043d57806395d89b411461045c5780639ab24eb014610464578063a217fddf14610477578063a457c2d71461047f578063a9059cbb14610492578063c3cda520146104a5578063d505accf146104b8578063d5391393146104cb578063d547741f146104f2578063dd62ed3e14610505578063e63ab1e914610518578063f1127ed81461052d57600080fd5b806301ffc9a71461020357806306fdde031461022b578063095ea7b31461024057806318160ddd1461025357806323b872dd14610265578063248a9ca3146102785780632f2ff15d1461028b578063313ce567146102a0578063355274ea146102af5780633644e515146102b757806336568abe146102bf57806339509351146102d25780633a46b1a8146102e55780633f4ba83a146102f857806340c10f191461030057806342966c68146103135780634bf5d7e914610326578063587cde1e1461032e5780635c19a95c1461034e5780635c975abb146103615780636fcfff451461036c575b600080fd5b6102166102113660046126f5565b61056a565b60405190151581526020015b60405180910390f35b6102336105a1565b604051610222919061276f565b61021661024e36600461279e565b610633565b6003545b604051908152602001610222565b6102166102733660046127c8565b61064b565b610257610286366004612805565b61066f565b61029e61029936600461281e565b610684565b005b60405160128152602001610222565b6102576106a5565b6102576106c9565b61029e6102cd36600461281e565b6106d8565b6102166102e036600461279e565b61075b565b6102576102f336600461279e565b61077d565b61029e6107d6565b61029e61030e36600461279e565b610866565b61029e610321366004612805565b6108de565b6102336108eb565b61034161033c36600461284a565b610983565b6040516102229190612865565b61029e61035c36600461284a565b6109a1565b60065460ff16610216565b61037f61037a36600461284a565b6109ab565b60405163ffffffff9091168152602001610222565b6102576103a236600461284a565b6109cd565b6102577fdf8b4c520ffe197c5343c6f5aec59570151ef9a492f2c624fd45ddde6135ec4281565b61029e6103dc36600461279e565b6109e8565b6102576103ef36600461284a565b6109fd565b61029e610a1b565b610404610aa7565b6040516102229796959493929190612879565b610257610425366004612805565b610b30565b61021661043836600461281e565b610b6b565b610445610b94565b60405165ffffffffffff9091168152602001610222565b610233610b9f565b61025761047236600461284a565b610bae565b610257600081565b61021661048d36600461279e565b610c2f565b6102166104a036600461279e565b610caa565b61029e6104b3366004612922565b610cb8565b61029e6104c636600461297a565b610dea565b6102577ff0887ba65ee2024ea881d91b74c2450ef19e1557f03bed3ea9f16b037cbe2dc981565b61029e61050036600461281e565b610f4e565b6102576105133660046129e5565b610f6a565b610257600080516020612c0a83398151915281565b61054061053b366004612a0f565b610f95565b60408051825163ffffffff1681526020928301516001600160e01b03169281019290925201610222565b60006001600160e01b03198216637965db0b60e01b148061059b57506301ffc9a760e01b6001600160e01b03198316145b92915050565b6060600480546105b090612a4f565b80601f01602080910402602001604051908101604052809291908181526020018280546105dc90612a4f565b80156106295780601f106105fe57610100808354040283529160200191610629565b820191906000526020600020905b81548152906001019060200180831161060c57829003601f168201915b5050505050905090565b600033610641818585611018565b5060019392505050565b60003361065985828561113c565b6106648585856111b6565b506001949350505050565b60009081526020819052604090206001015490565b61068d8261066f565b61069681611360565b6106a0838361136a565b505050565b7f000000000000000000000000000000000000000000000000000000000000000090565b60006106d36113ee565b905090565b6001600160a01b038116331461074d5760405162461bcd60e51b815260206004820152602f60248201527f416363657373436f6e74726f6c3a2063616e206f6e6c792072656e6f756e636560448201526e103937b632b9903337b91039b2b63360891b60648201526084015b60405180910390fd5b6107578282611519565b5050565b60003361064181858561076e8383610f6a565b6107789190612a99565b611018565b6000610787610b94565b65ffffffffffff1682106107ad5760405162461bcd60e51b815260040161074490612aac565b6001600160a01b0383166000908152600c602052604090206107cf908361157e565b9392505050565b6107ee600080516020612c0a83398151915233610b6b565b61085c5760405162461bcd60e51b815260206004820152603960248201527f45524332305072657365744d696e7465725061757365723a206d75737420686160448201527876652070617573657220726f6c6520746f20756e706175736560381b6064820152608401610744565b610864611666565b565b6108907ff0887ba65ee2024ea881d91b74c2450ef19e1557f03bed3ea9f16b037cbe2dc933610b6b565b6108d45760405162461bcd60e51b81526020600482015260156024820152742624aa2a37b5b2b71d1037b7363c9036b4b73a32b960591b6044820152606401610744565b61075782826116b2565b6108e833826116bc565b50565b6060436108f6610b94565b65ffffffffffff161461094b5760405162461bcd60e51b815260206004820152601d60248201527f4552433230566f7465733a2062726f6b656e20636c6f636b206d6f64650000006044820152606401610744565b5060408051808201909152601d81527f6d6f64653d626c6f636b6e756d6265722666726f6d3d64656661756c74000000602082015290565b6001600160a01b039081166000908152600b60205260409020541690565b6108e833826116c6565b6001600160a01b0381166000908152600c602052604081205461059b90611746565b6001600160a01b031660009081526001602052604090205490565b6109f382338361113c565b61075782826116bc565b6001600160a01b03811660009081526009602052604081205461059b565b610a33600080516020612c0a83398151915233610b6b565b610a9f5760405162461bcd60e51b815260206004820152603760248201527f45524332305072657365744d696e7465725061757365723a206d75737420686160448201527676652070617573657220726f6c6520746f20706175736560481b6064820152608401610744565b6108646117af565b600060608082808083610adb7f000000000000000000000000000000000000000000000000000000000000000060076117ec565b610b067f000000000000000000000000000000000000000000000000000000000000000060086117ec565b60408051600080825260208201909252600f60f81b9b939a50919850469750309650945092509050565b6000610b3a610b94565b65ffffffffffff168210610b605760405162461bcd60e51b815260040161074490612aac565b61059b600d8361157e565b6000918252602082815260408084206001600160a01b0393909316845291905290205460ff1690565b60006106d343611897565b6060600580546105b090612a4f565b6001600160a01b0381166000908152600c60205260408120548015610c1c576001600160a01b0383166000908152600c6020526040902080546000198301908110610bfb57610bfb612af5565b600091825260209091200154600160201b90046001600160e01b0316610c1f565b60005b6001600160e01b03169392505050565b60003381610c3d8286610f6a565b905083811015610c9d5760405162461bcd60e51b815260206004820152602560248201527f45524332303a2064656372656173656420616c6c6f77616e63652062656c6f77604482015264207a65726f60d81b6064820152608401610744565b6106648286868403611018565b6000336106418185856111b6565b83421115610d085760405162461bcd60e51b815260206004820152601d60248201527f4552433230566f7465733a207369676e617475726520657870697265640000006044820152606401610744565b604080517fe48329057bfd03d55e49b547132e39cffd9c1820ad7b9d4c5307691425d15adf60208201526001600160a01b038816918101919091526060810186905260808101859052600090610d8290610d7a9060a001604051602081830303815290604052805190602001206118fe565b85858561192b565b9050610d8d81611953565b8614610dd75760405162461bcd60e51b81526020600482015260196024820152784552433230566f7465733a20696e76616c6964206e6f6e636560381b6044820152606401610744565b610de181886116c6565b50505050505050565b83421115610e3a5760405162461bcd60e51b815260206004820152601d60248201527f45524332305065726d69743a206578706972656420646561646c696e650000006044820152606401610744565b60007f6e71edae12b1b97f4d1f60370fef10105fa2faae0126114a169c64845d6126c9888888610e698c611953565b6040805160208101969096526001600160a01b0394851690860152929091166060840152608083015260a082015260c0810186905260e0016040516020818303038152906040528051906020012090506000610ec4826118fe565b90506000610ed48287878761192b565b9050896001600160a01b0316816001600160a01b031614610f375760405162461bcd60e51b815260206004820152601e60248201527f45524332305065726d69743a20696e76616c6964207369676e617475726500006044820152606401610744565b610f428a8a8a611018565b50505050505050505050565b610f578261066f565b610f6081611360565b6106a08383611519565b6001600160a01b03918216600090815260026020908152604080832093909416825291909152205490565b60408051808201909152600080825260208201526001600160a01b0383166000908152600c60205260409020805463ffffffff8416908110610fd957610fd9612af5565b60009182526020918290206040805180820190915291015463ffffffff81168252600160201b90046001600160e01b0316918101919091529392505050565b6001600160a01b03831661107a5760405162461bcd60e51b8152602060048201526024808201527f45524332303a20617070726f76652066726f6d20746865207a65726f206164646044820152637265737360e01b6064820152608401610744565b6001600160a01b0382166110db5760405162461bcd60e51b815260206004820152602260248201527f45524332303a20617070726f766520746f20746865207a65726f206164647265604482015261737360f01b6064820152608401610744565b6001600160a01b0383811660008181526002602090815260408083209487168084529482529182902085905590518481527f8c5be1e5ebec7d5bd14f71427d1e84f3dd0314c0f7b2291e5b200ac8c7c3b925910160405180910390a3505050565b60006111488484610f6a565b905060001981146111b057818110156111a35760405162461bcd60e51b815260206004820152601d60248201527f45524332303a20696e73756666696369656e7420616c6c6f77616e63650000006044820152606401610744565b6111b08484848403611018565b50505050565b6001600160a01b03831661121a5760405162461bcd60e51b815260206004820152602560248201527f45524332303a207472616e736665722066726f6d20746865207a65726f206164604482015264647265737360d81b6064820152608401610744565b6001600160a01b03821661127c5760405162461bcd60e51b815260206004820152602360248201527f45524332303a207472616e7366657220746f20746865207a65726f206164647260448201526265737360e81b6064820152608401610744565b61128783838361197b565b6001600160a01b038316600090815260016020526040902054818110156112ff5760405162461bcd60e51b815260206004820152602660248201527f45524332303a207472616e7366657220616d6f756e7420657863656564732062604482015265616c616e636560d01b6064820152608401610744565b6001600160a01b038085166000818152600160205260408082208686039055928616808252908390208054860190559151600080516020612c2a8339815191529061134d9086815260200190565b60405180910390a36111b0848484611986565b6108e88133611991565b6113748282610b6b565b610757576000828152602081815260408083206001600160a01b03851684529091529020805460ff191660011790556113aa3390565b6001600160a01b0316816001600160a01b0316837f2f8788117e7eff1d82e926ec794901d17c78024a50270940304540a733656f0d60405160405180910390a45050565b6000306001600160a01b037f00000000000000000000000000000000000000000000000000000000000000001614801561144757507f000000000000000000000000000000000000000000000000000000000000000046145b1561147157507f000000000000000000000000000000000000000000000000000000000000000090565b6106d3604080517f8b73c3c69bb8fe3d512ecc4cf759cc79239f7b179b0ffacaa9a75d522b39400f60208201527f0000000000000000000000000000000000000000000000000000000000000000918101919091527f000000000000000000000000000000000000000000000000000000000000000060608201524660808201523060a082015260009060c00160405160208183030381529060405280519060200120905090565b6115238282610b6b565b15610757576000828152602081815260408083206001600160a01b0385168085529252808320805460ff1916905551339285917ff6391f5c32d9c69d2a47ea670b442974b53935d1edc7fd64eb21e047a839171b9190a45050565b8154600090818160058111156115d8576000611599846119ea565b6115a39085612b0b565b600088815260209020909150869082015463ffffffff1611156115c8578091506115d6565b6115d3816001612a99565b92505b505b808210156116255760006115ec8383611ad2565b600088815260209020909150869082015463ffffffff1611156116115780915061161f565b61161c816001612a99565b92505b506115d8565b80156116505760008681526020902081016000190154600160201b90046001600160e01b0316611653565b60005b6001600160e01b03169695505050505050565b61166e611aed565b6006805460ff191690557f5db9ee0a495bf2e6ff9c91a7834c1ba4fdd244a5e8aa4e537bd38aeae4b073aa335b6040516116a89190612865565b60405180910390a1565b6107578282611b36565b6107578282611bc0565b60006116d183610983565b905060006116de846109cd565b6001600160a01b038581166000818152600b602052604080822080546001600160a01b031916898616908117909155905194955093928616927f3134e8a2e6d97e929a7e54011ea5485d7d196dd5f0ba4d4ef95803e8e3fc257f9190a46111b0828483611bd8565b600063ffffffff8211156117ab5760405162461bcd60e51b815260206004820152602660248201527f53616665436173743a2076616c756520646f65736e27742066697420696e203360448201526532206269747360d01b6064820152608401610744565b5090565b6117b7611d15565b6006805460ff191660011790557f62e78cea01bee320cd4e420270b5ea74000d11b0c9f74754ebdbfc544b05a25861169b3390565b606060ff8314611806576117ff83611d5b565b905061059b565b81805461181290612a4f565b80601f016020809104026020016040519081016040528092919081815260200182805461183e90612a4f565b801561188b5780601f106118605761010080835404028352916020019161188b565b820191906000526020600020905b81548152906001019060200180831161186e57829003601f168201915b5050505050905061059b565b600065ffffffffffff8211156117ab5760405162461bcd60e51b815260206004820152602660248201527f53616665436173743a2076616c756520646f65736e27742066697420696e203460448201526538206269747360d01b6064820152608401610744565b600061059b61190b6113ee565b8360405161190160f01b8152600281019290925260228201526042902090565b600080600061193c87878787611d9a565b9150915061194981611e54565b5095945050505050565b6001600160a01b03811660009081526009602052604090208054600181018255905b50919050565b6106a0838383611f99565b6106a0838383611fff565b61199b8282610b6b565b610757576119a88161201a565b6119b383602061202c565b6040516020016119c4929190612b1e565b60408051601f198184030181529082905262461bcd60e51b82526107449160040161276f565b6000816000036119fc57506000919050565b60006001611a09846121c8565b901c6001901b90506001818481611a2257611a22612b8d565b048201901c90506001818481611a3a57611a3a612b8d565b048201901c90506001818481611a5257611a52612b8d565b048201901c90506001818481611a6a57611a6a612b8d565b048201901c90506001818481611a8257611a82612b8d565b048201901c90506001818481611a9a57611a9a612b8d565b048201901c90506001818481611ab257611ab2612b8d565b048201901c90506107cf81828581611acc57611acc612b8d565b0461225c565b6000611ae16002848418612ba3565b6107cf90848416612a99565b60065460ff166108645760405162461bcd60e51b815260206004820152601460248201527314185d5cd8589b194e881b9bdd081c185d5cd95960621b6044820152606401610744565b611b408282612272565b6003546001600160e01b031015611bb25760405162461bcd60e51b815260206004820152603060248201527f4552433230566f7465733a20746f74616c20737570706c79207269736b73206f60448201526f766572666c6f77696e6720766f74657360801b6064820152608401610744565b6111b0600d6122e2836122ee565b611bca8282612460565b6111b0600d612595836122ee565b816001600160a01b0316836001600160a01b031614158015611bfa5750600081115b156106a0576001600160a01b03831615611c88576001600160a01b0383166000908152600c602052604081208190611c3590612595856122ee565b91509150846001600160a01b03167fdec2bacdd2f05b59de34da9b523dff8be42e5e38e818c82fdb0bae774387a7248383604051611c7d929190918252602082015260400190565b60405180910390a250505b6001600160a01b038216156106a0576001600160a01b0382166000908152600c602052604081208190611cbe906122e2856122ee565b91509150836001600160a01b03167fdec2bacdd2f05b59de34da9b523dff8be42e5e38e818c82fdb0bae774387a7248383604051611d06929190918252602082015260400190565b60405180910390a25050505050565b60065460ff16156108645760405162461bcd60e51b815260206004820152601060248201526f14185d5cd8589b194e881c185d5cd95960821b6044820152606401610744565b60606000611d68836125a1565b604080516020808252818301909252919250600091906020820181803683375050509182525060208101929092525090565b6000806fa2a8918ca85bafe22016d0b997e4df60600160ff1b03831115611dc75750600090506003611e4b565b6040805160008082526020820180845289905260ff881692820192909252606081018690526080810185905260019060a0016020604051602081039080840390855afa158015611e1b573d6000803e3d6000fd5b5050604051601f1901519150506001600160a01b038116611e4457600060019250925050611e4b565b9150600090505b94509492505050565b6000816004811115611e6857611e68612bc5565b03611e705750565b6001816004811115611e8457611e84612bc5565b03611ecc5760405162461bcd60e51b815260206004820152601860248201527745434453413a20696e76616c6964207369676e617475726560401b6044820152606401610744565b6002816004811115611ee057611ee0612bc5565b03611f2d5760405162461bcd60e51b815260206004820152601f60248201527f45434453413a20696e76616c6964207369676e6174757265206c656e677468006044820152606401610744565b6003816004811115611f4157611f41612bc5565b036108e85760405162461bcd60e51b815260206004820152602260248201527f45434453413a20696e76616c6964207369676e6174757265202773272076616c604482015261756560f01b6064820152608401610744565b60065460ff16156106a05760405162461bcd60e51b815260206004820152602a60248201527f45524332305061757361626c653a20746f6b656e207472616e736665722077686044820152691a5b19481c185d5cd95960b21b6064820152608401610744565b6106a061200b84610983565b61201484610983565b83611bd8565b606061059b6001600160a01b03831660145b6060600061203b836002612bdb565b612046906002612a99565b67ffffffffffffffff81111561205e5761205e612adf565b6040519080825280601f01601f191660200182016040528015612088576020820181803683370190505b509050600360fc1b816000815181106120a3576120a3612af5565b60200101906001600160f81b031916908160001a905350600f60fb1b816001815181106120d2576120d2612af5565b60200101906001600160f81b031916908160001a90535060006120f6846002612bdb565b612101906001612a99565b90505b6001811115612179576f181899199a1a9b1b9c1cb0b131b232b360811b85600f166010811061213557612135612af5565b1a60f81b82828151811061214b5761214b612af5565b60200101906001600160f81b031916908160001a90535060049490941c9361217281612bf2565b9050612104565b5083156107cf5760405162461bcd60e51b815260206004820181905260248201527f537472696e67733a20686578206c656e67746820696e73756666696369656e746044820152606401610744565b600080608083901c156121dd57608092831c92015b604083901c156121ef57604092831c92015b602083901c1561220157602092831c92015b601083901c1561221357601092831c92015b600883901c1561222557600892831c92015b600483901c1561223757600492831c92015b600283901c1561224957600292831c92015b600183901c1561059b5760010192915050565b600081831061226b57816107cf565b5090919050565b61227a6106a5565b8161228460035490565b61228e9190612a99565b11156122d85760405162461bcd60e51b8152602060048201526019602482015278115490cc8c10d85c1c19590e8818d85c08195e18d959591959603a1b6044820152606401610744565b61075782826125c9565b60006107cf8284612a99565b8254600090819081811561233a5760008781526020902082016000190160408051808201909152905463ffffffff81168252600160201b90046001600160e01b0316602082015261234f565b60408051808201909152600080825260208201525b905080602001516001600160e01b0316935061236f84868863ffffffff16565b92506000821180156123995750612384610b94565b65ffffffffffff16816000015163ffffffff16145b156123dd576123a78361268c565b60008881526020902083016000190180546001600160e01b0392909216600160201b0263ffffffff909216919091179055612456565b8660405180604001604052806124016123f4610b94565b65ffffffffffff16611746565b63ffffffff1681526020016124158661268c565b6001600160e01b039081169091528254600181018455600093845260209384902083519490930151909116600160201b0263ffffffff909316929092179101555b5050935093915050565b6001600160a01b0382166124c05760405162461bcd60e51b815260206004820152602160248201527f45524332303a206275726e2066726f6d20746865207a65726f206164647265736044820152607360f81b6064820152608401610744565b6124cc8260008361197b565b6001600160a01b038216600090815260016020526040902054818110156125405760405162461bcd60e51b815260206004820152602260248201527f45524332303a206275726e20616d6f756e7420657863656564732062616c616e604482015261636560f01b6064820152608401610744565b6001600160a01b0383166000818152600160209081526040808320868603905560038054879003905551858152919291600080516020612c2a833981519152910160405180910390a36106a083600084611986565b60006107cf8284612b0b565b600060ff8216601f81111561059b57604051632cd44ac360e21b815260040160405180910390fd5b6001600160a01b03821661261f5760405162461bcd60e51b815260206004820152601f60248201527f45524332303a206d696e7420746f20746865207a65726f2061646472657373006044820152606401610744565b61262b6000838361197b565b806003600082825461263d9190612a99565b90915550506001600160a01b038216600081815260016020908152604080832080548601905551848152600080516020612c2a833981519152910160405180910390a361075760008383611986565b60006001600160e01b038211156117ab5760405162461bcd60e51b815260206004820152602760248201527f53616665436173743a2076616c756520646f65736e27742066697420696e20326044820152663234206269747360c81b6064820152608401610744565b60006020828403121561270757600080fd5b81356001600160e01b0319811681146107cf57600080fd5b60005b8381101561273a578181015183820152602001612722565b50506000910152565b6000815180845261275b81602086016020860161271f565b601f01601f19169290920160200192915050565b6020815260006107cf6020830184612743565b80356001600160a01b038116811461279957600080fd5b919050565b600080604083850312156127b157600080fd5b6127ba83612782565b946020939093013593505050565b6000806000606084860312156127dd57600080fd5b6127e684612782565b92506127f460208501612782565b929592945050506040919091013590565b60006020828403121561281757600080fd5b5035919050565b6000806040838503121561283157600080fd5b8235915061284160208401612782565b90509250929050565b60006020828403121561285c57600080fd5b6107cf82612782565b6001600160a01b0391909116815260200190565b60ff60f81b8816815260e06020820152600061289860e0830189612743565b82810360408401526128aa8189612743565b606084018890526001600160a01b038716608085015260a0840186905283810360c08501528451808252602080870193509091019060005b818110156129005783518352602093840193909201916001016128e2565b50909b9a5050505050505050505050565b803560ff8116811461279957600080fd5b60008060008060008060c0878903121561293b57600080fd5b61294487612782565b9550602087013594506040870135935061296060608801612911565b9598949750929560808101359460a0909101359350915050565b600080600080600080600060e0888a03121561299557600080fd5b61299e88612782565b96506129ac60208901612782565b955060408801359450606088013593506129c860808901612911565b9699959850939692959460a0840135945060c09093013592915050565b600080604083850312156129f857600080fd5b612a0183612782565b915061284160208401612782565b60008060408385031215612a2257600080fd5b612a2b83612782565b9150602083013563ffffffff81168114612a4457600080fd5b809150509250929050565b600181811c90821680612a6357607f821691505b60208210810361197557634e487b7160e01b600052602260045260246000fd5b634e487b7160e01b600052601160045260246000fd5b8082018082111561059b5761059b612a83565b60208082526019908201527804552433230566f7465733a20667574757265206c6f6f6b757603c1b604082015260600190565b634e487b7160e01b600052604160045260246000fd5b634e487b7160e01b600052603260045260246000fd5b8181038181111561059b5761059b612a83565b76020b1b1b2b9b9a1b7b73a3937b61d1030b1b1b7bab73a1604d1b815260008351612b5081601785016020880161271f565b7001034b99036b4b9b9b4b733903937b6329607d1b6017918401918201528351612b8181602884016020880161271f565b01602801949350505050565b634e487b7160e01b600052601260045260246000fd5b600082612bc057634e487b7160e01b600052601260045260246000fd5b500490565b634e487b7160e01b600052602160045260246000fd5b808202811582820484141761059b5761059b612a83565b600081612c0157612c01612a83565b50600019019056fe65d7a28e3265b37a6474929f336521b332c1681b933f6cb9f3376673440d862addf252ad1be2c89b69c2b068fc378daa952ba7f163c4a11628f55a4df523b3efa2646970667358221220b79f2669ed1bb05376f20c71dda8733b5cc3367c764c410631cb593e775feb6164736f6c634300081c0033f0887ba65ee2024ea881d91b74c2450ef19e1557f03bed3ea9f16b037cbe2dc965d7a28e3265b37a6474929f336521b332c1681b933f6cb9f3376673440d862adf8b4c520ffe197c5343c6f5aec59570151ef9a492f2c624fd45ddde6135ec42",
  "linkReferences": {},
  "deployedLinkReferences": {}
}